{
	"contracts/lib/CurrencyTransferLib.sol": {
		"CurrencyTransferLib": {
			"abi": [
				{
					"inputs": [
						{
							"internalType": "address",
							"name": "recipient",
							"type": "address"
						},
						{
							"internalType": "uint256",
							"name": "value",
							"type": "uint256"
						}
					],
					"name": "CurrencyTransferLibFailedNativeTransfer",
					"type": "error"
				},
				{
					"inputs": [
						{
							"internalType": "uint256",
							"name": "expected",
							"type": "uint256"
						},
						{
							"internalType": "uint256",
							"name": "actual",
							"type": "uint256"
						}
					],
					"name": "CurrencyTransferLibMismatchedValue",
					"type": "error"
				},
				{
					"inputs": [],
					"name": "NATIVE_TOKEN",
					"outputs": [
						{
							"internalType": "address",
							"name": "",
							"type": "address"
						}
					],
					"stateMutability": "view",
					"type": "function"
				}
			],
			"devdoc": {
				"kind": "dev",
				"methods": {},
				"stateVariables": {
					"NATIVE_TOKEN": {
						"details": "The address interpreted as native token of the chain."
					}
				},
				"version": 1
			},
			"evm": {
				"assembly": "    /* \"contracts/lib/CurrencyTransferLib.sol\":264:3598  library CurrencyTransferLib {... */\n  dataSize(sub_0)\n  dataOffset(sub_0)\n  0x0b\n  dup3\n  dup3\n  dup3\n  codecopy\n  dup1\n  mload\n  0x00\n  byte\n  0x73\n  eq\n  tag_1\n  jumpi\n  mstore(0x00, 0x4e487b7100000000000000000000000000000000000000000000000000000000)\n  mstore(0x04, 0x00)\n  revert(0x00, 0x24)\ntag_1:\n  mstore(0x00, address)\n  0x73\n  dup2\n  mstore8\n  dup3\n  dup2\n  return\nstop\n\nsub_0: assembly {\n        /* \"contracts/lib/CurrencyTransferLib.sol\":264:3598  library CurrencyTransferLib {... */\n      eq(address, deployTimeAddress())\n      mstore(0x40, 0x80)\n      jumpi(tag_1, lt(calldatasize, 0x04))\n      shr(0xe0, calldataload(0x00))\n      dup1\n      0x31f7d964\n      eq\n      tag_2\n      jumpi\n    tag_1:\n      revert(0x00, 0x00)\n        /* \"contracts/lib/CurrencyTransferLib.sol\":564:645  address public constant NATIVE_TOKEN = 0xEeeeeEeeeEeEeeEeEeEeeEEEeeeeEeeeeeeeEEeE */\n    tag_2:\n      tag_3\n      tag_4\n      jump\t// in\n    tag_3:\n      mload(0x40)\n      tag_5\n      swap2\n      swap1\n      tag_6\n      jump\t// in\n    tag_5:\n      mload(0x40)\n      dup1\n      swap2\n      sub\n      swap1\n      return\n    tag_4:\n        /* \"contracts/lib/CurrencyTransferLib.sol\":603:645  0xEeeeeEeeeEeEeeEeEeEeeEEEeeeeEeeeeeeeEEeE */\n      0xeeeeeeeeeeeeeeeeeeeeeeeeeeeeeeeeeeeeeeee\n        /* \"contracts/lib/CurrencyTransferLib.sol\":564:645  address public constant NATIVE_TOKEN = 0xEeeeeEeeeEeEeeEeEeEeeEEEeeeeEeeeeeeeEEeE */\n      dup2\n      jump\t// out\n        /* \"#utility.yul\":7:133   */\n    tag_7:\n        /* \"#utility.yul\":44:51   */\n      0x00\n        /* \"#utility.yul\":84:126   */\n      0xffffffffffffffffffffffffffffffffffffffff\n        /* \"#utility.yul\":77:82   */\n      dup3\n        /* \"#utility.yul\":73:127   */\n      and\n        /* \"#utility.yul\":62:127   */\n      swap1\n      pop\n        /* \"#utility.yul\":7:133   */\n      swap2\n      swap1\n      pop\n      jump\t// out\n        /* \"#utility.yul\":139:235   */\n    tag_8:\n        /* \"#utility.yul\":176:183   */\n      0x00\n        /* \"#utility.yul\":205:229   */\n      tag_13\n        /* \"#utility.yul\":223:228   */\n      dup3\n        /* \"#utility.yul\":205:229   */\n      tag_7\n      jump\t// in\n    tag_13:\n        /* \"#utility.yul\":194:229   */\n      swap1\n      pop\n        /* \"#utility.yul\":139:235   */\n      swap2\n      swap1\n      pop\n      jump\t// out\n        /* \"#utility.yul\":241:367   */\n    tag_9:\n        /* \"#utility.yul\":336:360   */\n      tag_15\n        /* \"#utility.yul\":354:359   */\n      dup2\n        /* \"#utility.yul\":336:360   */\n      tag_8\n      jump\t// in\n    tag_15:\n        /* \"#utility.yul\":331:334   */\n      dup3\n        /* \"#utility.yul\":324:361   */\n      mstore\n        /* \"#utility.yul\":241:367   */\n      pop\n      pop\n      jump\t// out\n        /* \"#utility.yul\":373:611   */\n    tag_6:\n        /* \"#utility.yul\":474:478   */\n      0x00\n        /* \"#utility.yul\":512:514   */\n      0x20\n        /* \"#utility.yul\":501:510   */\n      dup3\n        /* \"#utility.yul\":497:515   */\n      add\n        /* \"#utility.yul\":489:515   */\n      swap1\n      pop\n        /* \"#utility.yul\":525:604   */\n      tag_17\n        /* \"#utility.yul\":601:602   */\n      0x00\n        /* \"#utility.yul\":590:599   */\n      dup4\n        /* \"#utility.yul\":586:603   */\n      add\n        /* \"#utility.yul\":577:583   */\n      dup5\n        /* \"#utility.yul\":525:604   */\n      tag_9\n      jump\t// in\n    tag_17:\n        /* \"#utility.yul\":373:611   */\n      swap3\n      swap2\n      pop\n      pop\n      jump\t// out\n\n    auxdata: 0xa2646970667358221220ec2498beb3abdcab149a8a6114638c42f72d9f828e470bf3b33078ea9018bf6e64736f6c634300081e0033\n}\n",
				"bytecode": {
					"linkReferences": {},
					"object": "60f061004c600b8282823980515f1a6073146040577f4e487b71000000000000000000000000000000000000000000000000000000005f525f60045260245ffd5b305f52607381538281f3fe73000000000000000000000000000000000000000030146080604052600436106032575f3560e01c806331f7d964146036575b5f5ffd5b603c6050565b6040516047919060a3565b60405180910390f35b73eeeeeeeeeeeeeeeeeeeeeeeeeeeeeeeeeeeeeeee81565b5f73ffffffffffffffffffffffffffffffffffffffff82169050919050565b5f608f826068565b9050919050565b609d816087565b82525050565b5f60208201905060b45f8301846096565b9291505056fea2646970667358221220ec2498beb3abdcab149a8a6114638c42f72d9f828e470bf3b33078ea9018bf6e64736f6c634300081e0033",
					"opcodes": "PUSH1 0xF0 PUSH2 0x4C PUSH1 0xB DUP3 DUP3 DUP3 CODECOPY DUP1 MLOAD PUSH0 BYTE PUSH1 0x73 EQ PUSH1 0x40 JUMPI PUSH32 0x4E487B7100000000000000000000000000000000000000000000000000000000 PUSH0 MSTORE PUSH0 PUSH1 0x4 MSTORE PUSH1 0x24 PUSH0 REVERT JUMPDEST ADDRESS PUSH0 MSTORE PUSH1 0x73 DUP2 MSTORE8 DUP3 DUP2 RETURN INVALID PUSH20 0x0 ADDRESS EQ PUSH1 0x80 PUSH1 0x40 MSTORE PUSH1 0x4 CALLDATASIZE LT PUSH1 0x32 JUMPI PUSH0 CALLDATALOAD PUSH1 0xE0 SHR DUP1 PUSH4 0x31F7D964 EQ PUSH1 0x36 JUMPI JUMPDEST PUSH0 PUSH0 REVERT JUMPDEST PUSH1 0x3C PUSH1 0x50 JUMP JUMPDEST PUSH1 0x40 MLOAD PUSH1 0x47 SWAP2 SWAP1 PUSH1 0xA3 JUMP JUMPDEST PUSH1 0x40 MLOAD DUP1 SWAP2 SUB SWAP1 RETURN JUMPDEST PUSH20 0xEEEEEEEEEEEEEEEEEEEEEEEEEEEEEEEEEEEEEEEE DUP2 JUMP JUMPDEST PUSH0 PUSH20 0xFFFFFFFFFFFFFFFFFFFFFFFFFFFFFFFFFFFFFFFF DUP3 AND SWAP1 POP SWAP2 SWAP1 POP JUMP JUMPDEST PUSH0 PUSH1 0x8F DUP3 PUSH1 0x68 JUMP JUMPDEST SWAP1 POP SWAP2 SWAP1 POP JUMP JUMPDEST PUSH1 0x9D DUP2 PUSH1 0x87 JUMP JUMPDEST DUP3 MSTORE POP POP JUMP JUMPDEST PUSH0 PUSH1 0x20 DUP3 ADD SWAP1 POP PUSH1 0xB4 PUSH0 DUP4 ADD DUP5 PUSH1 0x96 JUMP JUMPDEST SWAP3 SWAP2 POP POP JUMP INVALID LOG2 PUSH5 0x6970667358 0x22 SLT KECCAK256 EOFCREATE 0x24 SWAP9 0xBE 0xB3 0xAB 0xDC 0xAB EQ SWAP11 DUP11 PUSH2 0x1463 DUP13 TIMESTAMP 0xF7 0x2D SWAP16 DUP3 DUP15 SELFBALANCE SIGNEXTEND RETURN 0xB3 ADDRESS PUSH25 0xEA9018BF6E64736F6C634300081E0033000000000000000000 "
				},
				"gasEstimates": {
					"creation": {
						"codeDepositCost": "48000",
						"executionCost": "122",
						"totalCost": "48122"
					},
					"external": {
						"NATIVE_TOKEN()": "335"
					},
					"internal": {
						"safeTransferERC20(address,address,address,uint256)": "infinite",
						"safeTransferNativeToken(address,uint256)": "infinite",
						"safeTransferNativeTokenWithWrapper(address,uint256,address)": "infinite",
						"transferCurrency(address,address,address,uint256)": "infinite",
						"transferCurrencyWithWrapper(address,address,address,uint256,address)": "infinite"
					}
				},
				"methodIdentifiers": {
					"NATIVE_TOKEN()": "31f7d964"
				}
			},
			"storageLayout": {
				"storage": [],
				"types": null
			},
			"userdoc": {
				"kind": "user",
				"methods": {},
				"version": 1
			}
		}
	}
}