{
	"contracts/extension/Permissions.sol": {
		"Permissions": {
			"abi": [
				{
					"inputs": [
						{
							"internalType": "address",
							"name": "account",
							"type": "address"
						},
						{
							"internalType": "bytes32",
							"name": "role",
							"type": "bytes32"
						}
					],
					"name": "PermissionsAlreadyGranted",
					"type": "error"
				},
				{
					"inputs": [
						{
							"internalType": "address",
							"name": "expected",
							"type": "address"
						},
						{
							"internalType": "address",
							"name": "actual",
							"type": "address"
						}
					],
					"name": "PermissionsInvalidPermission",
					"type": "error"
				},
				{
					"inputs": [
						{
							"internalType": "address",
							"name": "account",
							"type": "address"
						},
						{
							"internalType": "bytes32",
							"name": "neededRole",
							"type": "bytes32"
						}
					],
					"name": "PermissionsUnauthorizedAccount",
					"type": "error"
				},
				{
					"anonymous": false,
					"inputs": [
						{
							"indexed": true,
							"internalType": "bytes32",
							"name": "role",
							"type": "bytes32"
						},
						{
							"indexed": true,
							"internalType": "bytes32",
							"name": "previousAdminRole",
							"type": "bytes32"
						},
						{
							"indexed": true,
							"internalType": "bytes32",
							"name": "newAdminRole",
							"type": "bytes32"
						}
					],
					"name": "RoleAdminChanged",
					"type": "event"
				},
				{
					"anonymous": false,
					"inputs": [
						{
							"indexed": true,
							"internalType": "bytes32",
							"name": "role",
							"type": "bytes32"
						},
						{
							"indexed": true,
							"internalType": "address",
							"name": "account",
							"type": "address"
						},
						{
							"indexed": true,
							"internalType": "address",
							"name": "sender",
							"type": "address"
						}
					],
					"name": "RoleGranted",
					"type": "event"
				},
				{
					"anonymous": false,
					"inputs": [
						{
							"indexed": true,
							"internalType": "bytes32",
							"name": "role",
							"type": "bytes32"
						},
						{
							"indexed": true,
							"internalType": "address",
							"name": "account",
							"type": "address"
						},
						{
							"indexed": true,
							"internalType": "address",
							"name": "sender",
							"type": "address"
						}
					],
					"name": "RoleRevoked",
					"type": "event"
				},
				{
					"inputs": [],
					"name": "DEFAULT_ADMIN_ROLE",
					"outputs": [
						{
							"internalType": "bytes32",
							"name": "",
							"type": "bytes32"
						}
					],
					"stateMutability": "view",
					"type": "function"
				},
				{
					"inputs": [
						{
							"internalType": "bytes32",
							"name": "role",
							"type": "bytes32"
						}
					],
					"name": "getRoleAdmin",
					"outputs": [
						{
							"internalType": "bytes32",
							"name": "",
							"type": "bytes32"
						}
					],
					"stateMutability": "view",
					"type": "function"
				},
				{
					"inputs": [
						{
							"internalType": "bytes32",
							"name": "role",
							"type": "bytes32"
						},
						{
							"internalType": "address",
							"name": "account",
							"type": "address"
						}
					],
					"name": "grantRole",
					"outputs": [],
					"stateMutability": "nonpayable",
					"type": "function"
				},
				{
					"inputs": [
						{
							"internalType": "bytes32",
							"name": "role",
							"type": "bytes32"
						},
						{
							"internalType": "address",
							"name": "account",
							"type": "address"
						}
					],
					"name": "hasRole",
					"outputs": [
						{
							"internalType": "bool",
							"name": "",
							"type": "bool"
						}
					],
					"stateMutability": "view",
					"type": "function"
				},
				{
					"inputs": [
						{
							"internalType": "bytes32",
							"name": "role",
							"type": "bytes32"
						},
						{
							"internalType": "address",
							"name": "account",
							"type": "address"
						}
					],
					"name": "hasRoleWithSwitch",
					"outputs": [
						{
							"internalType": "bool",
							"name": "",
							"type": "bool"
						}
					],
					"stateMutability": "view",
					"type": "function"
				},
				{
					"inputs": [
						{
							"internalType": "bytes32",
							"name": "role",
							"type": "bytes32"
						},
						{
							"internalType": "address",
							"name": "account",
							"type": "address"
						}
					],
					"name": "renounceRole",
					"outputs": [],
					"stateMutability": "nonpayable",
					"type": "function"
				},
				{
					"inputs": [
						{
							"internalType": "bytes32",
							"name": "role",
							"type": "bytes32"
						},
						{
							"internalType": "address",
							"name": "account",
							"type": "address"
						}
					],
					"name": "revokeRole",
					"outputs": [],
					"stateMutability": "nonpayable",
					"type": "function"
				}
			],
			"devdoc": {
				"details": "This contracts provides extending-contracts with role-based access control mechanisms",
				"errors": {
					"PermissionsAlreadyGranted(address,bytes32)": [
						{
							"details": "The `account` already is a holder of `role`"
						}
					],
					"PermissionsInvalidPermission(address,address)": [
						{
							"details": "Invalid priviledge to revoke"
						}
					],
					"PermissionsUnauthorizedAccount(address,bytes32)": [
						{
							"details": "The `account` is missing a role."
						}
					]
				},
				"events": {
					"RoleAdminChanged(bytes32,bytes32,bytes32)": {
						"details": "Emitted when `newAdminRole` is set as ``role``'s admin role, replacing `previousAdminRole` `DEFAULT_ADMIN_ROLE` is the starting admin for all roles, despite {RoleAdminChanged} not being emitted signaling this. _Available since v3.1._"
					},
					"RoleGranted(bytes32,address,address)": {
						"details": "Emitted when `account` is granted `role`. `sender` is the account that originated the contract call, an admin role bearer except when using {AccessControl-_setupRole}."
					},
					"RoleRevoked(bytes32,address,address)": {
						"details": "Emitted when `account` is revoked `role`. `sender` is the account that originated the contract call:   - if using `revokeRole`, it is the admin role bearer   - if using `renounceRole`, it is the role bearer (i.e. `account`)"
					}
				},
				"kind": "dev",
				"methods": {
					"getRoleAdmin(bytes32)": {
						"details": "See {grantRole} and {revokeRole}.                  To change a role's admin, use {_setRoleAdmin}.",
						"params": {
							"role": "keccak256 hash of the role. e.g. keccak256(\"TRANSFER_ROLE\")"
						}
					},
					"grantRole(bytes32,address)": {
						"details": "Caller must have admin role for the `role`.                  Emits {RoleGranted Event}.",
						"params": {
							"account": "Address of the account to which the role is being granted.",
							"role": "keccak256 hash of the role. e.g. keccak256(\"TRANSFER_ROLE\")"
						}
					},
					"hasRole(bytes32,address)": {
						"details": "Returns `true` if `account` has been granted `role`.",
						"params": {
							"account": "Address of the account for which the role is being checked.",
							"role": "keccak256 hash of the role. e.g. keccak256(\"TRANSFER_ROLE\")"
						}
					},
					"hasRoleWithSwitch(bytes32,address)": {
						"details": "Returns `true` if `account` has been granted `role`.                  Role restrictions can be swtiched on and off:                      - If address(0) has ROLE, then the ROLE restrictions                        don't apply.                      - If address(0) does not have ROLE, then the ROLE                        restrictions will apply.",
						"params": {
							"account": "Address of the account for which the role is being checked.",
							"role": "keccak256 hash of the role. e.g. keccak256(\"TRANSFER_ROLE\")"
						}
					},
					"renounceRole(bytes32,address)": {
						"details": "Caller must have the `role`, with caller being the same as `account`.                  Emits {RoleRevoked Event}.",
						"params": {
							"account": "Address of the account from which the role is being revoked.",
							"role": "keccak256 hash of the role. e.g. keccak256(\"TRANSFER_ROLE\")"
						}
					},
					"revokeRole(bytes32,address)": {
						"details": "Caller must have admin role for the `role`.                  Emits {RoleRevoked Event}.",
						"params": {
							"account": "Address of the account from which the role is being revoked.",
							"role": "keccak256 hash of the role. e.g. keccak256(\"TRANSFER_ROLE\")"
						}
					}
				},
				"stateVariables": {
					"DEFAULT_ADMIN_ROLE": {
						"details": "Default admin role for all roles. Only accounts with this role can grant/revoke other roles."
					},
					"_getRoleAdmin": {
						"details": "Map from keccak256 hash of a role to role admin. See {getRoleAdmin}."
					},
					"_hasRole": {
						"details": "Map from keccak256 hash of a role => a map from address => whether address has role."
					}
				},
				"title": "Permissions",
				"version": 1
			},
			"evm": {
				"assembly": "    /* \"contracts/extension/Permissions.sol\":287:6465  contract Permissions is IPermissions {... */\n  mstore(0x40, 0x80)\n  callvalue\n  dup1\n  iszero\n  tag_1\n  jumpi\n  revert(0x00, 0x00)\ntag_1:\n  pop\n  dataSize(sub_0)\n  dup1\n  dataOffset(sub_0)\n  0x00\n  codecopy\n  0x00\n  return\nstop\n\nsub_0: assembly {\n        /* \"contracts/extension/Permissions.sol\":287:6465  contract Permissions is IPermissions {... */\n      mstore(0x40, 0x80)\n      callvalue\n      dup1\n      iszero\n      tag_1\n      jumpi\n      revert(0x00, 0x00)\n    tag_1:\n      pop\n      jumpi(tag_2, lt(calldatasize, 0x04))\n      shr(0xe0, calldataload(0x00))\n      dup1\n      0x91d14854\n      gt\n      tag_10\n      jumpi\n      dup1\n      0x91d14854\n      eq\n      tag_6\n      jumpi\n      dup1\n      0xa217fddf\n      eq\n      tag_7\n      jumpi\n      dup1\n      0xa32fa5b3\n      eq\n      tag_8\n      jumpi\n      dup1\n      0xd547741f\n      eq\n      tag_9\n      jumpi\n      jump(tag_2)\n    tag_10:\n      dup1\n      0x248a9ca3\n      eq\n      tag_3\n      jumpi\n      dup1\n      0x2f2ff15d\n      eq\n      tag_4\n      jumpi\n      dup1\n      0x36568abe\n      eq\n      tag_5\n      jumpi\n    tag_2:\n      revert(0x00, 0x00)\n        /* \"contracts/extension/Permissions.sol\":3107:3227  function getRoleAdmin(bytes32 role) external view override returns (bytes32) {... */\n    tag_3:\n      tag_11\n      0x04\n      dup1\n      calldatasize\n      sub\n      dup2\n      add\n      swap1\n      tag_12\n      swap2\n      swap1\n      tag_13\n      jump\t// in\n    tag_12:\n      tag_14\n      jump\t// in\n    tag_11:\n      mload(0x40)\n      tag_15\n      swap2\n      swap1\n      tag_16\n      jump\t// in\n    tag_15:\n      mload(0x40)\n      dup1\n      swap2\n      sub\n      swap1\n      return\n        /* \"contracts/extension/Permissions.sol\":3622:3901  function grantRole(bytes32 role, address account) public virtual override {... */\n    tag_4:\n      tag_17\n      0x04\n      dup1\n      calldatasize\n      sub\n      dup2\n      add\n      swap1\n      tag_18\n      swap2\n      swap1\n      tag_19\n      jump\t// in\n    tag_18:\n      tag_20\n      jump\t// in\n    tag_17:\n      stop\n        /* \"contracts/extension/Permissions.sol\":4841:5078  function renounceRole(bytes32 role, address account) public virtual override {... */\n    tag_5:\n      tag_21\n      0x04\n      dup1\n      calldatasize\n      sub\n      dup2\n      add\n      swap1\n      tag_22\n      swap2\n      swap1\n      tag_19\n      jump\t// in\n    tag_22:\n      tag_23\n      jump\t// in\n    tag_21:\n      stop\n        /* \"contracts/extension/Permissions.sol\":1691:1822  function hasRole(bytes32 role, address account) public view override returns (bool) {... */\n    tag_6:\n      tag_24\n      0x04\n      dup1\n      calldatasize\n      sub\n      dup2\n      add\n      swap1\n      tag_25\n      swap2\n      swap1\n      tag_19\n      jump\t// in\n    tag_25:\n      tag_26\n      jump\t// in\n    tag_24:\n      mload(0x40)\n      tag_27\n      swap2\n      swap1\n      tag_28\n      jump\t// in\n    tag_27:\n      mload(0x40)\n      dup1\n      swap2\n      sub\n      swap1\n      return\n        /* \"contracts/extension/Permissions.sol\":1109:1158  bytes32 public constant DEFAULT_ADMIN_ROLE = 0x00 */\n    tag_7:\n      tag_29\n      tag_30\n      jump\t// in\n    tag_29:\n      mload(0x40)\n      tag_31\n      swap2\n      swap1\n      tag_16\n      jump\t// in\n    tag_31:\n      mload(0x40)\n      dup1\n      swap2\n      sub\n      swap1\n      return\n        /* \"contracts/extension/Permissions.sol\":2573:2784  function hasRoleWithSwitch(bytes32 role, address account) public view returns (bool) {... */\n    tag_8:\n      tag_32\n      0x04\n      dup1\n      calldatasize\n      sub\n      dup2\n      add\n      swap1\n      tag_33\n      swap2\n      swap1\n      tag_19\n      jump\t// in\n    tag_33:\n      tag_34\n      jump\t// in\n    tag_32:\n      mload(0x40)\n      tag_35\n      swap2\n      swap1\n      tag_28\n      jump\t// in\n    tag_35:\n      mload(0x40)\n      dup1\n      swap2\n      sub\n      swap1\n      return\n        /* \"contracts/extension/Permissions.sol\":4272:4443  function revokeRole(bytes32 role, address account) public virtual override {... */\n    tag_9:\n      tag_36\n      0x04\n      dup1\n      calldatasize\n      sub\n      dup2\n      add\n      swap1\n      tag_37\n      swap2\n      swap1\n      tag_19\n      jump\t// in\n    tag_37:\n      tag_38\n      jump\t// in\n    tag_36:\n      stop\n        /* \"contracts/extension/Permissions.sol\":3107:3227  function getRoleAdmin(bytes32 role) external view override returns (bytes32) {... */\n    tag_14:\n        /* \"contracts/extension/Permissions.sol\":3175:3182  bytes32 */\n      0x00\n        /* \"contracts/extension/Permissions.sol\":3201:3214  _getRoleAdmin */\n      0x01\n        /* \"contracts/extension/Permissions.sol\":3201:3220  _getRoleAdmin[role] */\n      0x00\n        /* \"contracts/extension/Permissions.sol\":3215:3219  role */\n      dup4\n        /* \"contracts/extension/Permissions.sol\":3201:3220  _getRoleAdmin[role] */\n      dup2\n      mstore\n      0x20\n      add\n      swap1\n      dup2\n      mstore\n      0x20\n      add\n      0x00\n      keccak256\n      sload\n        /* \"contracts/extension/Permissions.sol\":3194:3220  return _getRoleAdmin[role] */\n      swap1\n      pop\n        /* \"contracts/extension/Permissions.sol\":3107:3227  function getRoleAdmin(bytes32 role) external view override returns (bytes32) {... */\n      swap2\n      swap1\n      pop\n      jump\t// out\n        /* \"contracts/extension/Permissions.sol\":3622:3901  function grantRole(bytes32 role, address account) public virtual override {... */\n    tag_20:\n        /* \"contracts/extension/Permissions.sol\":3706:3749  _checkRole(_getRoleAdmin[role], msg.sender) */\n      tag_41\n        /* \"contracts/extension/Permissions.sol\":3717:3730  _getRoleAdmin */\n      0x01\n        /* \"contracts/extension/Permissions.sol\":3717:3736  _getRoleAdmin[role] */\n      0x00\n        /* \"contracts/extension/Permissions.sol\":3731:3735  role */\n      dup5\n        /* \"contracts/extension/Permissions.sol\":3717:3736  _getRoleAdmin[role] */\n      dup2\n      mstore\n      0x20\n      add\n      swap1\n      dup2\n      mstore\n      0x20\n      add\n      0x00\n      keccak256\n      sload\n        /* \"contracts/extension/Permissions.sol\":3738:3748  msg.sender */\n      caller\n        /* \"contracts/extension/Permissions.sol\":3706:3716  _checkRole */\n      tag_42\n        /* \"contracts/extension/Permissions.sol\":3706:3749  _checkRole(_getRoleAdmin[role], msg.sender) */\n      jump\t// in\n    tag_41:\n        /* \"contracts/extension/Permissions.sol\":3763:3771  _hasRole */\n      0x00\n        /* \"contracts/extension/Permissions.sol\":3763:3777  _hasRole[role] */\n      0x00\n        /* \"contracts/extension/Permissions.sol\":3772:3776  role */\n      dup4\n        /* \"contracts/extension/Permissions.sol\":3763:3777  _hasRole[role] */\n      dup2\n      mstore\n      0x20\n      add\n      swap1\n      dup2\n      mstore\n      0x20\n      add\n      0x00\n      keccak256\n        /* \"contracts/extension/Permissions.sol\":3763:3786  _hasRole[role][account] */\n      0x00\n        /* \"contracts/extension/Permissions.sol\":3778:3785  account */\n      dup3\n        /* \"contracts/extension/Permissions.sol\":3763:3786  _hasRole[role][account] */\n      0xffffffffffffffffffffffffffffffffffffffff\n      and\n      0xffffffffffffffffffffffffffffffffffffffff\n      and\n      dup2\n      mstore\n      0x20\n      add\n      swap1\n      dup2\n      mstore\n      0x20\n      add\n      0x00\n      keccak256\n      0x00\n      swap1\n      sload\n      swap1\n      0x0100\n      exp\n      swap1\n      div\n      0xff\n      and\n        /* \"contracts/extension/Permissions.sol\":3759:3860  if (_hasRole[role][account]) {... */\n      iszero\n      tag_43\n      jumpi\n        /* \"contracts/extension/Permissions.sol\":3835:3842  account */\n      dup1\n        /* \"contracts/extension/Permissions.sol\":3844:3848  role */\n      dup3\n        /* \"contracts/extension/Permissions.sol\":3809:3849  PermissionsAlreadyGranted(account, role) */\n      mload(0x40)\n      0xd49c166a00000000000000000000000000000000000000000000000000000000\n      dup2\n      mstore\n      0x04\n      add\n      tag_44\n      swap3\n      swap2\n      swap1\n      tag_45\n      jump\t// in\n    tag_44:\n      mload(0x40)\n      dup1\n      swap2\n      sub\n      swap1\n      revert\n        /* \"contracts/extension/Permissions.sol\":3759:3860  if (_hasRole[role][account]) {... */\n    tag_43:\n        /* \"contracts/extension/Permissions.sol\":3869:3894  _setupRole(role, account) */\n      tag_46\n        /* \"contracts/extension/Permissions.sol\":3880:3884  role */\n      dup3\n        /* \"contracts/extension/Permissions.sol\":3886:3893  account */\n      dup3\n        /* \"contracts/extension/Permissions.sol\":3869:3879  _setupRole */\n      tag_47\n        /* \"contracts/extension/Permissions.sol\":3869:3894  _setupRole(role, account) */\n      jump\t// in\n    tag_46:\n        /* \"contracts/extension/Permissions.sol\":3622:3901  function grantRole(bytes32 role, address account) public virtual override {... */\n      pop\n      pop\n      jump\t// out\n        /* \"contracts/extension/Permissions.sol\":4841:5078  function renounceRole(bytes32 role, address account) public virtual override {... */\n    tag_23:\n        /* \"contracts/extension/Permissions.sol\":4946:4953  account */\n      dup1\n        /* \"contracts/extension/Permissions.sol\":4932:4953  msg.sender != account */\n      0xffffffffffffffffffffffffffffffffffffffff\n      and\n        /* \"contracts/extension/Permissions.sol\":4932:4942  msg.sender */\n      caller\n        /* \"contracts/extension/Permissions.sol\":4932:4953  msg.sender != account */\n      0xffffffffffffffffffffffffffffffffffffffff\n      and\n      eq\n        /* \"contracts/extension/Permissions.sol\":4928:5036  if (msg.sender != account) {... */\n      tag_49\n      jumpi\n        /* \"contracts/extension/Permissions.sol\":5005:5015  msg.sender */\n      caller\n        /* \"contracts/extension/Permissions.sol\":5017:5024  account */\n      dup2\n        /* \"contracts/extension/Permissions.sol\":4976:5025  PermissionsInvalidPermission(msg.sender, account) */\n      mload(0x40)\n      0x4169c62200000000000000000000000000000000000000000000000000000000\n      dup2\n      mstore\n      0x04\n      add\n      tag_50\n      swap3\n      swap2\n      swap1\n      tag_51\n      jump\t// in\n    tag_50:\n      mload(0x40)\n      dup1\n      swap2\n      sub\n      swap1\n      revert\n        /* \"contracts/extension/Permissions.sol\":4928:5036  if (msg.sender != account) {... */\n    tag_49:\n        /* \"contracts/extension/Permissions.sol\":5045:5071  _revokeRole(role, account) */\n      tag_52\n        /* \"contracts/extension/Permissions.sol\":5057:5061  role */\n      dup3\n        /* \"contracts/extension/Permissions.sol\":5063:5070  account */\n      dup3\n        /* \"contracts/extension/Permissions.sol\":5045:5056  _revokeRole */\n      tag_53\n        /* \"contracts/extension/Permissions.sol\":5045:5071  _revokeRole(role, account) */\n      jump\t// in\n    tag_52:\n        /* \"contracts/extension/Permissions.sol\":4841:5078  function renounceRole(bytes32 role, address account) public virtual override {... */\n      pop\n      pop\n      jump\t// out\n        /* \"contracts/extension/Permissions.sol\":1691:1822  function hasRole(bytes32 role, address account) public view override returns (bool) {... */\n    tag_26:\n        /* \"contracts/extension/Permissions.sol\":1769:1773  bool */\n      0x00\n        /* \"contracts/extension/Permissions.sol\":1792:1800  _hasRole */\n      0x00\n        /* \"contracts/extension/Permissions.sol\":1792:1806  _hasRole[role] */\n      0x00\n        /* \"contracts/extension/Permissions.sol\":1801:1805  role */\n      dup5\n        /* \"contracts/extension/Permissions.sol\":1792:1806  _hasRole[role] */\n      dup2\n      mstore\n      0x20\n      add\n      swap1\n      dup2\n      mstore\n      0x20\n      add\n      0x00\n      keccak256\n        /* \"contracts/extension/Permissions.sol\":1792:1815  _hasRole[role][account] */\n      0x00\n        /* \"contracts/extension/Permissions.sol\":1807:1814  account */\n      dup4\n        /* \"contracts/extension/Permissions.sol\":1792:1815  _hasRole[role][account] */\n      0xffffffffffffffffffffffffffffffffffffffff\n      and\n      0xffffffffffffffffffffffffffffffffffffffff\n      and\n      dup2\n      mstore\n      0x20\n      add\n      swap1\n      dup2\n      mstore\n      0x20\n      add\n      0x00\n      keccak256\n      0x00\n      swap1\n      sload\n      swap1\n      0x0100\n      exp\n      swap1\n      div\n      0xff\n      and\n        /* \"contracts/extension/Permissions.sol\":1785:1815  return _hasRole[role][account] */\n      swap1\n      pop\n        /* \"contracts/extension/Permissions.sol\":1691:1822  function hasRole(bytes32 role, address account) public view override returns (bool) {... */\n      swap3\n      swap2\n      pop\n      pop\n      jump\t// out\n        /* \"contracts/extension/Permissions.sol\":1109:1158  bytes32 public constant DEFAULT_ADMIN_ROLE = 0x00 */\n    tag_30:\n        /* \"contracts/extension/Permissions.sol\":1154:1158  0x00 */\n      0x00\n        /* \"contracts/extension/Permissions.sol\":1109:1158  bytes32 public constant DEFAULT_ADMIN_ROLE = 0x00 */\n      0x00\n      shl\n      dup2\n      jump\t// out\n        /* \"contracts/extension/Permissions.sol\":2573:2784  function hasRoleWithSwitch(bytes32 role, address account) public view returns (bool) {... */\n    tag_34:\n        /* \"contracts/extension/Permissions.sol\":2652:2656  bool */\n      0x00\n        /* \"contracts/extension/Permissions.sol\":2673:2681  _hasRole */\n      0x00\n        /* \"contracts/extension/Permissions.sol\":2673:2687  _hasRole[role] */\n      0x00\n        /* \"contracts/extension/Permissions.sol\":2682:2686  role */\n      dup5\n        /* \"contracts/extension/Permissions.sol\":2673:2687  _hasRole[role] */\n      dup2\n      mstore\n      0x20\n      add\n      swap1\n      dup2\n      mstore\n      0x20\n      add\n      0x00\n      keccak256\n        /* \"contracts/extension/Permissions.sol\":2673:2699  _hasRole[role][address(0)] */\n      0x00\n        /* \"contracts/extension/Permissions.sol\":2696:2697  0 */\n      0x00\n        /* \"contracts/extension/Permissions.sol\":2673:2699  _hasRole[role][address(0)] */\n      0xffffffffffffffffffffffffffffffffffffffff\n      and\n      0xffffffffffffffffffffffffffffffffffffffff\n      and\n      dup2\n      mstore\n      0x20\n      add\n      swap1\n      dup2\n      mstore\n      0x20\n      add\n      0x00\n      keccak256\n      0x00\n      swap1\n      sload\n      swap1\n      0x0100\n      exp\n      swap1\n      div\n      0xff\n      and\n        /* \"contracts/extension/Permissions.sol\":2668:2756  if (!_hasRole[role][address(0)]) {... */\n      tag_56\n      jumpi\n        /* \"contracts/extension/Permissions.sol\":2722:2730  _hasRole */\n      0x00\n        /* \"contracts/extension/Permissions.sol\":2722:2736  _hasRole[role] */\n      0x00\n        /* \"contracts/extension/Permissions.sol\":2731:2735  role */\n      dup5\n        /* \"contracts/extension/Permissions.sol\":2722:2736  _hasRole[role] */\n      dup2\n      mstore\n      0x20\n      add\n      swap1\n      dup2\n      mstore\n      0x20\n      add\n      0x00\n      keccak256\n        /* \"contracts/extension/Permissions.sol\":2722:2745  _hasRole[role][account] */\n      0x00\n        /* \"contracts/extension/Permissions.sol\":2737:2744  account */\n      dup4\n        /* \"contracts/extension/Permissions.sol\":2722:2745  _hasRole[role][account] */\n      0xffffffffffffffffffffffffffffffffffffffff\n      and\n      0xffffffffffffffffffffffffffffffffffffffff\n      and\n      dup2\n      mstore\n      0x20\n      add\n      swap1\n      dup2\n      mstore\n      0x20\n      add\n      0x00\n      keccak256\n      0x00\n      swap1\n      sload\n      swap1\n      0x0100\n      exp\n      swap1\n      div\n      0xff\n      and\n        /* \"contracts/extension/Permissions.sol\":2715:2745  return _hasRole[role][account] */\n      swap1\n      pop\n      jump(tag_55)\n        /* \"contracts/extension/Permissions.sol\":2668:2756  if (!_hasRole[role][address(0)]) {... */\n    tag_56:\n        /* \"contracts/extension/Permissions.sol\":2773:2777  true */\n      0x01\n        /* \"contracts/extension/Permissions.sol\":2766:2777  return true */\n      swap1\n      pop\n        /* \"contracts/extension/Permissions.sol\":2573:2784  function hasRoleWithSwitch(bytes32 role, address account) public view returns (bool) {... */\n    tag_55:\n      swap3\n      swap2\n      pop\n      pop\n      jump\t// out\n        /* \"contracts/extension/Permissions.sol\":4272:4443  function revokeRole(bytes32 role, address account) public virtual override {... */\n    tag_38:\n        /* \"contracts/extension/Permissions.sol\":4357:4400  _checkRole(_getRoleAdmin[role], msg.sender) */\n      tag_58\n        /* \"contracts/extension/Permissions.sol\":4368:4381  _getRoleAdmin */\n      0x01\n        /* \"contracts/extension/Permissions.sol\":4368:4387  _getRoleAdmin[role] */\n      0x00\n        /* \"contracts/extension/Permissions.sol\":4382:4386  role */\n      dup5\n        /* \"contracts/extension/Permissions.sol\":4368:4387  _getRoleAdmin[role] */\n      dup2\n      mstore\n      0x20\n      add\n      swap1\n      dup2\n      mstore\n      0x20\n      add\n      0x00\n      keccak256\n      sload\n        /* \"contracts/extension/Permissions.sol\":4389:4399  msg.sender */\n      caller\n        /* \"contracts/extension/Permissions.sol\":4357:4367  _checkRole */\n      tag_42\n        /* \"contracts/extension/Permissions.sol\":4357:4400  _checkRole(_getRoleAdmin[role], msg.sender) */\n      jump\t// in\n    tag_58:\n        /* \"contracts/extension/Permissions.sol\":4410:4436  _revokeRole(role, account) */\n      tag_59\n        /* \"contracts/extension/Permissions.sol\":4422:4426  role */\n      dup3\n        /* \"contracts/extension/Permissions.sol\":4428:4435  account */\n      dup3\n        /* \"contracts/extension/Permissions.sol\":4410:4421  _revokeRole */\n      tag_53\n        /* \"contracts/extension/Permissions.sol\":4410:4436  _revokeRole(role, account) */\n      jump\t// in\n    tag_59:\n        /* \"contracts/extension/Permissions.sol\":4272:4443  function revokeRole(bytes32 role, address account) public virtual override {... */\n      pop\n      pop\n      jump\t// out\n        /* \"contracts/extension/Permissions.sol\":5952:6148  function _checkRole(bytes32 role, address account) internal view virtual {... */\n    tag_42:\n        /* \"contracts/extension/Permissions.sol\":6040:6048  _hasRole */\n      0x00\n        /* \"contracts/extension/Permissions.sol\":6040:6054  _hasRole[role] */\n      0x00\n        /* \"contracts/extension/Permissions.sol\":6049:6053  role */\n      dup4\n        /* \"contracts/extension/Permissions.sol\":6040:6054  _hasRole[role] */\n      dup2\n      mstore\n      0x20\n      add\n      swap1\n      dup2\n      mstore\n      0x20\n      add\n      0x00\n      keccak256\n        /* \"contracts/extension/Permissions.sol\":6040:6063  _hasRole[role][account] */\n      0x00\n        /* \"contracts/extension/Permissions.sol\":6055:6062  account */\n      dup3\n        /* \"contracts/extension/Permissions.sol\":6040:6063  _hasRole[role][account] */\n      0xffffffffffffffffffffffffffffffffffffffff\n      and\n      0xffffffffffffffffffffffffffffffffffffffff\n      and\n      dup2\n      mstore\n      0x20\n      add\n      swap1\n      dup2\n      mstore\n      0x20\n      add\n      0x00\n      keccak256\n      0x00\n      swap1\n      sload\n      swap1\n      0x0100\n      exp\n      swap1\n      div\n      0xff\n      and\n        /* \"contracts/extension/Permissions.sol\":6035:6142  if (!_hasRole[role][account]) {... */\n      tag_61\n      jumpi\n        /* \"contracts/extension/Permissions.sol\":6117:6124  account */\n      dup1\n        /* \"contracts/extension/Permissions.sol\":6126:6130  role */\n      dup3\n        /* \"contracts/extension/Permissions.sol\":6086:6131  PermissionsUnauthorizedAccount(account, role) */\n      mload(0x40)\n      0x0878b10600000000000000000000000000000000000000000000000000000000\n      dup2\n      mstore\n      0x04\n      add\n      tag_62\n      swap3\n      swap2\n      swap1\n      tag_45\n      jump\t// in\n    tag_62:\n      mload(0x40)\n      dup1\n      swap2\n      sub\n      swap1\n      revert\n        /* \"contracts/extension/Permissions.sol\":6035:6142  if (!_hasRole[role][account]) {... */\n    tag_61:\n        /* \"contracts/extension/Permissions.sol\":5952:6148  function _checkRole(bytes32 role, address account) internal view virtual {... */\n      pop\n      pop\n      jump\t// out\n        /* \"contracts/extension/Permissions.sol\":5431:5599  function _setupRole(bytes32 role, address account) internal virtual {... */\n    tag_47:\n        /* \"contracts/extension/Permissions.sol\":5535:5539  true */\n      0x01\n        /* \"contracts/extension/Permissions.sol\":5509:5517  _hasRole */\n      0x00\n        /* \"contracts/extension/Permissions.sol\":5509:5523  _hasRole[role] */\n      0x00\n        /* \"contracts/extension/Permissions.sol\":5518:5522  role */\n      dup5\n        /* \"contracts/extension/Permissions.sol\":5509:5523  _hasRole[role] */\n      dup2\n      mstore\n      0x20\n      add\n      swap1\n      dup2\n      mstore\n      0x20\n      add\n      0x00\n      keccak256\n        /* \"contracts/extension/Permissions.sol\":5509:5532  _hasRole[role][account] */\n      0x00\n        /* \"contracts/extension/Permissions.sol\":5524:5531  account */\n      dup4\n        /* \"contracts/extension/Permissions.sol\":5509:5532  _hasRole[role][account] */\n      0xffffffffffffffffffffffffffffffffffffffff\n      and\n      0xffffffffffffffffffffffffffffffffffffffff\n      and\n      dup2\n      mstore\n      0x20\n      add\n      swap1\n      dup2\n      mstore\n      0x20\n      add\n      0x00\n      keccak256\n      0x00\n        /* \"contracts/extension/Permissions.sol\":5509:5539  _hasRole[role][account] = true */\n      0x0100\n      exp\n      dup2\n      sload\n      dup2\n      0xff\n      mul\n      not\n      and\n      swap1\n      dup4\n      iszero\n      iszero\n      mul\n      or\n      swap1\n      sstore\n      pop\n        /* \"contracts/extension/Permissions.sol\":5581:5591  msg.sender */\n      caller\n        /* \"contracts/extension/Permissions.sol\":5554:5592  RoleGranted(role, account, msg.sender) */\n      0xffffffffffffffffffffffffffffffffffffffff\n      and\n        /* \"contracts/extension/Permissions.sol\":5572:5579  account */\n      dup2\n        /* \"contracts/extension/Permissions.sol\":5554:5592  RoleGranted(role, account, msg.sender) */\n      0xffffffffffffffffffffffffffffffffffffffff\n      and\n        /* \"contracts/extension/Permissions.sol\":5566:5570  role */\n      dup4\n        /* \"contracts/extension/Permissions.sol\":5554:5592  RoleGranted(role, account, msg.sender) */\n      0x2f8788117e7eff1d82e926ec794901d17c78024a50270940304540a733656f0d\n      mload(0x40)\n      mload(0x40)\n      dup1\n      swap2\n      sub\n      swap1\n      log4\n        /* \"contracts/extension/Permissions.sol\":5431:5599  function _setupRole(bytes32 role, address account) internal virtual {... */\n      pop\n      pop\n      jump\t// out\n        /* \"contracts/extension/Permissions.sol\":5648:5852  function _revokeRole(bytes32 role, address account) internal virtual {... */\n    tag_53:\n        /* \"contracts/extension/Permissions.sol\":5727:5752  _checkRole(role, account) */\n      tag_65\n        /* \"contracts/extension/Permissions.sol\":5738:5742  role */\n      dup3\n        /* \"contracts/extension/Permissions.sol\":5744:5751  account */\n      dup3\n        /* \"contracts/extension/Permissions.sol\":5727:5737  _checkRole */\n      tag_42\n        /* \"contracts/extension/Permissions.sol\":5727:5752  _checkRole(role, account) */\n      jump\t// in\n    tag_65:\n        /* \"contracts/extension/Permissions.sol\":5769:5777  _hasRole */\n      0x00\n        /* \"contracts/extension/Permissions.sol\":5769:5783  _hasRole[role] */\n      0x00\n        /* \"contracts/extension/Permissions.sol\":5778:5782  role */\n      dup4\n        /* \"contracts/extension/Permissions.sol\":5769:5783  _hasRole[role] */\n      dup2\n      mstore\n      0x20\n      add\n      swap1\n      dup2\n      mstore\n      0x20\n      add\n      0x00\n      keccak256\n        /* \"contracts/extension/Permissions.sol\":5769:5792  _hasRole[role][account] */\n      0x00\n        /* \"contracts/extension/Permissions.sol\":5784:5791  account */\n      dup3\n        /* \"contracts/extension/Permissions.sol\":5769:5792  _hasRole[role][account] */\n      0xffffffffffffffffffffffffffffffffffffffff\n      and\n      0xffffffffffffffffffffffffffffffffffffffff\n      and\n      dup2\n      mstore\n      0x20\n      add\n      swap1\n      dup2\n      mstore\n      0x20\n      add\n      0x00\n      keccak256\n      0x00\n        /* \"contracts/extension/Permissions.sol\":5762:5792  delete _hasRole[role][account] */\n      0x0100\n      exp\n      dup2\n      sload\n      swap1\n      0xff\n      mul\n      not\n      and\n      swap1\n      sstore\n        /* \"contracts/extension/Permissions.sol\":5834:5844  msg.sender */\n      caller\n        /* \"contracts/extension/Permissions.sol\":5807:5845  RoleRevoked(role, account, msg.sender) */\n      0xffffffffffffffffffffffffffffffffffffffff\n      and\n        /* \"contracts/extension/Permissions.sol\":5825:5832  account */\n      dup2\n        /* \"contracts/extension/Permissions.sol\":5807:5845  RoleRevoked(role, account, msg.sender) */\n      0xffffffffffffffffffffffffffffffffffffffff\n      and\n        /* \"contracts/extension/Permissions.sol\":5819:5823  role */\n      dup4\n        /* \"contracts/extension/Permissions.sol\":5807:5845  RoleRevoked(role, account, msg.sender) */\n      0xf6391f5c32d9c69d2a47ea670b442974b53935d1edc7fd64eb21e047a839171b\n      mload(0x40)\n      mload(0x40)\n      dup1\n      swap2\n      sub\n      swap1\n      log4\n        /* \"contracts/extension/Permissions.sol\":5648:5852  function _revokeRole(bytes32 role, address account) internal virtual {... */\n      pop\n      pop\n      jump\t// out\n        /* \"#utility.yul\":88:205   */\n    tag_67:\n        /* \"#utility.yul\":197:198   */\n      0x00\n        /* \"#utility.yul\":194:195   */\n      0x00\n        /* \"#utility.yul\":187:199   */\n      revert\n        /* \"#utility.yul\":334:411   */\n    tag_69:\n        /* \"#utility.yul\":371:378   */\n      0x00\n        /* \"#utility.yul\":400:405   */\n      dup2\n        /* \"#utility.yul\":389:405   */\n      swap1\n      pop\n        /* \"#utility.yul\":334:411   */\n      swap2\n      swap1\n      pop\n      jump\t// out\n        /* \"#utility.yul\":417:539   */\n    tag_70:\n        /* \"#utility.yul\":490:514   */\n      tag_86\n        /* \"#utility.yul\":508:513   */\n      dup2\n        /* \"#utility.yul\":490:514   */\n      tag_69\n      jump\t// in\n    tag_86:\n        /* \"#utility.yul\":483:488   */\n      dup2\n        /* \"#utility.yul\":480:515   */\n      eq\n        /* \"#utility.yul\":470:533   */\n      tag_87\n      jumpi\n        /* \"#utility.yul\":529:530   */\n      0x00\n        /* \"#utility.yul\":526:527   */\n      0x00\n        /* \"#utility.yul\":519:531   */\n      revert\n        /* \"#utility.yul\":470:533   */\n    tag_87:\n        /* \"#utility.yul\":417:539   */\n      pop\n      jump\t// out\n        /* \"#utility.yul\":545:684   */\n    tag_71:\n        /* \"#utility.yul\":591:596   */\n      0x00\n        /* \"#utility.yul\":629:635   */\n      dup2\n        /* \"#utility.yul\":616:636   */\n      calldataload\n        /* \"#utility.yul\":607:636   */\n      swap1\n      pop\n        /* \"#utility.yul\":645:678   */\n      tag_89\n        /* \"#utility.yul\":672:677   */\n      dup2\n        /* \"#utility.yul\":645:678   */\n      tag_70\n      jump\t// in\n    tag_89:\n        /* \"#utility.yul\":545:684   */\n      swap3\n      swap2\n      pop\n      pop\n      jump\t// out\n        /* \"#utility.yul\":690:1019   */\n    tag_13:\n        /* \"#utility.yul\":749:755   */\n      0x00\n        /* \"#utility.yul\":798:800   */\n      0x20\n        /* \"#utility.yul\":786:795   */\n      dup3\n        /* \"#utility.yul\":777:784   */\n      dup5\n        /* \"#utility.yul\":773:796   */\n      sub\n        /* \"#utility.yul\":769:801   */\n      slt\n        /* \"#utility.yul\":766:885   */\n      iszero\n      tag_91\n      jumpi\n        /* \"#utility.yul\":804:883   */\n      tag_92\n      tag_67\n      jump\t// in\n    tag_92:\n        /* \"#utility.yul\":766:885   */\n    tag_91:\n        /* \"#utility.yul\":924:925   */\n      0x00\n        /* \"#utility.yul\":949:1002   */\n      tag_93\n        /* \"#utility.yul\":994:1001   */\n      dup5\n        /* \"#utility.yul\":985:991   */\n      dup3\n        /* \"#utility.yul\":974:983   */\n      dup6\n        /* \"#utility.yul\":970:992   */\n      add\n        /* \"#utility.yul\":949:1002   */\n      tag_71\n      jump\t// in\n    tag_93:\n        /* \"#utility.yul\":939:1002   */\n      swap2\n      pop\n        /* \"#utility.yul\":895:1012   */\n      pop\n        /* \"#utility.yul\":690:1019   */\n      swap3\n      swap2\n      pop\n      pop\n      jump\t// out\n        /* \"#utility.yul\":1025:1143   */\n    tag_72:\n        /* \"#utility.yul\":1112:1136   */\n      tag_95\n        /* \"#utility.yul\":1130:1135   */\n      dup2\n        /* \"#utility.yul\":1112:1136   */\n      tag_69\n      jump\t// in\n    tag_95:\n        /* \"#utility.yul\":1107:1110   */\n      dup3\n        /* \"#utility.yul\":1100:1137   */\n      mstore\n        /* \"#utility.yul\":1025:1143   */\n      pop\n      pop\n      jump\t// out\n        /* \"#utility.yul\":1149:1371   */\n    tag_16:\n        /* \"#utility.yul\":1242:1246   */\n      0x00\n        /* \"#utility.yul\":1280:1282   */\n      0x20\n        /* \"#utility.yul\":1269:1278   */\n      dup3\n        /* \"#utility.yul\":1265:1283   */\n      add\n        /* \"#utility.yul\":1257:1283   */\n      swap1\n      pop\n        /* \"#utility.yul\":1293:1364   */\n      tag_97\n        /* \"#utility.yul\":1361:1362   */\n      0x00\n        /* \"#utility.yul\":1350:1359   */\n      dup4\n        /* \"#utility.yul\":1346:1363   */\n      add\n        /* \"#utility.yul\":1337:1343   */\n      dup5\n        /* \"#utility.yul\":1293:1364   */\n      tag_72\n      jump\t// in\n    tag_97:\n        /* \"#utility.yul\":1149:1371   */\n      swap3\n      swap2\n      pop\n      pop\n      jump\t// out\n        /* \"#utility.yul\":1377:1503   */\n    tag_73:\n        /* \"#utility.yul\":1414:1421   */\n      0x00\n        /* \"#utility.yul\":1454:1496   */\n      0xffffffffffffffffffffffffffffffffffffffff\n        /* \"#utility.yul\":1447:1452   */\n      dup3\n        /* \"#utility.yul\":1443:1497   */\n      and\n        /* \"#utility.yul\":1432:1497   */\n      swap1\n      pop\n        /* \"#utility.yul\":1377:1503   */\n      swap2\n      swap1\n      pop\n      jump\t// out\n        /* \"#utility.yul\":1509:1605   */\n    tag_74:\n        /* \"#utility.yul\":1546:1553   */\n      0x00\n        /* \"#utility.yul\":1575:1599   */\n      tag_100\n        /* \"#utility.yul\":1593:1598   */\n      dup3\n        /* \"#utility.yul\":1575:1599   */\n      tag_73\n      jump\t// in\n    tag_100:\n        /* \"#utility.yul\":1564:1599   */\n      swap1\n      pop\n        /* \"#utility.yul\":1509:1605   */\n      swap2\n      swap1\n      pop\n      jump\t// out\n        /* \"#utility.yul\":1611:1733   */\n    tag_75:\n        /* \"#utility.yul\":1684:1708   */\n      tag_102\n        /* \"#utility.yul\":1702:1707   */\n      dup2\n        /* \"#utility.yul\":1684:1708   */\n      tag_74\n      jump\t// in\n    tag_102:\n        /* \"#utility.yul\":1677:1682   */\n      dup2\n        /* \"#utility.yul\":1674:1709   */\n      eq\n        /* \"#utility.yul\":1664:1727   */\n      tag_103\n      jumpi\n        /* \"#utility.yul\":1723:1724   */\n      0x00\n        /* \"#utility.yul\":1720:1721   */\n      0x00\n        /* \"#utility.yul\":1713:1725   */\n      revert\n        /* \"#utility.yul\":1664:1727   */\n    tag_103:\n        /* \"#utility.yul\":1611:1733   */\n      pop\n      jump\t// out\n        /* \"#utility.yul\":1739:1878   */\n    tag_76:\n        /* \"#utility.yul\":1785:1790   */\n      0x00\n        /* \"#utility.yul\":1823:1829   */\n      dup2\n        /* \"#utility.yul\":1810:1830   */\n      calldataload\n        /* \"#utility.yul\":1801:1830   */\n      swap1\n      pop\n        /* \"#utility.yul\":1839:1872   */\n      tag_105\n        /* \"#utility.yul\":1866:1871   */\n      dup2\n        /* \"#utility.yul\":1839:1872   */\n      tag_75\n      jump\t// in\n    tag_105:\n        /* \"#utility.yul\":1739:1878   */\n      swap3\n      swap2\n      pop\n      pop\n      jump\t// out\n        /* \"#utility.yul\":1884:2358   */\n    tag_19:\n        /* \"#utility.yul\":1952:1958   */\n      0x00\n        /* \"#utility.yul\":1960:1966   */\n      0x00\n        /* \"#utility.yul\":2009:2011   */\n      0x40\n        /* \"#utility.yul\":1997:2006   */\n      dup4\n        /* \"#utility.yul\":1988:1995   */\n      dup6\n        /* \"#utility.yul\":1984:2007   */\n      sub\n        /* \"#utility.yul\":1980:2012   */\n      slt\n        /* \"#utility.yul\":1977:2096   */\n      iszero\n      tag_107\n      jumpi\n        /* \"#utility.yul\":2015:2094   */\n      tag_108\n      tag_67\n      jump\t// in\n    tag_108:\n        /* \"#utility.yul\":1977:2096   */\n    tag_107:\n        /* \"#utility.yul\":2135:2136   */\n      0x00\n        /* \"#utility.yul\":2160:2213   */\n      tag_109\n        /* \"#utility.yul\":2205:2212   */\n      dup6\n        /* \"#utility.yul\":2196:2202   */\n      dup3\n        /* \"#utility.yul\":2185:2194   */\n      dup7\n        /* \"#utility.yul\":2181:2203   */\n      add\n        /* \"#utility.yul\":2160:2213   */\n      tag_71\n      jump\t// in\n    tag_109:\n        /* \"#utility.yul\":2150:2213   */\n      swap3\n      pop\n        /* \"#utility.yul\":2106:2223   */\n      pop\n        /* \"#utility.yul\":2262:2264   */\n      0x20\n        /* \"#utility.yul\":2288:2341   */\n      tag_110\n        /* \"#utility.yul\":2333:2340   */\n      dup6\n        /* \"#utility.yul\":2324:2330   */\n      dup3\n        /* \"#utility.yul\":2313:2322   */\n      dup7\n        /* \"#utility.yul\":2309:2331   */\n      add\n        /* \"#utility.yul\":2288:2341   */\n      tag_76\n      jump\t// in\n    tag_110:\n        /* \"#utility.yul\":2278:2341   */\n      swap2\n      pop\n        /* \"#utility.yul\":2233:2351   */\n      pop\n        /* \"#utility.yul\":1884:2358   */\n      swap3\n      pop\n      swap3\n      swap1\n      pop\n      jump\t// out\n        /* \"#utility.yul\":2364:2454   */\n    tag_77:\n        /* \"#utility.yul\":2398:2405   */\n      0x00\n        /* \"#utility.yul\":2441:2446   */\n      dup2\n        /* \"#utility.yul\":2434:2447   */\n      iszero\n        /* \"#utility.yul\":2427:2448   */\n      iszero\n        /* \"#utility.yul\":2416:2448   */\n      swap1\n      pop\n        /* \"#utility.yul\":2364:2454   */\n      swap2\n      swap1\n      pop\n      jump\t// out\n        /* \"#utility.yul\":2460:2569   */\n    tag_78:\n        /* \"#utility.yul\":2541:2562   */\n      tag_113\n        /* \"#utility.yul\":2556:2561   */\n      dup2\n        /* \"#utility.yul\":2541:2562   */\n      tag_77\n      jump\t// in\n    tag_113:\n        /* \"#utility.yul\":2536:2539   */\n      dup3\n        /* \"#utility.yul\":2529:2563   */\n      mstore\n        /* \"#utility.yul\":2460:2569   */\n      pop\n      pop\n      jump\t// out\n        /* \"#utility.yul\":2575:2785   */\n    tag_28:\n        /* \"#utility.yul\":2662:2666   */\n      0x00\n        /* \"#utility.yul\":2700:2702   */\n      0x20\n        /* \"#utility.yul\":2689:2698   */\n      dup3\n        /* \"#utility.yul\":2685:2703   */\n      add\n        /* \"#utility.yul\":2677:2703   */\n      swap1\n      pop\n        /* \"#utility.yul\":2713:2778   */\n      tag_115\n        /* \"#utility.yul\":2775:2776   */\n      0x00\n        /* \"#utility.yul\":2764:2773   */\n      dup4\n        /* \"#utility.yul\":2760:2777   */\n      add\n        /* \"#utility.yul\":2751:2757   */\n      dup5\n        /* \"#utility.yul\":2713:2778   */\n      tag_78\n      jump\t// in\n    tag_115:\n        /* \"#utility.yul\":2575:2785   */\n      swap3\n      swap2\n      pop\n      pop\n      jump\t// out\n        /* \"#utility.yul\":2791:2909   */\n    tag_79:\n        /* \"#utility.yul\":2878:2902   */\n      tag_117\n        /* \"#utility.yul\":2896:2901   */\n      dup2\n        /* \"#utility.yul\":2878:2902   */\n      tag_74\n      jump\t// in\n    tag_117:\n        /* \"#utility.yul\":2873:2876   */\n      dup3\n        /* \"#utility.yul\":2866:2903   */\n      mstore\n        /* \"#utility.yul\":2791:2909   */\n      pop\n      pop\n      jump\t// out\n        /* \"#utility.yul\":2915:3247   */\n    tag_45:\n        /* \"#utility.yul\":3036:3040   */\n      0x00\n        /* \"#utility.yul\":3074:3076   */\n      0x40\n        /* \"#utility.yul\":3063:3072   */\n      dup3\n        /* \"#utility.yul\":3059:3077   */\n      add\n        /* \"#utility.yul\":3051:3077   */\n      swap1\n      pop\n        /* \"#utility.yul\":3087:3158   */\n      tag_119\n        /* \"#utility.yul\":3155:3156   */\n      0x00\n        /* \"#utility.yul\":3144:3153   */\n      dup4\n        /* \"#utility.yul\":3140:3157   */\n      add\n        /* \"#utility.yul\":3131:3137   */\n      dup6\n        /* \"#utility.yul\":3087:3158   */\n      tag_79\n      jump\t// in\n    tag_119:\n        /* \"#utility.yul\":3168:3240   */\n      tag_120\n        /* \"#utility.yul\":3236:3238   */\n      0x20\n        /* \"#utility.yul\":3225:3234   */\n      dup4\n        /* \"#utility.yul\":3221:3239   */\n      add\n        /* \"#utility.yul\":3212:3218   */\n      dup5\n        /* \"#utility.yul\":3168:3240   */\n      tag_72\n      jump\t// in\n    tag_120:\n        /* \"#utility.yul\":2915:3247   */\n      swap4\n      swap3\n      pop\n      pop\n      pop\n      jump\t// out\n        /* \"#utility.yul\":3253:3585   */\n    tag_51:\n        /* \"#utility.yul\":3374:3378   */\n      0x00\n        /* \"#utility.yul\":3412:3414   */\n      0x40\n        /* \"#utility.yul\":3401:3410   */\n      dup3\n        /* \"#utility.yul\":3397:3415   */\n      add\n        /* \"#utility.yul\":3389:3415   */\n      swap1\n      pop\n        /* \"#utility.yul\":3425:3496   */\n      tag_122\n        /* \"#utility.yul\":3493:3494   */\n      0x00\n        /* \"#utility.yul\":3482:3491   */\n      dup4\n        /* \"#utility.yul\":3478:3495   */\n      add\n        /* \"#utility.yul\":3469:3475   */\n      dup6\n        /* \"#utility.yul\":3425:3496   */\n      tag_79\n      jump\t// in\n    tag_122:\n        /* \"#utility.yul\":3506:3578   */\n      tag_123\n        /* \"#utility.yul\":3574:3576   */\n      0x20\n        /* \"#utility.yul\":3563:3572   */\n      dup4\n        /* \"#utility.yul\":3559:3577   */\n      add\n        /* \"#utility.yul\":3550:3556   */\n      dup5\n        /* \"#utility.yul\":3506:3578   */\n      tag_79\n      jump\t// in\n    tag_123:\n        /* \"#utility.yul\":3253:3585   */\n      swap4\n      swap3\n      pop\n      pop\n      pop\n      jump\t// out\n\n    auxdata: 0xa264697066735822122027e65fc0c0eb2792971f95b1c2655e535f3c9598aba45fb1fb1fb75dff4858f664736f6c634300081e0033\n}\n",
				"bytecode": {
					"linkReferences": {},
					"object": "6080604052348015600e575f5ffd5b506108438061001c5f395ff3fe608060405234801561000f575f5ffd5b506004361061007b575f3560e01c806391d148541161005957806391d14854146100e7578063a217fddf14610117578063a32fa5b314610135578063d547741f146101655761007b565b8063248a9ca31461007f5780632f2ff15d146100af57806336568abe146100cb575b5f5ffd5b61009960048036038101906100949190610692565b610181565b6040516100a691906106cc565b60405180910390f35b6100c960048036038101906100c4919061073f565b61019b565b005b6100e560048036038101906100e0919061073f565b610260565b005b61010160048036038101906100fc919061073f565b6102e0565b60405161010e9190610797565b60405180910390f35b61011f610341565b60405161012c91906106cc565b60405180910390f35b61014f600480360381019061014a919061073f565b610347565b60405161015c9190610797565b60405180910390f35b61017f600480360381019061017a919061073f565b61040e565b005b5f60015f8381526020019081526020015f20549050919050565b6101b660015f8481526020019081526020015f205433610437565b5f5f8381526020019081526020015f205f8273ffffffffffffffffffffffffffffffffffffffff1673ffffffffffffffffffffffffffffffffffffffff1681526020019081526020015f205f9054906101000a900460ff16156102525780826040517fd49c166a0000000000000000000000000000000000000000000000000000000081526004016102499291906107bf565b60405180910390fd5b61025c82826104d6565b5050565b8073ffffffffffffffffffffffffffffffffffffffff163373ffffffffffffffffffffffffffffffffffffffff16146102d25733816040517f4169c6220000000000000000000000000000000000000000000000000000000081526004016102c99291906107e6565b60405180910390fd5b6102dc8282610598565b5050565b5f5f5f8481526020019081526020015f205f8373ffffffffffffffffffffffffffffffffffffffff1673ffffffffffffffffffffffffffffffffffffffff1681526020019081526020015f205f9054906101000a900460ff16905092915050565b5f5f1b81565b5f5f5f8481526020019081526020015f205f5f73ffffffffffffffffffffffffffffffffffffffff1673ffffffffffffffffffffffffffffffffffffffff1681526020019081526020015f205f9054906101000a900460ff16610403575f5f8481526020019081526020015f205f8373ffffffffffffffffffffffffffffffffffffffff1673ffffffffffffffffffffffffffffffffffffffff1681526020019081526020015f205f9054906101000a900460ff169050610408565b600190505b92915050565b61042960015f8481526020019081526020015f205433610437565b6104338282610598565b5050565b5f5f8381526020019081526020015f205f8273ffffffffffffffffffffffffffffffffffffffff1673ffffffffffffffffffffffffffffffffffffffff1681526020019081526020015f205f9054906101000a900460ff166104d25780826040517f0878b1060000000000000000000000000000000000000000000000000000000081526004016104c99291906107bf565b60405180910390fd5b5050565b60015f5f8481526020019081526020015f205f8373ffffffffffffffffffffffffffffffffffffffff1673ffffffffffffffffffffffffffffffffffffffff1681526020019081526020015f205f6101000a81548160ff0219169083151502179055503373ffffffffffffffffffffffffffffffffffffffff168173ffffffffffffffffffffffffffffffffffffffff16837f2f8788117e7eff1d82e926ec794901d17c78024a50270940304540a733656f0d60405160405180910390a45050565b6105a28282610437565b5f5f8381526020019081526020015f205f8273ffffffffffffffffffffffffffffffffffffffff1673ffffffffffffffffffffffffffffffffffffffff1681526020019081526020015f205f6101000a81549060ff02191690553373ffffffffffffffffffffffffffffffffffffffff168173ffffffffffffffffffffffffffffffffffffffff16837ff6391f5c32d9c69d2a47ea670b442974b53935d1edc7fd64eb21e047a839171b60405160405180910390a45050565b5f5ffd5b5f819050919050565b6106718161065f565b811461067b575f5ffd5b50565b5f8135905061068c81610668565b92915050565b5f602082840312156106a7576106a661065b565b5b5f6106b48482850161067e565b91505092915050565b6106c68161065f565b82525050565b5f6020820190506106df5f8301846106bd565b92915050565b5f73ffffffffffffffffffffffffffffffffffffffff82169050919050565b5f61070e826106e5565b9050919050565b61071e81610704565b8114610728575f5ffd5b50565b5f8135905061073981610715565b92915050565b5f5f604083850312156107555761075461065b565b5b5f6107628582860161067e565b92505060206107738582860161072b565b9150509250929050565b5f8115159050919050565b6107918161077d565b82525050565b5f6020820190506107aa5f830184610788565b92915050565b6107b981610704565b82525050565b5f6040820190506107d25f8301856107b0565b6107df60208301846106bd565b9392505050565b5f6040820190506107f95f8301856107b0565b61080660208301846107b0565b939250505056fea264697066735822122027e65fc0c0eb2792971f95b1c2655e535f3c9598aba45fb1fb1fb75dff4858f664736f6c634300081e0033",
					"opcodes": "PUSH1 0x80 PUSH1 0x40 MSTORE CALLVALUE DUP1 ISZERO PUSH1 0xE JUMPI PUSH0 PUSH0 REVERT JUMPDEST POP PUSH2 0x843 DUP1 PUSH2 0x1C PUSH0 CODECOPY PUSH0 RETURN INVALID PUSH1 0x80 PUSH1 0x40 MSTORE CALLVALUE DUP1 ISZERO PUSH2 0xF JUMPI PUSH0 PUSH0 REVERT JUMPDEST POP PUSH1 0x4 CALLDATASIZE LT PUSH2 0x7B JUMPI PUSH0 CALLDATALOAD PUSH1 0xE0 SHR DUP1 PUSH4 0x91D14854 GT PUSH2 0x59 JUMPI DUP1 PUSH4 0x91D14854 EQ PUSH2 0xE7 JUMPI DUP1 PUSH4 0xA217FDDF EQ PUSH2 0x117 JUMPI DUP1 PUSH4 0xA32FA5B3 EQ PUSH2 0x135 JUMPI DUP1 PUSH4 0xD547741F EQ PUSH2 0x165 JUMPI PUSH2 0x7B JUMP JUMPDEST DUP1 PUSH4 0x248A9CA3 EQ PUSH2 0x7F JUMPI DUP1 PUSH4 0x2F2FF15D EQ PUSH2 0xAF JUMPI DUP1 PUSH4 0x36568ABE EQ PUSH2 0xCB JUMPI JUMPDEST PUSH0 PUSH0 REVERT JUMPDEST PUSH2 0x99 PUSH1 0x4 DUP1 CALLDATASIZE SUB DUP2 ADD SWAP1 PUSH2 0x94 SWAP2 SWAP1 PUSH2 0x692 JUMP JUMPDEST PUSH2 0x181 JUMP JUMPDEST PUSH1 0x40 MLOAD PUSH2 0xA6 SWAP2 SWAP1 PUSH2 0x6CC JUMP JUMPDEST PUSH1 0x40 MLOAD DUP1 SWAP2 SUB SWAP1 RETURN JUMPDEST PUSH2 0xC9 PUSH1 0x4 DUP1 CALLDATASIZE SUB DUP2 ADD SWAP1 PUSH2 0xC4 SWAP2 SWAP1 PUSH2 0x73F JUMP JUMPDEST PUSH2 0x19B JUMP JUMPDEST STOP JUMPDEST PUSH2 0xE5 PUSH1 0x4 DUP1 CALLDATASIZE SUB DUP2 ADD SWAP1 PUSH2 0xE0 SWAP2 SWAP1 PUSH2 0x73F JUMP JUMPDEST PUSH2 0x260 JUMP JUMPDEST STOP JUMPDEST PUSH2 0x101 PUSH1 0x4 DUP1 CALLDATASIZE SUB DUP2 ADD SWAP1 PUSH2 0xFC SWAP2 SWAP1 PUSH2 0x73F JUMP JUMPDEST PUSH2 0x2E0 JUMP JUMPDEST PUSH1 0x40 MLOAD PUSH2 0x10E SWAP2 SWAP1 PUSH2 0x797 JUMP JUMPDEST PUSH1 0x40 MLOAD DUP1 SWAP2 SUB SWAP1 RETURN JUMPDEST PUSH2 0x11F PUSH2 0x341 JUMP JUMPDEST PUSH1 0x40 MLOAD PUSH2 0x12C SWAP2 SWAP1 PUSH2 0x6CC JUMP JUMPDEST PUSH1 0x40 MLOAD DUP1 SWAP2 SUB SWAP1 RETURN JUMPDEST PUSH2 0x14F PUSH1 0x4 DUP1 CALLDATASIZE SUB DUP2 ADD SWAP1 PUSH2 0x14A SWAP2 SWAP1 PUSH2 0x73F JUMP JUMPDEST PUSH2 0x347 JUMP JUMPDEST PUSH1 0x40 MLOAD PUSH2 0x15C SWAP2 SWAP1 PUSH2 0x797 JUMP JUMPDEST PUSH1 0x40 MLOAD DUP1 SWAP2 SUB SWAP1 RETURN JUMPDEST PUSH2 0x17F PUSH1 0x4 DUP1 CALLDATASIZE SUB DUP2 ADD SWAP1 PUSH2 0x17A SWAP2 SWAP1 PUSH2 0x73F JUMP JUMPDEST PUSH2 0x40E JUMP JUMPDEST STOP JUMPDEST PUSH0 PUSH1 0x1 PUSH0 DUP4 DUP2 MSTORE PUSH1 0x20 ADD SWAP1 DUP2 MSTORE PUSH1 0x20 ADD PUSH0 KECCAK256 SLOAD SWAP1 POP SWAP2 SWAP1 POP JUMP JUMPDEST PUSH2 0x1B6 PUSH1 0x1 PUSH0 DUP5 DUP2 MSTORE PUSH1 0x20 ADD SWAP1 DUP2 MSTORE PUSH1 0x20 ADD PUSH0 KECCAK256 SLOAD CALLER PUSH2 0x437 JUMP JUMPDEST PUSH0 PUSH0 DUP4 DUP2 MSTORE PUSH1 0x20 ADD SWAP1 DUP2 MSTORE PUSH1 0x20 ADD PUSH0 KECCAK256 PUSH0 DUP3 PUSH20 0xFFFFFFFFFFFFFFFFFFFFFFFFFFFFFFFFFFFFFFFF AND PUSH20 0xFFFFFFFFFFFFFFFFFFFFFFFFFFFFFFFFFFFFFFFF AND DUP2 MSTORE PUSH1 0x20 ADD SWAP1 DUP2 MSTORE PUSH1 0x20 ADD PUSH0 KECCAK256 PUSH0 SWAP1 SLOAD SWAP1 PUSH2 0x100 EXP SWAP1 DIV PUSH1 0xFF AND ISZERO PUSH2 0x252 JUMPI DUP1 DUP3 PUSH1 0x40 MLOAD PUSH32 0xD49C166A00000000000000000000000000000000000000000000000000000000 DUP2 MSTORE PUSH1 0x4 ADD PUSH2 0x249 SWAP3 SWAP2 SWAP1 PUSH2 0x7BF JUMP JUMPDEST PUSH1 0x40 MLOAD DUP1 SWAP2 SUB SWAP1 REVERT JUMPDEST PUSH2 0x25C DUP3 DUP3 PUSH2 0x4D6 JUMP JUMPDEST POP POP JUMP JUMPDEST DUP1 PUSH20 0xFFFFFFFFFFFFFFFFFFFFFFFFFFFFFFFFFFFFFFFF AND CALLER PUSH20 0xFFFFFFFFFFFFFFFFFFFFFFFFFFFFFFFFFFFFFFFF AND EQ PUSH2 0x2D2 JUMPI CALLER DUP2 PUSH1 0x40 MLOAD PUSH32 0x4169C62200000000000000000000000000000000000000000000000000000000 DUP2 MSTORE PUSH1 0x4 ADD PUSH2 0x2C9 SWAP3 SWAP2 SWAP1 PUSH2 0x7E6 JUMP JUMPDEST PUSH1 0x40 MLOAD DUP1 SWAP2 SUB SWAP1 REVERT JUMPDEST PUSH2 0x2DC DUP3 DUP3 PUSH2 0x598 JUMP JUMPDEST POP POP JUMP JUMPDEST PUSH0 PUSH0 PUSH0 DUP5 DUP2 MSTORE PUSH1 0x20 ADD SWAP1 DUP2 MSTORE PUSH1 0x20 ADD PUSH0 KECCAK256 PUSH0 DUP4 PUSH20 0xFFFFFFFFFFFFFFFFFFFFFFFFFFFFFFFFFFFFFFFF AND PUSH20 0xFFFFFFFFFFFFFFFFFFFFFFFFFFFFFFFFFFFFFFFF AND DUP2 MSTORE PUSH1 0x20 ADD SWAP1 DUP2 MSTORE PUSH1 0x20 ADD PUSH0 KECCAK256 PUSH0 SWAP1 SLOAD SWAP1 PUSH2 0x100 EXP SWAP1 DIV PUSH1 0xFF AND SWAP1 POP SWAP3 SWAP2 POP POP JUMP JUMPDEST PUSH0 PUSH0 SHL DUP2 JUMP JUMPDEST PUSH0 PUSH0 PUSH0 DUP5 DUP2 MSTORE PUSH1 0x20 ADD SWAP1 DUP2 MSTORE PUSH1 0x20 ADD PUSH0 KECCAK256 PUSH0 PUSH0 PUSH20 0xFFFFFFFFFFFFFFFFFFFFFFFFFFFFFFFFFFFFFFFF AND PUSH20 0xFFFFFFFFFFFFFFFFFFFFFFFFFFFFFFFFFFFFFFFF AND DUP2 MSTORE PUSH1 0x20 ADD SWAP1 DUP2 MSTORE PUSH1 0x20 ADD PUSH0 KECCAK256 PUSH0 SWAP1 SLOAD SWAP1 PUSH2 0x100 EXP SWAP1 DIV PUSH1 0xFF AND PUSH2 0x403 JUMPI PUSH0 PUSH0 DUP5 DUP2 MSTORE PUSH1 0x20 ADD SWAP1 DUP2 MSTORE PUSH1 0x20 ADD PUSH0 KECCAK256 PUSH0 DUP4 PUSH20 0xFFFFFFFFFFFFFFFFFFFFFFFFFFFFFFFFFFFFFFFF AND PUSH20 0xFFFFFFFFFFFFFFFFFFFFFFFFFFFFFFFFFFFFFFFF AND DUP2 MSTORE PUSH1 0x20 ADD SWAP1 DUP2 MSTORE PUSH1 0x20 ADD PUSH0 KECCAK256 PUSH0 SWAP1 SLOAD SWAP1 PUSH2 0x100 EXP SWAP1 DIV PUSH1 0xFF AND SWAP1 POP PUSH2 0x408 JUMP JUMPDEST PUSH1 0x1 SWAP1 POP JUMPDEST SWAP3 SWAP2 POP POP JUMP JUMPDEST PUSH2 0x429 PUSH1 0x1 PUSH0 DUP5 DUP2 MSTORE PUSH1 0x20 ADD SWAP1 DUP2 MSTORE PUSH1 0x20 ADD PUSH0 KECCAK256 SLOAD CALLER PUSH2 0x437 JUMP JUMPDEST PUSH2 0x433 DUP3 DUP3 PUSH2 0x598 JUMP JUMPDEST POP POP JUMP JUMPDEST PUSH0 PUSH0 DUP4 DUP2 MSTORE PUSH1 0x20 ADD SWAP1 DUP2 MSTORE PUSH1 0x20 ADD PUSH0 KECCAK256 PUSH0 DUP3 PUSH20 0xFFFFFFFFFFFFFFFFFFFFFFFFFFFFFFFFFFFFFFFF AND PUSH20 0xFFFFFFFFFFFFFFFFFFFFFFFFFFFFFFFFFFFFFFFF AND DUP2 MSTORE PUSH1 0x20 ADD SWAP1 DUP2 MSTORE PUSH1 0x20 ADD PUSH0 KECCAK256 PUSH0 SWAP1 SLOAD SWAP1 PUSH2 0x100 EXP SWAP1 DIV PUSH1 0xFF AND PUSH2 0x4D2 JUMPI DUP1 DUP3 PUSH1 0x40 MLOAD PUSH32 0x878B10600000000000000000000000000000000000000000000000000000000 DUP2 MSTORE PUSH1 0x4 ADD PUSH2 0x4C9 SWAP3 SWAP2 SWAP1 PUSH2 0x7BF JUMP JUMPDEST PUSH1 0x40 MLOAD DUP1 SWAP2 SUB SWAP1 REVERT JUMPDEST POP POP JUMP JUMPDEST PUSH1 0x1 PUSH0 PUSH0 DUP5 DUP2 MSTORE PUSH1 0x20 ADD SWAP1 DUP2 MSTORE PUSH1 0x20 ADD PUSH0 KECCAK256 PUSH0 DUP4 PUSH20 0xFFFFFFFFFFFFFFFFFFFFFFFFFFFFFFFFFFFFFFFF AND PUSH20 0xFFFFFFFFFFFFFFFFFFFFFFFFFFFFFFFFFFFFFFFF AND DUP2 MSTORE PUSH1 0x20 ADD SWAP1 DUP2 MSTORE PUSH1 0x20 ADD PUSH0 KECCAK256 PUSH0 PUSH2 0x100 EXP DUP2 SLOAD DUP2 PUSH1 0xFF MUL NOT AND SWAP1 DUP4 ISZERO ISZERO MUL OR SWAP1 SSTORE POP CALLER PUSH20 0xFFFFFFFFFFFFFFFFFFFFFFFFFFFFFFFFFFFFFFFF AND DUP2 PUSH20 0xFFFFFFFFFFFFFFFFFFFFFFFFFFFFFFFFFFFFFFFF AND DUP4 PUSH32 0x2F8788117E7EFF1D82E926EC794901D17C78024A50270940304540A733656F0D PUSH1 0x40 MLOAD PUSH1 0x40 MLOAD DUP1 SWAP2 SUB SWAP1 LOG4 POP POP JUMP JUMPDEST PUSH2 0x5A2 DUP3 DUP3 PUSH2 0x437 JUMP JUMPDEST PUSH0 PUSH0 DUP4 DUP2 MSTORE PUSH1 0x20 ADD SWAP1 DUP2 MSTORE PUSH1 0x20 ADD PUSH0 KECCAK256 PUSH0 DUP3 PUSH20 0xFFFFFFFFFFFFFFFFFFFFFFFFFFFFFFFFFFFFFFFF AND PUSH20 0xFFFFFFFFFFFFFFFFFFFFFFFFFFFFFFFFFFFFFFFF AND DUP2 MSTORE PUSH1 0x20 ADD SWAP1 DUP2 MSTORE PUSH1 0x20 ADD PUSH0 KECCAK256 PUSH0 PUSH2 0x100 EXP DUP2 SLOAD SWAP1 PUSH1 0xFF MUL NOT AND SWAP1 SSTORE CALLER PUSH20 0xFFFFFFFFFFFFFFFFFFFFFFFFFFFFFFFFFFFFFFFF AND DUP2 PUSH20 0xFFFFFFFFFFFFFFFFFFFFFFFFFFFFFFFFFFFFFFFF AND DUP4 PUSH32 0xF6391F5C32D9C69D2A47EA670B442974B53935D1EDC7FD64EB21E047A839171B PUSH1 0x40 MLOAD PUSH1 0x40 MLOAD DUP1 SWAP2 SUB SWAP1 LOG4 POP POP JUMP JUMPDEST PUSH0 PUSH0 REVERT JUMPDEST PUSH0 DUP2 SWAP1 POP SWAP2 SWAP1 POP JUMP JUMPDEST PUSH2 0x671 DUP2 PUSH2 0x65F JUMP JUMPDEST DUP2 EQ PUSH2 0x67B JUMPI PUSH0 PUSH0 REVERT JUMPDEST POP JUMP JUMPDEST PUSH0 DUP2 CALLDATALOAD SWAP1 POP PUSH2 0x68C DUP2 PUSH2 0x668 JUMP JUMPDEST SWAP3 SWAP2 POP POP JUMP JUMPDEST PUSH0 PUSH1 0x20 DUP3 DUP5 SUB SLT ISZERO PUSH2 0x6A7 JUMPI PUSH2 0x6A6 PUSH2 0x65B JUMP JUMPDEST JUMPDEST PUSH0 PUSH2 0x6B4 DUP5 DUP3 DUP6 ADD PUSH2 0x67E JUMP JUMPDEST SWAP2 POP POP SWAP3 SWAP2 POP POP JUMP JUMPDEST PUSH2 0x6C6 DUP2 PUSH2 0x65F JUMP JUMPDEST DUP3 MSTORE POP POP JUMP JUMPDEST PUSH0 PUSH1 0x20 DUP3 ADD SWAP1 POP PUSH2 0x6DF PUSH0 DUP4 ADD DUP5 PUSH2 0x6BD JUMP JUMPDEST SWAP3 SWAP2 POP POP JUMP JUMPDEST PUSH0 PUSH20 0xFFFFFFFFFFFFFFFFFFFFFFFFFFFFFFFFFFFFFFFF DUP3 AND SWAP1 POP SWAP2 SWAP1 POP JUMP JUMPDEST PUSH0 PUSH2 0x70E DUP3 PUSH2 0x6E5 JUMP JUMPDEST SWAP1 POP SWAP2 SWAP1 POP JUMP JUMPDEST PUSH2 0x71E DUP2 PUSH2 0x704 JUMP JUMPDEST DUP2 EQ PUSH2 0x728 JUMPI PUSH0 PUSH0 REVERT JUMPDEST POP JUMP JUMPDEST PUSH0 DUP2 CALLDATALOAD SWAP1 POP PUSH2 0x739 DUP2 PUSH2 0x715 JUMP JUMPDEST SWAP3 SWAP2 POP POP JUMP JUMPDEST PUSH0 PUSH0 PUSH1 0x40 DUP4 DUP6 SUB SLT ISZERO PUSH2 0x755 JUMPI PUSH2 0x754 PUSH2 0x65B JUMP JUMPDEST JUMPDEST PUSH0 PUSH2 0x762 DUP6 DUP3 DUP7 ADD PUSH2 0x67E JUMP JUMPDEST SWAP3 POP POP PUSH1 0x20 PUSH2 0x773 DUP6 DUP3 DUP7 ADD PUSH2 0x72B JUMP JUMPDEST SWAP2 POP POP SWAP3 POP SWAP3 SWAP1 POP JUMP JUMPDEST PUSH0 DUP2 ISZERO ISZERO SWAP1 POP SWAP2 SWAP1 POP JUMP JUMPDEST PUSH2 0x791 DUP2 PUSH2 0x77D JUMP JUMPDEST DUP3 MSTORE POP POP JUMP JUMPDEST PUSH0 PUSH1 0x20 DUP3 ADD SWAP1 POP PUSH2 0x7AA PUSH0 DUP4 ADD DUP5 PUSH2 0x788 JUMP JUMPDEST SWAP3 SWAP2 POP POP JUMP JUMPDEST PUSH2 0x7B9 DUP2 PUSH2 0x704 JUMP JUMPDEST DUP3 MSTORE POP POP JUMP JUMPDEST PUSH0 PUSH1 0x40 DUP3 ADD SWAP1 POP PUSH2 0x7D2 PUSH0 DUP4 ADD DUP6 PUSH2 0x7B0 JUMP JUMPDEST PUSH2 0x7DF PUSH1 0x20 DUP4 ADD DUP5 PUSH2 0x6BD JUMP JUMPDEST SWAP4 SWAP3 POP POP POP JUMP JUMPDEST PUSH0 PUSH1 0x40 DUP3 ADD SWAP1 POP PUSH2 0x7F9 PUSH0 DUP4 ADD DUP6 PUSH2 0x7B0 JUMP JUMPDEST PUSH2 0x806 PUSH1 0x20 DUP4 ADD DUP5 PUSH2 0x7B0 JUMP JUMPDEST SWAP4 SWAP3 POP POP POP JUMP INVALID LOG2 PUSH5 0x6970667358 0x22 SLT KECCAK256 0x27 DUPN 0x5F 0xC0 0xC0 0xEB 0x27 SWAP3 SWAP8 0x1F SWAP6 0xB1 0xC2 PUSH6 0x5E535F3C9598 0xAB LOG4 PUSH0 0xB1 EXTSTATICCALL 0x1F 0xB7 TSTORE SELFDESTRUCT BASEFEE PC 0xF6 PUSH5 0x736F6C6343 STOP ADDMOD 0x1E STOP CALLER "
				},
				"gasEstimates": {
					"creation": {
						"codeDepositCost": "423000",
						"executionCost": "459",
						"totalCost": "423459"
					},
					"external": {
						"DEFAULT_ADMIN_ROLE()": "351",
						"getRoleAdmin(bytes32)": "infinite",
						"grantRole(bytes32,address)": "infinite",
						"hasRole(bytes32,address)": "3115",
						"hasRoleWithSwitch(bytes32,address)": "5484",
						"renounceRole(bytes32,address)": "infinite",
						"revokeRole(bytes32,address)": "infinite"
					},
					"internal": {
						"_checkRole(bytes32,address)": "infinite",
						"_checkRoleWithSwitch(bytes32,address)": "infinite",
						"_revokeRole(bytes32,address)": "infinite",
						"_setRoleAdmin(bytes32,bytes32)": "infinite",
						"_setupRole(bytes32,address)": "26373"
					}
				},
				"methodIdentifiers": {
					"DEFAULT_ADMIN_ROLE()": "a217fddf",
					"getRoleAdmin(bytes32)": "248a9ca3",
					"grantRole(bytes32,address)": "2f2ff15d",
					"hasRole(bytes32,address)": "91d14854",
					"hasRoleWithSwitch(bytes32,address)": "a32fa5b3",
					"renounceRole(bytes32,address)": "36568abe",
					"revokeRole(bytes32,address)": "d547741f"
				}
			},
			"storageLayout": {
				"storage": [
					{
						"astId": 34,
						"contract": "contracts/extension/Permissions.sol:Permissions",
						"label": "_hasRole",
						"offset": 0,
						"slot": "0",
						"type": "t_mapping(t_bytes32,t_mapping(t_address,t_bool))"
					},
					{
						"astId": 39,
						"contract": "contracts/extension/Permissions.sol:Permissions",
						"label": "_getRoleAdmin",
						"offset": 0,
						"slot": "1",
						"type": "t_mapping(t_bytes32,t_bytes32)"
					}
				],
				"types": {
					"t_address": {
						"encoding": "inplace",
						"label": "address",
						"numberOfBytes": "20"
					},
					"t_bool": {
						"encoding": "inplace",
						"label": "bool",
						"numberOfBytes": "1"
					},
					"t_bytes32": {
						"encoding": "inplace",
						"label": "bytes32",
						"numberOfBytes": "32"
					},
					"t_mapping(t_address,t_bool)": {
						"encoding": "mapping",
						"key": "t_address",
						"label": "mapping(address => bool)",
						"numberOfBytes": "32",
						"value": "t_bool"
					},
					"t_mapping(t_bytes32,t_bytes32)": {
						"encoding": "mapping",
						"key": "t_bytes32",
						"label": "mapping(bytes32 => bytes32)",
						"numberOfBytes": "32",
						"value": "t_bytes32"
					},
					"t_mapping(t_bytes32,t_mapping(t_address,t_bool))": {
						"encoding": "mapping",
						"key": "t_bytes32",
						"label": "mapping(bytes32 => mapping(address => bool))",
						"numberOfBytes": "32",
						"value": "t_mapping(t_address,t_bool)"
					}
				}
			},
			"userdoc": {
				"kind": "user",
				"methods": {
					"getRoleAdmin(bytes32)": {
						"notice": "Returns the admin role that controls the specified role."
					},
					"grantRole(bytes32,address)": {
						"notice": "Grants a role to an account, if not previously granted."
					},
					"hasRole(bytes32,address)": {
						"notice": "Checks whether an account has a particular role."
					},
					"hasRoleWithSwitch(bytes32,address)": {
						"notice": "Checks whether an account has a particular role;                  role restrictions can be swtiched on and off."
					},
					"renounceRole(bytes32,address)": {
						"notice": "Revokes role from the account."
					},
					"revokeRole(bytes32,address)": {
						"notice": "Revokes role from an account."
					}
				},
				"version": 1
			}
		}
	}
}