{
	"contracts/extension/PermissionsEnumerable.sol": {
		"PermissionsEnumerable": {
			"abi": [
				{
					"inputs": [
						{
							"internalType": "address",
							"name": "account",
							"type": "address"
						},
						{
							"internalType": "bytes32",
							"name": "role",
							"type": "bytes32"
						}
					],
					"name": "PermissionsAlreadyGranted",
					"type": "error"
				},
				{
					"inputs": [
						{
							"internalType": "address",
							"name": "expected",
							"type": "address"
						},
						{
							"internalType": "address",
							"name": "actual",
							"type": "address"
						}
					],
					"name": "PermissionsInvalidPermission",
					"type": "error"
				},
				{
					"inputs": [
						{
							"internalType": "address",
							"name": "account",
							"type": "address"
						},
						{
							"internalType": "bytes32",
							"name": "neededRole",
							"type": "bytes32"
						}
					],
					"name": "PermissionsUnauthorizedAccount",
					"type": "error"
				},
				{
					"anonymous": false,
					"inputs": [
						{
							"indexed": true,
							"internalType": "bytes32",
							"name": "role",
							"type": "bytes32"
						},
						{
							"indexed": true,
							"internalType": "bytes32",
							"name": "previousAdminRole",
							"type": "bytes32"
						},
						{
							"indexed": true,
							"internalType": "bytes32",
							"name": "newAdminRole",
							"type": "bytes32"
						}
					],
					"name": "RoleAdminChanged",
					"type": "event"
				},
				{
					"anonymous": false,
					"inputs": [
						{
							"indexed": true,
							"internalType": "bytes32",
							"name": "role",
							"type": "bytes32"
						},
						{
							"indexed": true,
							"internalType": "address",
							"name": "account",
							"type": "address"
						},
						{
							"indexed": true,
							"internalType": "address",
							"name": "sender",
							"type": "address"
						}
					],
					"name": "RoleGranted",
					"type": "event"
				},
				{
					"anonymous": false,
					"inputs": [
						{
							"indexed": true,
							"internalType": "bytes32",
							"name": "role",
							"type": "bytes32"
						},
						{
							"indexed": true,
							"internalType": "address",
							"name": "account",
							"type": "address"
						},
						{
							"indexed": true,
							"internalType": "address",
							"name": "sender",
							"type": "address"
						}
					],
					"name": "RoleRevoked",
					"type": "event"
				},
				{
					"inputs": [],
					"name": "DEFAULT_ADMIN_ROLE",
					"outputs": [
						{
							"internalType": "bytes32",
							"name": "",
							"type": "bytes32"
						}
					],
					"stateMutability": "view",
					"type": "function"
				},
				{
					"inputs": [
						{
							"internalType": "bytes32",
							"name": "role",
							"type": "bytes32"
						}
					],
					"name": "getRoleAdmin",
					"outputs": [
						{
							"internalType": "bytes32",
							"name": "",
							"type": "bytes32"
						}
					],
					"stateMutability": "view",
					"type": "function"
				},
				{
					"inputs": [
						{
							"internalType": "bytes32",
							"name": "role",
							"type": "bytes32"
						},
						{
							"internalType": "uint256",
							"name": "index",
							"type": "uint256"
						}
					],
					"name": "getRoleMember",
					"outputs": [
						{
							"internalType": "address",
							"name": "member",
							"type": "address"
						}
					],
					"stateMutability": "view",
					"type": "function"
				},
				{
					"inputs": [
						{
							"internalType": "bytes32",
							"name": "role",
							"type": "bytes32"
						}
					],
					"name": "getRoleMemberCount",
					"outputs": [
						{
							"internalType": "uint256",
							"name": "count",
							"type": "uint256"
						}
					],
					"stateMutability": "view",
					"type": "function"
				},
				{
					"inputs": [
						{
							"internalType": "bytes32",
							"name": "role",
							"type": "bytes32"
						},
						{
							"internalType": "address",
							"name": "account",
							"type": "address"
						}
					],
					"name": "grantRole",
					"outputs": [],
					"stateMutability": "nonpayable",
					"type": "function"
				},
				{
					"inputs": [
						{
							"internalType": "bytes32",
							"name": "role",
							"type": "bytes32"
						},
						{
							"internalType": "address",
							"name": "account",
							"type": "address"
						}
					],
					"name": "hasRole",
					"outputs": [
						{
							"internalType": "bool",
							"name": "",
							"type": "bool"
						}
					],
					"stateMutability": "view",
					"type": "function"
				},
				{
					"inputs": [
						{
							"internalType": "bytes32",
							"name": "role",
							"type": "bytes32"
						},
						{
							"internalType": "address",
							"name": "account",
							"type": "address"
						}
					],
					"name": "hasRoleWithSwitch",
					"outputs": [
						{
							"internalType": "bool",
							"name": "",
							"type": "bool"
						}
					],
					"stateMutability": "view",
					"type": "function"
				},
				{
					"inputs": [
						{
							"internalType": "bytes32",
							"name": "role",
							"type": "bytes32"
						},
						{
							"internalType": "address",
							"name": "account",
							"type": "address"
						}
					],
					"name": "renounceRole",
					"outputs": [],
					"stateMutability": "nonpayable",
					"type": "function"
				},
				{
					"inputs": [
						{
							"internalType": "bytes32",
							"name": "role",
							"type": "bytes32"
						},
						{
							"internalType": "address",
							"name": "account",
							"type": "address"
						}
					],
					"name": "revokeRole",
					"outputs": [],
					"stateMutability": "nonpayable",
					"type": "function"
				}
			],
			"devdoc": {
				"details": "This contracts provides extending-contracts with role-based access control mechanisms.           Also provides interfaces to view all members with a given role, and total count of members.",
				"errors": {
					"PermissionsAlreadyGranted(address,bytes32)": [
						{
							"details": "The `account` already is a holder of `role`"
						}
					],
					"PermissionsInvalidPermission(address,address)": [
						{
							"details": "Invalid priviledge to revoke"
						}
					],
					"PermissionsUnauthorizedAccount(address,bytes32)": [
						{
							"details": "The `account` is missing a role."
						}
					]
				},
				"events": {
					"RoleAdminChanged(bytes32,bytes32,bytes32)": {
						"details": "Emitted when `newAdminRole` is set as ``role``'s admin role, replacing `previousAdminRole` `DEFAULT_ADMIN_ROLE` is the starting admin for all roles, despite {RoleAdminChanged} not being emitted signaling this. _Available since v3.1._"
					},
					"RoleGranted(bytes32,address,address)": {
						"details": "Emitted when `account` is granted `role`. `sender` is the account that originated the contract call, an admin role bearer except when using {AccessControl-_setupRole}."
					},
					"RoleRevoked(bytes32,address,address)": {
						"details": "Emitted when `account` is revoked `role`. `sender` is the account that originated the contract call:   - if using `revokeRole`, it is the admin role bearer   - if using `renounceRole`, it is the role bearer (i.e. `account`)"
					}
				},
				"kind": "dev",
				"methods": {
					"getRoleAdmin(bytes32)": {
						"details": "See {grantRole} and {revokeRole}.                  To change a role's admin, use {_setRoleAdmin}.",
						"params": {
							"role": "keccak256 hash of the role. e.g. keccak256(\"TRANSFER_ROLE\")"
						}
					},
					"getRoleMember(bytes32,uint256)": {
						"details": "Returns `member` who has `role`, at `index` of role-members list.                  See struct {RoleMembers}, and mapping {roleMembers}",
						"params": {
							"index": "Index in list of current members for the role.",
							"role": "keccak256 hash of the role. e.g. keccak256(\"TRANSFER_ROLE\")"
						},
						"returns": {
							"member": " Address of account that has `role`"
						}
					},
					"getRoleMemberCount(bytes32)": {
						"details": "Returns `count` of accounts that have `role`.                  See struct {RoleMembers}, and mapping {roleMembers}",
						"params": {
							"role": "keccak256 hash of the role. e.g. keccak256(\"TRANSFER_ROLE\")"
						},
						"returns": {
							"count": "  Total number of accounts that have `role`"
						}
					},
					"grantRole(bytes32,address)": {
						"details": "Caller must have admin role for the `role`.                  Emits {RoleGranted Event}.",
						"params": {
							"account": "Address of the account to which the role is being granted.",
							"role": "keccak256 hash of the role. e.g. keccak256(\"TRANSFER_ROLE\")"
						}
					},
					"hasRole(bytes32,address)": {
						"details": "Returns `true` if `account` has been granted `role`.",
						"params": {
							"account": "Address of the account for which the role is being checked.",
							"role": "keccak256 hash of the role. e.g. keccak256(\"TRANSFER_ROLE\")"
						}
					},
					"hasRoleWithSwitch(bytes32,address)": {
						"details": "Returns `true` if `account` has been granted `role`.                  Role restrictions can be swtiched on and off:                      - If address(0) has ROLE, then the ROLE restrictions                        don't apply.                      - If address(0) does not have ROLE, then the ROLE                        restrictions will apply.",
						"params": {
							"account": "Address of the account for which the role is being checked.",
							"role": "keccak256 hash of the role. e.g. keccak256(\"TRANSFER_ROLE\")"
						}
					},
					"renounceRole(bytes32,address)": {
						"details": "Caller must have the `role`, with caller being the same as `account`.                  Emits {RoleRevoked Event}.",
						"params": {
							"account": "Address of the account from which the role is being revoked.",
							"role": "keccak256 hash of the role. e.g. keccak256(\"TRANSFER_ROLE\")"
						}
					},
					"revokeRole(bytes32,address)": {
						"details": "Caller must have admin role for the `role`.                  Emits {RoleRevoked Event}.",
						"params": {
							"account": "Address of the account from which the role is being revoked.",
							"role": "keccak256 hash of the role. e.g. keccak256(\"TRANSFER_ROLE\")"
						}
					}
				},
				"stateVariables": {
					"roleMembers": {
						"details": "map from keccak256 hash of a role to its members' data. See {RoleMembers}."
					}
				},
				"title": "PermissionsEnumerable",
				"version": 1
			},
			"evm": {
				"assembly": "    /* \"contracts/extension/PermissionsEnumerable.sol\":412:4240  contract PermissionsEnumerable is IPermissionsEnumerable, Permissions {... */\n  mstore(0x40, 0x80)\n  callvalue\n  dup1\n  iszero\n  tag_1\n  jumpi\n  revert(0x00, 0x00)\ntag_1:\n  pop\n  dataSize(sub_0)\n  dup1\n  dataOffset(sub_0)\n  0x00\n  codecopy\n  0x00\n  return\nstop\n\nsub_0: assembly {\n        /* \"contracts/extension/PermissionsEnumerable.sol\":412:4240  contract PermissionsEnumerable is IPermissionsEnumerable, Permissions {... */\n      mstore(0x40, 0x80)\n      callvalue\n      dup1\n      iszero\n      tag_1\n      jumpi\n      revert(0x00, 0x00)\n    tag_1:\n      pop\n      jumpi(tag_2, lt(calldatasize, 0x04))\n      shr(0xe0, calldataload(0x00))\n      dup1\n      0x91d14854\n      gt\n      tag_12\n      jumpi\n      dup1\n      0x91d14854\n      eq\n      tag_7\n      jumpi\n      dup1\n      0xa217fddf\n      eq\n      tag_8\n      jumpi\n      dup1\n      0xa32fa5b3\n      eq\n      tag_9\n      jumpi\n      dup1\n      0xca15c873\n      eq\n      tag_10\n      jumpi\n      dup1\n      0xd547741f\n      eq\n      tag_11\n      jumpi\n      jump(tag_2)\n    tag_12:\n      dup1\n      0x248a9ca3\n      eq\n      tag_3\n      jumpi\n      dup1\n      0x2f2ff15d\n      eq\n      tag_4\n      jumpi\n      dup1\n      0x36568abe\n      eq\n      tag_5\n      jumpi\n      dup1\n      0x9010d07c\n      eq\n      tag_6\n      jumpi\n    tag_2:\n      revert(0x00, 0x00)\n        /* \"contracts/extension/Permissions.sol\":3107:3227  function getRoleAdmin(bytes32 role) external view override returns (bytes32) {... */\n    tag_3:\n      tag_13\n      0x04\n      dup1\n      calldatasize\n      sub\n      dup2\n      add\n      swap1\n      tag_14\n      swap2\n      swap1\n      tag_15\n      jump\t// in\n    tag_14:\n      tag_16\n      jump\t// in\n    tag_13:\n      mload(0x40)\n      tag_17\n      swap2\n      swap1\n      tag_18\n      jump\t// in\n    tag_17:\n      mload(0x40)\n      dup1\n      swap2\n      sub\n      swap1\n      return\n        /* \"contracts/extension/Permissions.sol\":3622:3901  function grantRole(bytes32 role, address account) public virtual override {... */\n    tag_4:\n      tag_19\n      0x04\n      dup1\n      calldatasize\n      sub\n      dup2\n      add\n      swap1\n      tag_20\n      swap2\n      swap1\n      tag_21\n      jump\t// in\n    tag_20:\n      tag_22\n      jump\t// in\n    tag_19:\n      stop\n        /* \"contracts/extension/Permissions.sol\":4841:5078  function renounceRole(bytes32 role, address account) public virtual override {... */\n    tag_5:\n      tag_23\n      0x04\n      dup1\n      calldatasize\n      sub\n      dup2\n      add\n      swap1\n      tag_24\n      swap2\n      swap1\n      tag_21\n      jump\t// in\n    tag_24:\n      tag_25\n      jump\t// in\n    tag_23:\n      stop\n        /* \"contracts/extension/PermissionsEnumerable.sol\":1643:2276  function getRoleMember(bytes32 role, uint256 index) external view override returns (address member) {... */\n    tag_6:\n      tag_26\n      0x04\n      dup1\n      calldatasize\n      sub\n      dup2\n      add\n      swap1\n      tag_27\n      swap2\n      swap1\n      tag_28\n      jump\t// in\n    tag_27:\n      tag_29\n      jump\t// in\n    tag_26:\n      mload(0x40)\n      tag_30\n      swap2\n      swap1\n      tag_31\n      jump\t// in\n    tag_30:\n      mload(0x40)\n      dup1\n      swap2\n      sub\n      swap1\n      return\n        /* \"contracts/extension/Permissions.sol\":1691:1822  function hasRole(bytes32 role, address account) public view override returns (bool) {... */\n    tag_7:\n      tag_32\n      0x04\n      dup1\n      calldatasize\n      sub\n      dup2\n      add\n      swap1\n      tag_33\n      swap2\n      swap1\n      tag_21\n      jump\t// in\n    tag_33:\n      tag_34\n      jump\t// in\n    tag_32:\n      mload(0x40)\n      tag_35\n      swap2\n      swap1\n      tag_36\n      jump\t// in\n    tag_35:\n      mload(0x40)\n      dup1\n      swap2\n      sub\n      swap1\n      return\n        /* \"contracts/extension/Permissions.sol\":1109:1158  bytes32 public constant DEFAULT_ADMIN_ROLE = 0x00 */\n    tag_8:\n      tag_37\n      tag_38\n      jump\t// in\n    tag_37:\n      mload(0x40)\n      tag_39\n      swap2\n      swap1\n      tag_18\n      jump\t// in\n    tag_39:\n      mload(0x40)\n      dup1\n      swap2\n      sub\n      swap1\n      return\n        /* \"contracts/extension/Permissions.sol\":2573:2784  function hasRoleWithSwitch(bytes32 role, address account) public view returns (bool) {... */\n    tag_9:\n      tag_40\n      0x04\n      dup1\n      calldatasize\n      sub\n      dup2\n      add\n      swap1\n      tag_41\n      swap2\n      swap1\n      tag_21\n      jump\t// in\n    tag_41:\n      tag_42\n      jump\t// in\n    tag_40:\n      mload(0x40)\n      tag_43\n      swap2\n      swap1\n      tag_36\n      jump\t// in\n    tag_43:\n      mload(0x40)\n      dup1\n      swap2\n      sub\n      swap1\n      return\n        /* \"contracts/extension/PermissionsEnumerable.sol\":2683:3081  function getRoleMemberCount(bytes32 role) external view override returns (uint256 count) {... */\n    tag_10:\n      tag_44\n      0x04\n      dup1\n      calldatasize\n      sub\n      dup2\n      add\n      swap1\n      tag_45\n      swap2\n      swap1\n      tag_15\n      jump\t// in\n    tag_45:\n      tag_46\n      jump\t// in\n    tag_44:\n      mload(0x40)\n      tag_47\n      swap2\n      swap1\n      tag_48\n      jump\t// in\n    tag_47:\n      mload(0x40)\n      dup1\n      swap2\n      sub\n      swap1\n      return\n        /* \"contracts/extension/Permissions.sol\":4272:4443  function revokeRole(bytes32 role, address account) public virtual override {... */\n    tag_11:\n      tag_49\n      0x04\n      dup1\n      calldatasize\n      sub\n      dup2\n      add\n      swap1\n      tag_50\n      swap2\n      swap1\n      tag_21\n      jump\t// in\n    tag_50:\n      tag_51\n      jump\t// in\n    tag_49:\n      stop\n        /* \"contracts/extension/Permissions.sol\":3107:3227  function getRoleAdmin(bytes32 role) external view override returns (bytes32) {... */\n    tag_16:\n        /* \"contracts/extension/Permissions.sol\":3175:3182  bytes32 */\n      0x00\n        /* \"contracts/extension/Permissions.sol\":3201:3214  _getRoleAdmin */\n      0x01\n        /* \"contracts/extension/Permissions.sol\":3201:3220  _getRoleAdmin[role] */\n      0x00\n        /* \"contracts/extension/Permissions.sol\":3215:3219  role */\n      dup4\n        /* \"contracts/extension/Permissions.sol\":3201:3220  _getRoleAdmin[role] */\n      dup2\n      mstore\n      0x20\n      add\n      swap1\n      dup2\n      mstore\n      0x20\n      add\n      0x00\n      keccak256\n      sload\n        /* \"contracts/extension/Permissions.sol\":3194:3220  return _getRoleAdmin[role] */\n      swap1\n      pop\n        /* \"contracts/extension/Permissions.sol\":3107:3227  function getRoleAdmin(bytes32 role) external view override returns (bytes32) {... */\n      swap2\n      swap1\n      pop\n      jump\t// out\n        /* \"contracts/extension/Permissions.sol\":3622:3901  function grantRole(bytes32 role, address account) public virtual override {... */\n    tag_22:\n        /* \"contracts/extension/Permissions.sol\":3706:3749  _checkRole(_getRoleAdmin[role], msg.sender) */\n      tag_54\n        /* \"contracts/extension/Permissions.sol\":3717:3730  _getRoleAdmin */\n      0x01\n        /* \"contracts/extension/Permissions.sol\":3717:3736  _getRoleAdmin[role] */\n      0x00\n        /* \"contracts/extension/Permissions.sol\":3731:3735  role */\n      dup5\n        /* \"contracts/extension/Permissions.sol\":3717:3736  _getRoleAdmin[role] */\n      dup2\n      mstore\n      0x20\n      add\n      swap1\n      dup2\n      mstore\n      0x20\n      add\n      0x00\n      keccak256\n      sload\n        /* \"contracts/extension/Permissions.sol\":3738:3748  msg.sender */\n      caller\n        /* \"contracts/extension/Permissions.sol\":3706:3716  _checkRole */\n      tag_55\n        /* \"contracts/extension/Permissions.sol\":3706:3749  _checkRole(_getRoleAdmin[role], msg.sender) */\n      jump\t// in\n    tag_54:\n        /* \"contracts/extension/Permissions.sol\":3763:3771  _hasRole */\n      0x00\n        /* \"contracts/extension/Permissions.sol\":3763:3777  _hasRole[role] */\n      0x00\n        /* \"contracts/extension/Permissions.sol\":3772:3776  role */\n      dup4\n        /* \"contracts/extension/Permissions.sol\":3763:3777  _hasRole[role] */\n      dup2\n      mstore\n      0x20\n      add\n      swap1\n      dup2\n      mstore\n      0x20\n      add\n      0x00\n      keccak256\n        /* \"contracts/extension/Permissions.sol\":3763:3786  _hasRole[role][account] */\n      0x00\n        /* \"contracts/extension/Permissions.sol\":3778:3785  account */\n      dup3\n        /* \"contracts/extension/Permissions.sol\":3763:3786  _hasRole[role][account] */\n      0xffffffffffffffffffffffffffffffffffffffff\n      and\n      0xffffffffffffffffffffffffffffffffffffffff\n      and\n      dup2\n      mstore\n      0x20\n      add\n      swap1\n      dup2\n      mstore\n      0x20\n      add\n      0x00\n      keccak256\n      0x00\n      swap1\n      sload\n      swap1\n      0x0100\n      exp\n      swap1\n      div\n      0xff\n      and\n        /* \"contracts/extension/Permissions.sol\":3759:3860  if (_hasRole[role][account]) {... */\n      iszero\n      tag_56\n      jumpi\n        /* \"contracts/extension/Permissions.sol\":3835:3842  account */\n      dup1\n        /* \"contracts/extension/Permissions.sol\":3844:3848  role */\n      dup3\n        /* \"contracts/extension/Permissions.sol\":3809:3849  PermissionsAlreadyGranted(account, role) */\n      mload(0x40)\n      0xd49c166a00000000000000000000000000000000000000000000000000000000\n      dup2\n      mstore\n      0x04\n      add\n      tag_57\n      swap3\n      swap2\n      swap1\n      tag_58\n      jump\t// in\n    tag_57:\n      mload(0x40)\n      dup1\n      swap2\n      sub\n      swap1\n      revert\n        /* \"contracts/extension/Permissions.sol\":3759:3860  if (_hasRole[role][account]) {... */\n    tag_56:\n        /* \"contracts/extension/Permissions.sol\":3869:3894  _setupRole(role, account) */\n      tag_59\n        /* \"contracts/extension/Permissions.sol\":3880:3884  role */\n      dup3\n        /* \"contracts/extension/Permissions.sol\":3886:3893  account */\n      dup3\n        /* \"contracts/extension/Permissions.sol\":3869:3879  _setupRole */\n      tag_60\n        /* \"contracts/extension/Permissions.sol\":3869:3894  _setupRole(role, account) */\n      jump\t// in\n    tag_59:\n        /* \"contracts/extension/Permissions.sol\":3622:3901  function grantRole(bytes32 role, address account) public virtual override {... */\n      pop\n      pop\n      jump\t// out\n        /* \"contracts/extension/Permissions.sol\":4841:5078  function renounceRole(bytes32 role, address account) public virtual override {... */\n    tag_25:\n        /* \"contracts/extension/Permissions.sol\":4946:4953  account */\n      dup1\n        /* \"contracts/extension/Permissions.sol\":4932:4953  msg.sender != account */\n      0xffffffffffffffffffffffffffffffffffffffff\n      and\n        /* \"contracts/extension/Permissions.sol\":4932:4942  msg.sender */\n      caller\n        /* \"contracts/extension/Permissions.sol\":4932:4953  msg.sender != account */\n      0xffffffffffffffffffffffffffffffffffffffff\n      and\n      eq\n        /* \"contracts/extension/Permissions.sol\":4928:5036  if (msg.sender != account) {... */\n      tag_62\n      jumpi\n        /* \"contracts/extension/Permissions.sol\":5005:5015  msg.sender */\n      caller\n        /* \"contracts/extension/Permissions.sol\":5017:5024  account */\n      dup2\n        /* \"contracts/extension/Permissions.sol\":4976:5025  PermissionsInvalidPermission(msg.sender, account) */\n      mload(0x40)\n      0x4169c62200000000000000000000000000000000000000000000000000000000\n      dup2\n      mstore\n      0x04\n      add\n      tag_63\n      swap3\n      swap2\n      swap1\n      tag_64\n      jump\t// in\n    tag_63:\n      mload(0x40)\n      dup1\n      swap2\n      sub\n      swap1\n      revert\n        /* \"contracts/extension/Permissions.sol\":4928:5036  if (msg.sender != account) {... */\n    tag_62:\n        /* \"contracts/extension/Permissions.sol\":5045:5071  _revokeRole(role, account) */\n      tag_65\n        /* \"contracts/extension/Permissions.sol\":5057:5061  role */\n      dup3\n        /* \"contracts/extension/Permissions.sol\":5063:5070  account */\n      dup3\n        /* \"contracts/extension/Permissions.sol\":5045:5056  _revokeRole */\n      tag_66\n        /* \"contracts/extension/Permissions.sol\":5045:5071  _revokeRole(role, account) */\n      jump\t// in\n    tag_65:\n        /* \"contracts/extension/Permissions.sol\":4841:5078  function renounceRole(bytes32 role, address account) public virtual override {... */\n      pop\n      pop\n      jump\t// out\n        /* \"contracts/extension/PermissionsEnumerable.sol\":1643:2276  function getRoleMember(bytes32 role, uint256 index) external view override returns (address member) {... */\n    tag_29:\n        /* \"contracts/extension/PermissionsEnumerable.sol\":1727:1741  address member */\n      0x00\n        /* \"contracts/extension/PermissionsEnumerable.sol\":1753:1773  uint256 currentIndex */\n      0x00\n        /* \"contracts/extension/PermissionsEnumerable.sol\":1776:1787  roleMembers */\n      0x02\n        /* \"contracts/extension/PermissionsEnumerable.sol\":1776:1793  roleMembers[role] */\n      0x00\n        /* \"contracts/extension/PermissionsEnumerable.sol\":1788:1792  role */\n      dup6\n        /* \"contracts/extension/PermissionsEnumerable.sol\":1776:1793  roleMembers[role] */\n      dup2\n      mstore\n      0x20\n      add\n      swap1\n      dup2\n      mstore\n      0x20\n      add\n      0x00\n      keccak256\n        /* \"contracts/extension/PermissionsEnumerable.sol\":1776:1799  roleMembers[role].index */\n      0x00\n      add\n      sload\n        /* \"contracts/extension/PermissionsEnumerable.sol\":1753:1799  uint256 currentIndex = roleMembers[role].index */\n      swap1\n      pop\n        /* \"contracts/extension/PermissionsEnumerable.sol\":1809:1822  uint256 check */\n      0x00\n        /* \"contracts/extension/PermissionsEnumerable.sol\":1838:1847  uint256 i */\n      0x00\n        /* \"contracts/extension/PermissionsEnumerable.sol\":1850:1851  0 */\n      0x00\n        /* \"contracts/extension/PermissionsEnumerable.sol\":1838:1851  uint256 i = 0 */\n      swap1\n      pop\n        /* \"contracts/extension/PermissionsEnumerable.sol\":1833:2270  for (uint256 i = 0; i < currentIndex; i += 1) {... */\n    tag_68:\n        /* \"contracts/extension/PermissionsEnumerable.sol\":1857:1869  currentIndex */\n      dup3\n        /* \"contracts/extension/PermissionsEnumerable.sol\":1853:1854  i */\n      dup2\n        /* \"contracts/extension/PermissionsEnumerable.sol\":1853:1869  i < currentIndex */\n      lt\n        /* \"contracts/extension/PermissionsEnumerable.sol\":1833:2270  for (uint256 i = 0; i < currentIndex; i += 1) {... */\n      iszero\n      tag_69\n      jumpi\n        /* \"contracts/extension/PermissionsEnumerable.sol\":1937:1938  0 */\n      0x00\n        /* \"contracts/extension/PermissionsEnumerable.sol\":1897:1939  roleMembers[role].members[i] != address(0) */\n      0xffffffffffffffffffffffffffffffffffffffff\n      and\n        /* \"contracts/extension/PermissionsEnumerable.sol\":1897:1908  roleMembers */\n      0x02\n        /* \"contracts/extension/PermissionsEnumerable.sol\":1897:1914  roleMembers[role] */\n      0x00\n        /* \"contracts/extension/PermissionsEnumerable.sol\":1909:1913  role */\n      dup9\n        /* \"contracts/extension/PermissionsEnumerable.sol\":1897:1914  roleMembers[role] */\n      dup2\n      mstore\n      0x20\n      add\n      swap1\n      dup2\n      mstore\n      0x20\n      add\n      0x00\n      keccak256\n        /* \"contracts/extension/PermissionsEnumerable.sol\":1897:1922  roleMembers[role].members */\n      0x01\n      add\n        /* \"contracts/extension/PermissionsEnumerable.sol\":1897:1925  roleMembers[role].members[i] */\n      0x00\n        /* \"contracts/extension/PermissionsEnumerable.sol\":1923:1924  i */\n      dup4\n        /* \"contracts/extension/PermissionsEnumerable.sol\":1897:1925  roleMembers[role].members[i] */\n      dup2\n      mstore\n      0x20\n      add\n      swap1\n      dup2\n      mstore\n      0x20\n      add\n      0x00\n      keccak256\n      0x00\n      swap1\n      sload\n      swap1\n      0x0100\n      exp\n      swap1\n      div\n      0xffffffffffffffffffffffffffffffffffffffff\n      and\n        /* \"contracts/extension/PermissionsEnumerable.sol\":1897:1939  roleMembers[role].members[i] != address(0) */\n      0xffffffffffffffffffffffffffffffffffffffff\n      and\n      eq\n        /* \"contracts/extension/PermissionsEnumerable.sol\":1893:2260  if (roleMembers[role].members[i] != address(0)) {... */\n      tag_71\n      jumpi\n        /* \"contracts/extension/PermissionsEnumerable.sol\":1972:1977  index */\n      dup5\n        /* \"contracts/extension/PermissionsEnumerable.sol\":1963:1968  check */\n      dup3\n        /* \"contracts/extension/PermissionsEnumerable.sol\":1963:1977  check == index */\n      sub\n        /* \"contracts/extension/PermissionsEnumerable.sol\":1959:2092  if (check == index) {... */\n      tag_72\n      jumpi\n        /* \"contracts/extension/PermissionsEnumerable.sol\":2010:2021  roleMembers */\n      0x02\n        /* \"contracts/extension/PermissionsEnumerable.sol\":2010:2027  roleMembers[role] */\n      0x00\n        /* \"contracts/extension/PermissionsEnumerable.sol\":2022:2026  role */\n      dup8\n        /* \"contracts/extension/PermissionsEnumerable.sol\":2010:2027  roleMembers[role] */\n      dup2\n      mstore\n      0x20\n      add\n      swap1\n      dup2\n      mstore\n      0x20\n      add\n      0x00\n      keccak256\n        /* \"contracts/extension/PermissionsEnumerable.sol\":2010:2035  roleMembers[role].members */\n      0x01\n      add\n        /* \"contracts/extension/PermissionsEnumerable.sol\":2010:2038  roleMembers[role].members[i] */\n      0x00\n        /* \"contracts/extension/PermissionsEnumerable.sol\":2036:2037  i */\n      dup3\n        /* \"contracts/extension/PermissionsEnumerable.sol\":2010:2038  roleMembers[role].members[i] */\n      dup2\n      mstore\n      0x20\n      add\n      swap1\n      dup2\n      mstore\n      0x20\n      add\n      0x00\n      keccak256\n      0x00\n      swap1\n      sload\n      swap1\n      0x0100\n      exp\n      swap1\n      div\n      0xffffffffffffffffffffffffffffffffffffffff\n      and\n        /* \"contracts/extension/PermissionsEnumerable.sol\":2001:2038  member = roleMembers[role].members[i] */\n      swap4\n      pop\n        /* \"contracts/extension/PermissionsEnumerable.sol\":2060:2073  return member */\n      pop\n      pop\n      pop\n      jump(tag_67)\n        /* \"contracts/extension/PermissionsEnumerable.sol\":1959:2092  if (check == index) {... */\n    tag_72:\n        /* \"contracts/extension/PermissionsEnumerable.sol\":2118:2119  1 */\n      0x01\n        /* \"contracts/extension/PermissionsEnumerable.sol\":2109:2119  check += 1 */\n      dup3\n      tag_73\n      swap2\n      swap1\n      tag_74\n      jump\t// in\n    tag_73:\n      swap2\n      pop\n        /* \"contracts/extension/PermissionsEnumerable.sol\":1893:2260  if (roleMembers[role].members[i] != address(0)) {... */\n      jump(tag_75)\n    tag_71:\n        /* \"contracts/extension/PermissionsEnumerable.sol\":2144:2169  hasRole(role, address(0)) */\n      tag_76\n        /* \"contracts/extension/PermissionsEnumerable.sol\":2152:2156  role */\n      dup7\n        /* \"contracts/extension/PermissionsEnumerable.sol\":2166:2167  0 */\n      0x00\n        /* \"contracts/extension/PermissionsEnumerable.sol\":2144:2151  hasRole */\n      tag_34\n        /* \"contracts/extension/PermissionsEnumerable.sol\":2144:2169  hasRole(role, address(0)) */\n      jump\t// in\n    tag_76:\n        /* \"contracts/extension/PermissionsEnumerable.sol\":2144:2215  hasRole(role, address(0)) && i == roleMembers[role].indexOf[address(0)] */\n      dup1\n      iszero\n      tag_77\n      jumpi\n      pop\n        /* \"contracts/extension/PermissionsEnumerable.sol\":2178:2189  roleMembers */\n      0x02\n        /* \"contracts/extension/PermissionsEnumerable.sol\":2178:2195  roleMembers[role] */\n      0x00\n        /* \"contracts/extension/PermissionsEnumerable.sol\":2190:2194  role */\n      dup8\n        /* \"contracts/extension/PermissionsEnumerable.sol\":2178:2195  roleMembers[role] */\n      dup2\n      mstore\n      0x20\n      add\n      swap1\n      dup2\n      mstore\n      0x20\n      add\n      0x00\n      keccak256\n        /* \"contracts/extension/PermissionsEnumerable.sol\":2178:2203  roleMembers[role].indexOf */\n      0x02\n      add\n        /* \"contracts/extension/PermissionsEnumerable.sol\":2178:2215  roleMembers[role].indexOf[address(0)] */\n      0x00\n        /* \"contracts/extension/PermissionsEnumerable.sol\":2212:2213  0 */\n      0x00\n        /* \"contracts/extension/PermissionsEnumerable.sol\":2178:2215  roleMembers[role].indexOf[address(0)] */\n      0xffffffffffffffffffffffffffffffffffffffff\n      and\n      0xffffffffffffffffffffffffffffffffffffffff\n      and\n      dup2\n      mstore\n      0x20\n      add\n      swap1\n      dup2\n      mstore\n      0x20\n      add\n      0x00\n      keccak256\n      sload\n        /* \"contracts/extension/PermissionsEnumerable.sol\":2173:2174  i */\n      dup2\n        /* \"contracts/extension/PermissionsEnumerable.sol\":2173:2215  i == roleMembers[role].indexOf[address(0)] */\n      eq\n        /* \"contracts/extension/PermissionsEnumerable.sol\":2144:2215  hasRole(role, address(0)) && i == roleMembers[role].indexOf[address(0)] */\n    tag_77:\n        /* \"contracts/extension/PermissionsEnumerable.sol\":2140:2260  if (hasRole(role, address(0)) && i == roleMembers[role].indexOf[address(0)]) {... */\n      iszero\n      tag_78\n      jumpi\n        /* \"contracts/extension/PermissionsEnumerable.sol\":2244:2245  1 */\n      0x01\n        /* \"contracts/extension/PermissionsEnumerable.sol\":2235:2245  check += 1 */\n      dup3\n      tag_79\n      swap2\n      swap1\n      tag_74\n      jump\t// in\n    tag_79:\n      swap2\n      pop\n        /* \"contracts/extension/PermissionsEnumerable.sol\":2140:2260  if (hasRole(role, address(0)) && i == roleMembers[role].indexOf[address(0)]) {... */\n    tag_78:\n        /* \"contracts/extension/PermissionsEnumerable.sol\":1893:2260  if (roleMembers[role].members[i] != address(0)) {... */\n    tag_75:\n        /* \"contracts/extension/PermissionsEnumerable.sol\":1876:1877  1 */\n      0x01\n        /* \"contracts/extension/PermissionsEnumerable.sol\":1871:1877  i += 1 */\n      dup2\n      tag_80\n      swap2\n      swap1\n      tag_74\n      jump\t// in\n    tag_80:\n      swap1\n      pop\n        /* \"contracts/extension/PermissionsEnumerable.sol\":1833:2270  for (uint256 i = 0; i < currentIndex; i += 1) {... */\n      jump(tag_68)\n    tag_69:\n      pop\n        /* \"contracts/extension/PermissionsEnumerable.sol\":1743:2276  {... */\n      pop\n      pop\n        /* \"contracts/extension/PermissionsEnumerable.sol\":1643:2276  function getRoleMember(bytes32 role, uint256 index) external view override returns (address member) {... */\n    tag_67:\n      swap3\n      swap2\n      pop\n      pop\n      jump\t// out\n        /* \"contracts/extension/Permissions.sol\":1691:1822  function hasRole(bytes32 role, address account) public view override returns (bool) {... */\n    tag_34:\n        /* \"contracts/extension/Permissions.sol\":1769:1773  bool */\n      0x00\n        /* \"contracts/extension/Permissions.sol\":1792:1800  _hasRole */\n      0x00\n        /* \"contracts/extension/Permissions.sol\":1792:1806  _hasRole[role] */\n      0x00\n        /* \"contracts/extension/Permissions.sol\":1801:1805  role */\n      dup5\n        /* \"contracts/extension/Permissions.sol\":1792:1806  _hasRole[role] */\n      dup2\n      mstore\n      0x20\n      add\n      swap1\n      dup2\n      mstore\n      0x20\n      add\n      0x00\n      keccak256\n        /* \"contracts/extension/Permissions.sol\":1792:1815  _hasRole[role][account] */\n      0x00\n        /* \"contracts/extension/Permissions.sol\":1807:1814  account */\n      dup4\n        /* \"contracts/extension/Permissions.sol\":1792:1815  _hasRole[role][account] */\n      0xffffffffffffffffffffffffffffffffffffffff\n      and\n      0xffffffffffffffffffffffffffffffffffffffff\n      and\n      dup2\n      mstore\n      0x20\n      add\n      swap1\n      dup2\n      mstore\n      0x20\n      add\n      0x00\n      keccak256\n      0x00\n      swap1\n      sload\n      swap1\n      0x0100\n      exp\n      swap1\n      div\n      0xff\n      and\n        /* \"contracts/extension/Permissions.sol\":1785:1815  return _hasRole[role][account] */\n      swap1\n      pop\n        /* \"contracts/extension/Permissions.sol\":1691:1822  function hasRole(bytes32 role, address account) public view override returns (bool) {... */\n      swap3\n      swap2\n      pop\n      pop\n      jump\t// out\n        /* \"contracts/extension/Permissions.sol\":1109:1158  bytes32 public constant DEFAULT_ADMIN_ROLE = 0x00 */\n    tag_38:\n        /* \"contracts/extension/Permissions.sol\":1154:1158  0x00 */\n      0x00\n        /* \"contracts/extension/Permissions.sol\":1109:1158  bytes32 public constant DEFAULT_ADMIN_ROLE = 0x00 */\n      0x00\n      shl\n      dup2\n      jump\t// out\n        /* \"contracts/extension/Permissions.sol\":2573:2784  function hasRoleWithSwitch(bytes32 role, address account) public view returns (bool) {... */\n    tag_42:\n        /* \"contracts/extension/Permissions.sol\":2652:2656  bool */\n      0x00\n        /* \"contracts/extension/Permissions.sol\":2673:2681  _hasRole */\n      0x00\n        /* \"contracts/extension/Permissions.sol\":2673:2687  _hasRole[role] */\n      0x00\n        /* \"contracts/extension/Permissions.sol\":2682:2686  role */\n      dup5\n        /* \"contracts/extension/Permissions.sol\":2673:2687  _hasRole[role] */\n      dup2\n      mstore\n      0x20\n      add\n      swap1\n      dup2\n      mstore\n      0x20\n      add\n      0x00\n      keccak256\n        /* \"contracts/extension/Permissions.sol\":2673:2699  _hasRole[role][address(0)] */\n      0x00\n        /* \"contracts/extension/Permissions.sol\":2696:2697  0 */\n      0x00\n        /* \"contracts/extension/Permissions.sol\":2673:2699  _hasRole[role][address(0)] */\n      0xffffffffffffffffffffffffffffffffffffffff\n      and\n      0xffffffffffffffffffffffffffffffffffffffff\n      and\n      dup2\n      mstore\n      0x20\n      add\n      swap1\n      dup2\n      mstore\n      0x20\n      add\n      0x00\n      keccak256\n      0x00\n      swap1\n      sload\n      swap1\n      0x0100\n      exp\n      swap1\n      div\n      0xff\n      and\n        /* \"contracts/extension/Permissions.sol\":2668:2756  if (!_hasRole[role][address(0)]) {... */\n      tag_83\n      jumpi\n        /* \"contracts/extension/Permissions.sol\":2722:2730  _hasRole */\n      0x00\n        /* \"contracts/extension/Permissions.sol\":2722:2736  _hasRole[role] */\n      0x00\n        /* \"contracts/extension/Permissions.sol\":2731:2735  role */\n      dup5\n        /* \"contracts/extension/Permissions.sol\":2722:2736  _hasRole[role] */\n      dup2\n      mstore\n      0x20\n      add\n      swap1\n      dup2\n      mstore\n      0x20\n      add\n      0x00\n      keccak256\n        /* \"contracts/extension/Permissions.sol\":2722:2745  _hasRole[role][account] */\n      0x00\n        /* \"contracts/extension/Permissions.sol\":2737:2744  account */\n      dup4\n        /* \"contracts/extension/Permissions.sol\":2722:2745  _hasRole[role][account] */\n      0xffffffffffffffffffffffffffffffffffffffff\n      and\n      0xffffffffffffffffffffffffffffffffffffffff\n      and\n      dup2\n      mstore\n      0x20\n      add\n      swap1\n      dup2\n      mstore\n      0x20\n      add\n      0x00\n      keccak256\n      0x00\n      swap1\n      sload\n      swap1\n      0x0100\n      exp\n      swap1\n      div\n      0xff\n      and\n        /* \"contracts/extension/Permissions.sol\":2715:2745  return _hasRole[role][account] */\n      swap1\n      pop\n      jump(tag_82)\n        /* \"contracts/extension/Permissions.sol\":2668:2756  if (!_hasRole[role][address(0)]) {... */\n    tag_83:\n        /* \"contracts/extension/Permissions.sol\":2773:2777  true */\n      0x01\n        /* \"contracts/extension/Permissions.sol\":2766:2777  return true */\n      swap1\n      pop\n        /* \"contracts/extension/Permissions.sol\":2573:2784  function hasRoleWithSwitch(bytes32 role, address account) public view returns (bool) {... */\n    tag_82:\n      swap3\n      swap2\n      pop\n      pop\n      jump\t// out\n        /* \"contracts/extension/PermissionsEnumerable.sol\":2683:3081  function getRoleMemberCount(bytes32 role) external view override returns (uint256 count) {... */\n    tag_46:\n        /* \"contracts/extension/PermissionsEnumerable.sol\":2757:2770  uint256 count */\n      0x00\n        /* \"contracts/extension/PermissionsEnumerable.sol\":2782:2802  uint256 currentIndex */\n      0x00\n        /* \"contracts/extension/PermissionsEnumerable.sol\":2805:2816  roleMembers */\n      0x02\n        /* \"contracts/extension/PermissionsEnumerable.sol\":2805:2822  roleMembers[role] */\n      0x00\n        /* \"contracts/extension/PermissionsEnumerable.sol\":2817:2821  role */\n      dup5\n        /* \"contracts/extension/PermissionsEnumerable.sol\":2805:2822  roleMembers[role] */\n      dup2\n      mstore\n      0x20\n      add\n      swap1\n      dup2\n      mstore\n      0x20\n      add\n      0x00\n      keccak256\n        /* \"contracts/extension/PermissionsEnumerable.sol\":2805:2828  roleMembers[role].index */\n      0x00\n      add\n      sload\n        /* \"contracts/extension/PermissionsEnumerable.sol\":2782:2828  uint256 currentIndex = roleMembers[role].index */\n      swap1\n      pop\n        /* \"contracts/extension/PermissionsEnumerable.sol\":2844:2853  uint256 i */\n      0x00\n        /* \"contracts/extension/PermissionsEnumerable.sol\":2856:2857  0 */\n      0x00\n        /* \"contracts/extension/PermissionsEnumerable.sol\":2844:2857  uint256 i = 0 */\n      swap1\n      pop\n        /* \"contracts/extension/PermissionsEnumerable.sol\":2839:3000  for (uint256 i = 0; i < currentIndex; i += 1) {... */\n    tag_85:\n        /* \"contracts/extension/PermissionsEnumerable.sol\":2863:2875  currentIndex */\n      dup2\n        /* \"contracts/extension/PermissionsEnumerable.sol\":2859:2860  i */\n      dup2\n        /* \"contracts/extension/PermissionsEnumerable.sol\":2859:2875  i < currentIndex */\n      lt\n        /* \"contracts/extension/PermissionsEnumerable.sol\":2839:3000  for (uint256 i = 0; i < currentIndex; i += 1) {... */\n      iszero\n      tag_86\n      jumpi\n        /* \"contracts/extension/PermissionsEnumerable.sol\":2943:2944  0 */\n      0x00\n        /* \"contracts/extension/PermissionsEnumerable.sol\":2903:2945  roleMembers[role].members[i] != address(0) */\n      0xffffffffffffffffffffffffffffffffffffffff\n      and\n        /* \"contracts/extension/PermissionsEnumerable.sol\":2903:2914  roleMembers */\n      0x02\n        /* \"contracts/extension/PermissionsEnumerable.sol\":2903:2920  roleMembers[role] */\n      0x00\n        /* \"contracts/extension/PermissionsEnumerable.sol\":2915:2919  role */\n      dup7\n        /* \"contracts/extension/PermissionsEnumerable.sol\":2903:2920  roleMembers[role] */\n      dup2\n      mstore\n      0x20\n      add\n      swap1\n      dup2\n      mstore\n      0x20\n      add\n      0x00\n      keccak256\n        /* \"contracts/extension/PermissionsEnumerable.sol\":2903:2928  roleMembers[role].members */\n      0x01\n      add\n        /* \"contracts/extension/PermissionsEnumerable.sol\":2903:2931  roleMembers[role].members[i] */\n      0x00\n        /* \"contracts/extension/PermissionsEnumerable.sol\":2929:2930  i */\n      dup4\n        /* \"contracts/extension/PermissionsEnumerable.sol\":2903:2931  roleMembers[role].members[i] */\n      dup2\n      mstore\n      0x20\n      add\n      swap1\n      dup2\n      mstore\n      0x20\n      add\n      0x00\n      keccak256\n      0x00\n      swap1\n      sload\n      swap1\n      0x0100\n      exp\n      swap1\n      div\n      0xffffffffffffffffffffffffffffffffffffffff\n      and\n        /* \"contracts/extension/PermissionsEnumerable.sol\":2903:2945  roleMembers[role].members[i] != address(0) */\n      0xffffffffffffffffffffffffffffffffffffffff\n      and\n      eq\n        /* \"contracts/extension/PermissionsEnumerable.sol\":2899:2990  if (roleMembers[role].members[i] != address(0)) {... */\n      tag_88\n      jumpi\n        /* \"contracts/extension/PermissionsEnumerable.sol\":2974:2975  1 */\n      0x01\n        /* \"contracts/extension/PermissionsEnumerable.sol\":2965:2975  count += 1 */\n      dup4\n      tag_89\n      swap2\n      swap1\n      tag_74\n      jump\t// in\n    tag_89:\n      swap3\n      pop\n        /* \"contracts/extension/PermissionsEnumerable.sol\":2899:2990  if (roleMembers[role].members[i] != address(0)) {... */\n    tag_88:\n        /* \"contracts/extension/PermissionsEnumerable.sol\":2882:2883  1 */\n      0x01\n        /* \"contracts/extension/PermissionsEnumerable.sol\":2877:2883  i += 1 */\n      dup2\n      tag_90\n      swap2\n      swap1\n      tag_74\n      jump\t// in\n    tag_90:\n      swap1\n      pop\n        /* \"contracts/extension/PermissionsEnumerable.sol\":2839:3000  for (uint256 i = 0; i < currentIndex; i += 1) {... */\n      jump(tag_85)\n    tag_86:\n      pop\n        /* \"contracts/extension/PermissionsEnumerable.sol\":3013:3038  hasRole(role, address(0)) */\n      tag_91\n        /* \"contracts/extension/PermissionsEnumerable.sol\":3021:3025  role */\n      dup4\n        /* \"contracts/extension/PermissionsEnumerable.sol\":3035:3036  0 */\n      0x00\n        /* \"contracts/extension/PermissionsEnumerable.sol\":3013:3020  hasRole */\n      tag_34\n        /* \"contracts/extension/PermissionsEnumerable.sol\":3013:3038  hasRole(role, address(0)) */\n      jump\t// in\n    tag_91:\n        /* \"contracts/extension/PermissionsEnumerable.sol\":3009:3075  if (hasRole(role, address(0))) {... */\n      iszero\n      tag_92\n      jumpi\n        /* \"contracts/extension/PermissionsEnumerable.sol\":3063:3064  1 */\n      0x01\n        /* \"contracts/extension/PermissionsEnumerable.sol\":3054:3064  count += 1 */\n      dup3\n      tag_93\n      swap2\n      swap1\n      tag_74\n      jump\t// in\n    tag_93:\n      swap2\n      pop\n        /* \"contracts/extension/PermissionsEnumerable.sol\":3009:3075  if (hasRole(role, address(0))) {... */\n    tag_92:\n        /* \"contracts/extension/PermissionsEnumerable.sol\":2772:3081  {... */\n      pop\n        /* \"contracts/extension/PermissionsEnumerable.sol\":2683:3081  function getRoleMemberCount(bytes32 role) external view override returns (uint256 count) {... */\n      swap2\n      swap1\n      pop\n      jump\t// out\n        /* \"contracts/extension/Permissions.sol\":4272:4443  function revokeRole(bytes32 role, address account) public virtual override {... */\n    tag_51:\n        /* \"contracts/extension/Permissions.sol\":4357:4400  _checkRole(_getRoleAdmin[role], msg.sender) */\n      tag_95\n        /* \"contracts/extension/Permissions.sol\":4368:4381  _getRoleAdmin */\n      0x01\n        /* \"contracts/extension/Permissions.sol\":4368:4387  _getRoleAdmin[role] */\n      0x00\n        /* \"contracts/extension/Permissions.sol\":4382:4386  role */\n      dup5\n        /* \"contracts/extension/Permissions.sol\":4368:4387  _getRoleAdmin[role] */\n      dup2\n      mstore\n      0x20\n      add\n      swap1\n      dup2\n      mstore\n      0x20\n      add\n      0x00\n      keccak256\n      sload\n        /* \"contracts/extension/Permissions.sol\":4389:4399  msg.sender */\n      caller\n        /* \"contracts/extension/Permissions.sol\":4357:4367  _checkRole */\n      tag_55\n        /* \"contracts/extension/Permissions.sol\":4357:4400  _checkRole(_getRoleAdmin[role], msg.sender) */\n      jump\t// in\n    tag_95:\n        /* \"contracts/extension/Permissions.sol\":4410:4436  _revokeRole(role, account) */\n      tag_96\n        /* \"contracts/extension/Permissions.sol\":4422:4426  role */\n      dup3\n        /* \"contracts/extension/Permissions.sol\":4428:4435  account */\n      dup3\n        /* \"contracts/extension/Permissions.sol\":4410:4421  _revokeRole */\n      tag_66\n        /* \"contracts/extension/Permissions.sol\":4410:4436  _revokeRole(role, account) */\n      jump\t// in\n    tag_96:\n        /* \"contracts/extension/Permissions.sol\":4272:4443  function revokeRole(bytes32 role, address account) public virtual override {... */\n      pop\n      pop\n      jump\t// out\n        /* \"contracts/extension/Permissions.sol\":5952:6148  function _checkRole(bytes32 role, address account) internal view virtual {... */\n    tag_55:\n        /* \"contracts/extension/Permissions.sol\":6040:6048  _hasRole */\n      0x00\n        /* \"contracts/extension/Permissions.sol\":6040:6054  _hasRole[role] */\n      0x00\n        /* \"contracts/extension/Permissions.sol\":6049:6053  role */\n      dup4\n        /* \"contracts/extension/Permissions.sol\":6040:6054  _hasRole[role] */\n      dup2\n      mstore\n      0x20\n      add\n      swap1\n      dup2\n      mstore\n      0x20\n      add\n      0x00\n      keccak256\n        /* \"contracts/extension/Permissions.sol\":6040:6063  _hasRole[role][account] */\n      0x00\n        /* \"contracts/extension/Permissions.sol\":6055:6062  account */\n      dup3\n        /* \"contracts/extension/Permissions.sol\":6040:6063  _hasRole[role][account] */\n      0xffffffffffffffffffffffffffffffffffffffff\n      and\n      0xffffffffffffffffffffffffffffffffffffffff\n      and\n      dup2\n      mstore\n      0x20\n      add\n      swap1\n      dup2\n      mstore\n      0x20\n      add\n      0x00\n      keccak256\n      0x00\n      swap1\n      sload\n      swap1\n      0x0100\n      exp\n      swap1\n      div\n      0xff\n      and\n        /* \"contracts/extension/Permissions.sol\":6035:6142  if (!_hasRole[role][account]) {... */\n      tag_98\n      jumpi\n        /* \"contracts/extension/Permissions.sol\":6117:6124  account */\n      dup1\n        /* \"contracts/extension/Permissions.sol\":6126:6130  role */\n      dup3\n        /* \"contracts/extension/Permissions.sol\":6086:6131  PermissionsUnauthorizedAccount(account, role) */\n      mload(0x40)\n      0x0878b10600000000000000000000000000000000000000000000000000000000\n      dup2\n      mstore\n      0x04\n      add\n      tag_99\n      swap3\n      swap2\n      swap1\n      tag_58\n      jump\t// in\n    tag_99:\n      mload(0x40)\n      dup1\n      swap2\n      sub\n      swap1\n      revert\n        /* \"contracts/extension/Permissions.sol\":6035:6142  if (!_hasRole[role][account]) {... */\n    tag_98:\n        /* \"contracts/extension/Permissions.sol\":5952:6148  function _checkRole(bytes32 role, address account) internal view virtual {... */\n      pop\n      pop\n      jump\t// out\n        /* \"contracts/extension/PermissionsEnumerable.sol\":3475:3627  function _setupRole(bytes32 role, address account) internal override {... */\n    tag_60:\n        /* \"contracts/extension/PermissionsEnumerable.sol\":3554:3585  super._setupRole(role, account) */\n      tag_101\n        /* \"contracts/extension/PermissionsEnumerable.sol\":3571:3575  role */\n      dup3\n        /* \"contracts/extension/PermissionsEnumerable.sol\":3577:3584  account */\n      dup3\n        /* \"contracts/extension/PermissionsEnumerable.sol\":3554:3570  super._setupRole */\n      tag_102\n        /* \"contracts/extension/PermissionsEnumerable.sol\":3554:3585  super._setupRole(role, account) */\n      jump\t// in\n    tag_101:\n        /* \"contracts/extension/PermissionsEnumerable.sol\":3595:3620  _addMember(role, account) */\n      tag_103\n        /* \"contracts/extension/PermissionsEnumerable.sol\":3606:3610  role */\n      dup3\n        /* \"contracts/extension/PermissionsEnumerable.sol\":3612:3619  account */\n      dup3\n        /* \"contracts/extension/PermissionsEnumerable.sol\":3595:3605  _addMember */\n      tag_104\n        /* \"contracts/extension/PermissionsEnumerable.sol\":3595:3620  _addMember(role, account) */\n      jump\t// in\n    tag_103:\n        /* \"contracts/extension/PermissionsEnumerable.sol\":3475:3627  function _setupRole(bytes32 role, address account) internal override {... */\n      pop\n      pop\n      jump\t// out\n        /* \"contracts/extension/PermissionsEnumerable.sol\":3205:3362  function _revokeRole(bytes32 role, address account) internal override {... */\n    tag_66:\n        /* \"contracts/extension/PermissionsEnumerable.sol\":3285:3317  super._revokeRole(role, account) */\n      tag_106\n        /* \"contracts/extension/PermissionsEnumerable.sol\":3303:3307  role */\n      dup3\n        /* \"contracts/extension/PermissionsEnumerable.sol\":3309:3316  account */\n      dup3\n        /* \"contracts/extension/PermissionsEnumerable.sol\":3285:3302  super._revokeRole */\n      tag_107\n        /* \"contracts/extension/PermissionsEnumerable.sol\":3285:3317  super._revokeRole(role, account) */\n      jump\t// in\n    tag_106:\n        /* \"contracts/extension/PermissionsEnumerable.sol\":3327:3355  _removeMember(role, account) */\n      tag_108\n        /* \"contracts/extension/PermissionsEnumerable.sol\":3341:3345  role */\n      dup3\n        /* \"contracts/extension/PermissionsEnumerable.sol\":3347:3354  account */\n      dup3\n        /* \"contracts/extension/PermissionsEnumerable.sol\":3327:3340  _removeMember */\n      tag_109\n        /* \"contracts/extension/PermissionsEnumerable.sol\":3327:3355  _removeMember(role, account) */\n      jump\t// in\n    tag_108:\n        /* \"contracts/extension/PermissionsEnumerable.sol\":3205:3362  function _revokeRole(bytes32 role, address account) internal override {... */\n      pop\n      pop\n      jump\t// out\n        /* \"contracts/extension/Permissions.sol\":5431:5599  function _setupRole(bytes32 role, address account) internal virtual {... */\n    tag_102:\n        /* \"contracts/extension/Permissions.sol\":5535:5539  true */\n      0x01\n        /* \"contracts/extension/Permissions.sol\":5509:5517  _hasRole */\n      0x00\n        /* \"contracts/extension/Permissions.sol\":5509:5523  _hasRole[role] */\n      0x00\n        /* \"contracts/extension/Permissions.sol\":5518:5522  role */\n      dup5\n        /* \"contracts/extension/Permissions.sol\":5509:5523  _hasRole[role] */\n      dup2\n      mstore\n      0x20\n      add\n      swap1\n      dup2\n      mstore\n      0x20\n      add\n      0x00\n      keccak256\n        /* \"contracts/extension/Permissions.sol\":5509:5532  _hasRole[role][account] */\n      0x00\n        /* \"contracts/extension/Permissions.sol\":5524:5531  account */\n      dup4\n        /* \"contracts/extension/Permissions.sol\":5509:5532  _hasRole[role][account] */\n      0xffffffffffffffffffffffffffffffffffffffff\n      and\n      0xffffffffffffffffffffffffffffffffffffffff\n      and\n      dup2\n      mstore\n      0x20\n      add\n      swap1\n      dup2\n      mstore\n      0x20\n      add\n      0x00\n      keccak256\n      0x00\n        /* \"contracts/extension/Permissions.sol\":5509:5539  _hasRole[role][account] = true */\n      0x0100\n      exp\n      dup2\n      sload\n      dup2\n      0xff\n      mul\n      not\n      and\n      swap1\n      dup4\n      iszero\n      iszero\n      mul\n      or\n      swap1\n      sstore\n      pop\n        /* \"contracts/extension/Permissions.sol\":5581:5591  msg.sender */\n      caller\n        /* \"contracts/extension/Permissions.sol\":5554:5592  RoleGranted(role, account, msg.sender) */\n      0xffffffffffffffffffffffffffffffffffffffff\n      and\n        /* \"contracts/extension/Permissions.sol\":5572:5579  account */\n      dup2\n        /* \"contracts/extension/Permissions.sol\":5554:5592  RoleGranted(role, account, msg.sender) */\n      0xffffffffffffffffffffffffffffffffffffffff\n      and\n        /* \"contracts/extension/Permissions.sol\":5566:5570  role */\n      dup4\n        /* \"contracts/extension/Permissions.sol\":5554:5592  RoleGranted(role, account, msg.sender) */\n      0x2f8788117e7eff1d82e926ec794901d17c78024a50270940304540a733656f0d\n      mload(0x40)\n      mload(0x40)\n      dup1\n      swap2\n      sub\n      swap1\n      log4\n        /* \"contracts/extension/Permissions.sol\":5431:5599  function _setupRole(bytes32 role, address account) internal virtual {... */\n      pop\n      pop\n      jump\t// out\n        /* \"contracts/extension/PermissionsEnumerable.sol\":3690:3943  function _addMember(bytes32 role, address account) internal {... */\n    tag_104:\n        /* \"contracts/extension/PermissionsEnumerable.sol\":3760:3771  uint256 idx */\n      0x00\n        /* \"contracts/extension/PermissionsEnumerable.sol\":3774:3785  roleMembers */\n      0x02\n        /* \"contracts/extension/PermissionsEnumerable.sol\":3774:3791  roleMembers[role] */\n      0x00\n        /* \"contracts/extension/PermissionsEnumerable.sol\":3786:3790  role */\n      dup5\n        /* \"contracts/extension/PermissionsEnumerable.sol\":3774:3791  roleMembers[role] */\n      dup2\n      mstore\n      0x20\n      add\n      swap1\n      dup2\n      mstore\n      0x20\n      add\n      0x00\n      keccak256\n        /* \"contracts/extension/PermissionsEnumerable.sol\":3774:3797  roleMembers[role].index */\n      0x00\n      add\n      sload\n        /* \"contracts/extension/PermissionsEnumerable.sol\":3760:3797  uint256 idx = roleMembers[role].index */\n      swap1\n      pop\n        /* \"contracts/extension/PermissionsEnumerable.sol\":3834:3835  1 */\n      0x01\n        /* \"contracts/extension/PermissionsEnumerable.sol\":3807:3818  roleMembers */\n      0x02\n        /* \"contracts/extension/PermissionsEnumerable.sol\":3807:3824  roleMembers[role] */\n      0x00\n        /* \"contracts/extension/PermissionsEnumerable.sol\":3819:3823  role */\n      dup6\n        /* \"contracts/extension/PermissionsEnumerable.sol\":3807:3824  roleMembers[role] */\n      dup2\n      mstore\n      0x20\n      add\n      swap1\n      dup2\n      mstore\n      0x20\n      add\n      0x00\n      keccak256\n        /* \"contracts/extension/PermissionsEnumerable.sol\":3807:3830  roleMembers[role].index */\n      0x00\n      add\n      0x00\n        /* \"contracts/extension/PermissionsEnumerable.sol\":3807:3835  roleMembers[role].index += 1 */\n      dup3\n      dup3\n      sload\n      tag_112\n      swap2\n      swap1\n      tag_74\n      jump\t// in\n    tag_112:\n      swap3\n      pop\n      pop\n      dup2\n      swap1\n      sstore\n      pop\n        /* \"contracts/extension/PermissionsEnumerable.sol\":3879:3886  account */\n      dup2\n        /* \"contracts/extension/PermissionsEnumerable.sol\":3846:3857  roleMembers */\n      0x02\n        /* \"contracts/extension/PermissionsEnumerable.sol\":3846:3863  roleMembers[role] */\n      0x00\n        /* \"contracts/extension/PermissionsEnumerable.sol\":3858:3862  role */\n      dup6\n        /* \"contracts/extension/PermissionsEnumerable.sol\":3846:3863  roleMembers[role] */\n      dup2\n      mstore\n      0x20\n      add\n      swap1\n      dup2\n      mstore\n      0x20\n      add\n      0x00\n      keccak256\n        /* \"contracts/extension/PermissionsEnumerable.sol\":3846:3871  roleMembers[role].members */\n      0x01\n      add\n        /* \"contracts/extension/PermissionsEnumerable.sol\":3846:3876  roleMembers[role].members[idx] */\n      0x00\n        /* \"contracts/extension/PermissionsEnumerable.sol\":3872:3875  idx */\n      dup4\n        /* \"contracts/extension/PermissionsEnumerable.sol\":3846:3876  roleMembers[role].members[idx] */\n      dup2\n      mstore\n      0x20\n      add\n      swap1\n      dup2\n      mstore\n      0x20\n      add\n      0x00\n      keccak256\n      0x00\n        /* \"contracts/extension/PermissionsEnumerable.sol\":3846:3886  roleMembers[role].members[idx] = account */\n      0x0100\n      exp\n      dup2\n      sload\n      dup2\n      0xffffffffffffffffffffffffffffffffffffffff\n      mul\n      not\n      and\n      swap1\n      dup4\n      0xffffffffffffffffffffffffffffffffffffffff\n      and\n      mul\n      or\n      swap1\n      sstore\n      pop\n        /* \"contracts/extension/PermissionsEnumerable.sol\":3933:3936  idx */\n      dup1\n        /* \"contracts/extension/PermissionsEnumerable.sol\":3896:3907  roleMembers */\n      0x02\n        /* \"contracts/extension/PermissionsEnumerable.sol\":3896:3913  roleMembers[role] */\n      0x00\n        /* \"contracts/extension/PermissionsEnumerable.sol\":3908:3912  role */\n      dup6\n        /* \"contracts/extension/PermissionsEnumerable.sol\":3896:3913  roleMembers[role] */\n      dup2\n      mstore\n      0x20\n      add\n      swap1\n      dup2\n      mstore\n      0x20\n      add\n      0x00\n      keccak256\n        /* \"contracts/extension/PermissionsEnumerable.sol\":3896:3921  roleMembers[role].indexOf */\n      0x02\n      add\n        /* \"contracts/extension/PermissionsEnumerable.sol\":3896:3930  roleMembers[role].indexOf[account] */\n      0x00\n        /* \"contracts/extension/PermissionsEnumerable.sol\":3922:3929  account */\n      dup5\n        /* \"contracts/extension/PermissionsEnumerable.sol\":3896:3930  roleMembers[role].indexOf[account] */\n      0xffffffffffffffffffffffffffffffffffffffff\n      and\n      0xffffffffffffffffffffffffffffffffffffffff\n      and\n      dup2\n      mstore\n      0x20\n      add\n      swap1\n      dup2\n      mstore\n      0x20\n      add\n      0x00\n      keccak256\n        /* \"contracts/extension/PermissionsEnumerable.sol\":3896:3936  roleMembers[role].indexOf[account] = idx */\n      dup2\n      swap1\n      sstore\n      pop\n        /* \"contracts/extension/PermissionsEnumerable.sol\":3750:3943  {... */\n      pop\n        /* \"contracts/extension/PermissionsEnumerable.sol\":3690:3943  function _addMember(bytes32 role, address account) internal {... */\n      pop\n      pop\n      jump\t// out\n        /* \"contracts/extension/Permissions.sol\":5648:5852  function _revokeRole(bytes32 role, address account) internal virtual {... */\n    tag_107:\n        /* \"contracts/extension/Permissions.sol\":5727:5752  _checkRole(role, account) */\n      tag_114\n        /* \"contracts/extension/Permissions.sol\":5738:5742  role */\n      dup3\n        /* \"contracts/extension/Permissions.sol\":5744:5751  account */\n      dup3\n        /* \"contracts/extension/Permissions.sol\":5727:5737  _checkRole */\n      tag_55\n        /* \"contracts/extension/Permissions.sol\":5727:5752  _checkRole(role, account) */\n      jump\t// in\n    tag_114:\n        /* \"contracts/extension/Permissions.sol\":5769:5777  _hasRole */\n      0x00\n        /* \"contracts/extension/Permissions.sol\":5769:5783  _hasRole[role] */\n      0x00\n        /* \"contracts/extension/Permissions.sol\":5778:5782  role */\n      dup4\n        /* \"contracts/extension/Permissions.sol\":5769:5783  _hasRole[role] */\n      dup2\n      mstore\n      0x20\n      add\n      swap1\n      dup2\n      mstore\n      0x20\n      add\n      0x00\n      keccak256\n        /* \"contracts/extension/Permissions.sol\":5769:5792  _hasRole[role][account] */\n      0x00\n        /* \"contracts/extension/Permissions.sol\":5784:5791  account */\n      dup3\n        /* \"contracts/extension/Permissions.sol\":5769:5792  _hasRole[role][account] */\n      0xffffffffffffffffffffffffffffffffffffffff\n      and\n      0xffffffffffffffffffffffffffffffffffffffff\n      and\n      dup2\n      mstore\n      0x20\n      add\n      swap1\n      dup2\n      mstore\n      0x20\n      add\n      0x00\n      keccak256\n      0x00\n        /* \"contracts/extension/Permissions.sol\":5762:5792  delete _hasRole[role][account] */\n      0x0100\n      exp\n      dup2\n      sload\n      swap1\n      0xff\n      mul\n      not\n      and\n      swap1\n      sstore\n        /* \"contracts/extension/Permissions.sol\":5834:5844  msg.sender */\n      caller\n        /* \"contracts/extension/Permissions.sol\":5807:5845  RoleRevoked(role, account, msg.sender) */\n      0xffffffffffffffffffffffffffffffffffffffff\n      and\n        /* \"contracts/extension/Permissions.sol\":5825:5832  account */\n      dup2\n        /* \"contracts/extension/Permissions.sol\":5807:5845  RoleRevoked(role, account, msg.sender) */\n      0xffffffffffffffffffffffffffffffffffffffff\n      and\n        /* \"contracts/extension/Permissions.sol\":5819:5823  role */\n      dup4\n        /* \"contracts/extension/Permissions.sol\":5807:5845  RoleRevoked(role, account, msg.sender) */\n      0xf6391f5c32d9c69d2a47ea670b442974b53935d1edc7fd64eb21e047a839171b\n      mload(0x40)\n      mload(0x40)\n      dup1\n      swap2\n      sub\n      swap1\n      log4\n        /* \"contracts/extension/Permissions.sol\":5648:5852  function _revokeRole(bytes32 role, address account) internal virtual {... */\n      pop\n      pop\n      jump\t// out\n        /* \"contracts/extension/PermissionsEnumerable.sol\":4011:4238  function _removeMember(bytes32 role, address account) internal {... */\n    tag_109:\n        /* \"contracts/extension/PermissionsEnumerable.sol\":4084:4095  uint256 idx */\n      0x00\n        /* \"contracts/extension/PermissionsEnumerable.sol\":4098:4109  roleMembers */\n      0x02\n        /* \"contracts/extension/PermissionsEnumerable.sol\":4098:4115  roleMembers[role] */\n      0x00\n        /* \"contracts/extension/PermissionsEnumerable.sol\":4110:4114  role */\n      dup5\n        /* \"contracts/extension/PermissionsEnumerable.sol\":4098:4115  roleMembers[role] */\n      dup2\n      mstore\n      0x20\n      add\n      swap1\n      dup2\n      mstore\n      0x20\n      add\n      0x00\n      keccak256\n        /* \"contracts/extension/PermissionsEnumerable.sol\":4098:4123  roleMembers[role].indexOf */\n      0x02\n      add\n        /* \"contracts/extension/PermissionsEnumerable.sol\":4098:4132  roleMembers[role].indexOf[account] */\n      0x00\n        /* \"contracts/extension/PermissionsEnumerable.sol\":4124:4131  account */\n      dup4\n        /* \"contracts/extension/PermissionsEnumerable.sol\":4098:4132  roleMembers[role].indexOf[account] */\n      0xffffffffffffffffffffffffffffffffffffffff\n      and\n      0xffffffffffffffffffffffffffffffffffffffff\n      and\n      dup2\n      mstore\n      0x20\n      add\n      swap1\n      dup2\n      mstore\n      0x20\n      add\n      0x00\n      keccak256\n      sload\n        /* \"contracts/extension/PermissionsEnumerable.sol\":4084:4132  uint256 idx = roleMembers[role].indexOf[account] */\n      swap1\n      pop\n        /* \"contracts/extension/PermissionsEnumerable.sol\":4150:4161  roleMembers */\n      0x02\n        /* \"contracts/extension/PermissionsEnumerable.sol\":4150:4167  roleMembers[role] */\n      0x00\n        /* \"contracts/extension/PermissionsEnumerable.sol\":4162:4166  role */\n      dup5\n        /* \"contracts/extension/PermissionsEnumerable.sol\":4150:4167  roleMembers[role] */\n      dup2\n      mstore\n      0x20\n      add\n      swap1\n      dup2\n      mstore\n      0x20\n      add\n      0x00\n      keccak256\n        /* \"contracts/extension/PermissionsEnumerable.sol\":4150:4175  roleMembers[role].members */\n      0x01\n      add\n        /* \"contracts/extension/PermissionsEnumerable.sol\":4150:4180  roleMembers[role].members[idx] */\n      0x00\n        /* \"contracts/extension/PermissionsEnumerable.sol\":4176:4179  idx */\n      dup3\n        /* \"contracts/extension/PermissionsEnumerable.sol\":4150:4180  roleMembers[role].members[idx] */\n      dup2\n      mstore\n      0x20\n      add\n      swap1\n      dup2\n      mstore\n      0x20\n      add\n      0x00\n      keccak256\n      0x00\n        /* \"contracts/extension/PermissionsEnumerable.sol\":4143:4180  delete roleMembers[role].members[idx] */\n      0x0100\n      exp\n      dup2\n      sload\n      swap1\n      0xffffffffffffffffffffffffffffffffffffffff\n      mul\n      not\n      and\n      swap1\n      sstore\n        /* \"contracts/extension/PermissionsEnumerable.sol\":4197:4208  roleMembers */\n      0x02\n        /* \"contracts/extension/PermissionsEnumerable.sol\":4197:4214  roleMembers[role] */\n      0x00\n        /* \"contracts/extension/PermissionsEnumerable.sol\":4209:4213  role */\n      dup5\n        /* \"contracts/extension/PermissionsEnumerable.sol\":4197:4214  roleMembers[role] */\n      dup2\n      mstore\n      0x20\n      add\n      swap1\n      dup2\n      mstore\n      0x20\n      add\n      0x00\n      keccak256\n        /* \"contracts/extension/PermissionsEnumerable.sol\":4197:4222  roleMembers[role].indexOf */\n      0x02\n      add\n        /* \"contracts/extension/PermissionsEnumerable.sol\":4197:4231  roleMembers[role].indexOf[account] */\n      0x00\n        /* \"contracts/extension/PermissionsEnumerable.sol\":4223:4230  account */\n      dup4\n        /* \"contracts/extension/PermissionsEnumerable.sol\":4197:4231  roleMembers[role].indexOf[account] */\n      0xffffffffffffffffffffffffffffffffffffffff\n      and\n      0xffffffffffffffffffffffffffffffffffffffff\n      and\n      dup2\n      mstore\n      0x20\n      add\n      swap1\n      dup2\n      mstore\n      0x20\n      add\n      0x00\n      keccak256\n        /* \"contracts/extension/PermissionsEnumerable.sol\":4190:4231  delete roleMembers[role].indexOf[account] */\n      0x00\n      swap1\n      sstore\n        /* \"contracts/extension/PermissionsEnumerable.sol\":4074:4238  {... */\n      pop\n        /* \"contracts/extension/PermissionsEnumerable.sol\":4011:4238  function _removeMember(bytes32 role, address account) internal {... */\n      pop\n      pop\n      jump\t// out\n        /* \"#utility.yul\":88:205   */\n    tag_117:\n        /* \"#utility.yul\":197:198   */\n      0x00\n        /* \"#utility.yul\":194:195   */\n      0x00\n        /* \"#utility.yul\":187:199   */\n      revert\n        /* \"#utility.yul\":334:411   */\n    tag_119:\n        /* \"#utility.yul\":371:378   */\n      0x00\n        /* \"#utility.yul\":400:405   */\n      dup2\n        /* \"#utility.yul\":389:405   */\n      swap1\n      pop\n        /* \"#utility.yul\":334:411   */\n      swap2\n      swap1\n      pop\n      jump\t// out\n        /* \"#utility.yul\":417:539   */\n    tag_120:\n        /* \"#utility.yul\":490:514   */\n      tag_141\n        /* \"#utility.yul\":508:513   */\n      dup2\n        /* \"#utility.yul\":490:514   */\n      tag_119\n      jump\t// in\n    tag_141:\n        /* \"#utility.yul\":483:488   */\n      dup2\n        /* \"#utility.yul\":480:515   */\n      eq\n        /* \"#utility.yul\":470:533   */\n      tag_142\n      jumpi\n        /* \"#utility.yul\":529:530   */\n      0x00\n        /* \"#utility.yul\":526:527   */\n      0x00\n        /* \"#utility.yul\":519:531   */\n      revert\n        /* \"#utility.yul\":470:533   */\n    tag_142:\n        /* \"#utility.yul\":417:539   */\n      pop\n      jump\t// out\n        /* \"#utility.yul\":545:684   */\n    tag_121:\n        /* \"#utility.yul\":591:596   */\n      0x00\n        /* \"#utility.yul\":629:635   */\n      dup2\n        /* \"#utility.yul\":616:636   */\n      calldataload\n        /* \"#utility.yul\":607:636   */\n      swap1\n      pop\n        /* \"#utility.yul\":645:678   */\n      tag_144\n        /* \"#utility.yul\":672:677   */\n      dup2\n        /* \"#utility.yul\":645:678   */\n      tag_120\n      jump\t// in\n    tag_144:\n        /* \"#utility.yul\":545:684   */\n      swap3\n      swap2\n      pop\n      pop\n      jump\t// out\n        /* \"#utility.yul\":690:1019   */\n    tag_15:\n        /* \"#utility.yul\":749:755   */\n      0x00\n        /* \"#utility.yul\":798:800   */\n      0x20\n        /* \"#utility.yul\":786:795   */\n      dup3\n        /* \"#utility.yul\":777:784   */\n      dup5\n        /* \"#utility.yul\":773:796   */\n      sub\n        /* \"#utility.yul\":769:801   */\n      slt\n        /* \"#utility.yul\":766:885   */\n      iszero\n      tag_146\n      jumpi\n        /* \"#utility.yul\":804:883   */\n      tag_147\n      tag_117\n      jump\t// in\n    tag_147:\n        /* \"#utility.yul\":766:885   */\n    tag_146:\n        /* \"#utility.yul\":924:925   */\n      0x00\n        /* \"#utility.yul\":949:1002   */\n      tag_148\n        /* \"#utility.yul\":994:1001   */\n      dup5\n        /* \"#utility.yul\":985:991   */\n      dup3\n        /* \"#utility.yul\":974:983   */\n      dup6\n        /* \"#utility.yul\":970:992   */\n      add\n        /* \"#utility.yul\":949:1002   */\n      tag_121\n      jump\t// in\n    tag_148:\n        /* \"#utility.yul\":939:1002   */\n      swap2\n      pop\n        /* \"#utility.yul\":895:1012   */\n      pop\n        /* \"#utility.yul\":690:1019   */\n      swap3\n      swap2\n      pop\n      pop\n      jump\t// out\n        /* \"#utility.yul\":1025:1143   */\n    tag_122:\n        /* \"#utility.yul\":1112:1136   */\n      tag_150\n        /* \"#utility.yul\":1130:1135   */\n      dup2\n        /* \"#utility.yul\":1112:1136   */\n      tag_119\n      jump\t// in\n    tag_150:\n        /* \"#utility.yul\":1107:1110   */\n      dup3\n        /* \"#utility.yul\":1100:1137   */\n      mstore\n        /* \"#utility.yul\":1025:1143   */\n      pop\n      pop\n      jump\t// out\n        /* \"#utility.yul\":1149:1371   */\n    tag_18:\n        /* \"#utility.yul\":1242:1246   */\n      0x00\n        /* \"#utility.yul\":1280:1282   */\n      0x20\n        /* \"#utility.yul\":1269:1278   */\n      dup3\n        /* \"#utility.yul\":1265:1283   */\n      add\n        /* \"#utility.yul\":1257:1283   */\n      swap1\n      pop\n        /* \"#utility.yul\":1293:1364   */\n      tag_152\n        /* \"#utility.yul\":1361:1362   */\n      0x00\n        /* \"#utility.yul\":1350:1359   */\n      dup4\n        /* \"#utility.yul\":1346:1363   */\n      add\n        /* \"#utility.yul\":1337:1343   */\n      dup5\n        /* \"#utility.yul\":1293:1364   */\n      tag_122\n      jump\t// in\n    tag_152:\n        /* \"#utility.yul\":1149:1371   */\n      swap3\n      swap2\n      pop\n      pop\n      jump\t// out\n        /* \"#utility.yul\":1377:1503   */\n    tag_123:\n        /* \"#utility.yul\":1414:1421   */\n      0x00\n        /* \"#utility.yul\":1454:1496   */\n      0xffffffffffffffffffffffffffffffffffffffff\n        /* \"#utility.yul\":1447:1452   */\n      dup3\n        /* \"#utility.yul\":1443:1497   */\n      and\n        /* \"#utility.yul\":1432:1497   */\n      swap1\n      pop\n        /* \"#utility.yul\":1377:1503   */\n      swap2\n      swap1\n      pop\n      jump\t// out\n        /* \"#utility.yul\":1509:1605   */\n    tag_124:\n        /* \"#utility.yul\":1546:1553   */\n      0x00\n        /* \"#utility.yul\":1575:1599   */\n      tag_155\n        /* \"#utility.yul\":1593:1598   */\n      dup3\n        /* \"#utility.yul\":1575:1599   */\n      tag_123\n      jump\t// in\n    tag_155:\n        /* \"#utility.yul\":1564:1599   */\n      swap1\n      pop\n        /* \"#utility.yul\":1509:1605   */\n      swap2\n      swap1\n      pop\n      jump\t// out\n        /* \"#utility.yul\":1611:1733   */\n    tag_125:\n        /* \"#utility.yul\":1684:1708   */\n      tag_157\n        /* \"#utility.yul\":1702:1707   */\n      dup2\n        /* \"#utility.yul\":1684:1708   */\n      tag_124\n      jump\t// in\n    tag_157:\n        /* \"#utility.yul\":1677:1682   */\n      dup2\n        /* \"#utility.yul\":1674:1709   */\n      eq\n        /* \"#utility.yul\":1664:1727   */\n      tag_158\n      jumpi\n        /* \"#utility.yul\":1723:1724   */\n      0x00\n        /* \"#utility.yul\":1720:1721   */\n      0x00\n        /* \"#utility.yul\":1713:1725   */\n      revert\n        /* \"#utility.yul\":1664:1727   */\n    tag_158:\n        /* \"#utility.yul\":1611:1733   */\n      pop\n      jump\t// out\n        /* \"#utility.yul\":1739:1878   */\n    tag_126:\n        /* \"#utility.yul\":1785:1790   */\n      0x00\n        /* \"#utility.yul\":1823:1829   */\n      dup2\n        /* \"#utility.yul\":1810:1830   */\n      calldataload\n        /* \"#utility.yul\":1801:1830   */\n      swap1\n      pop\n        /* \"#utility.yul\":1839:1872   */\n      tag_160\n        /* \"#utility.yul\":1866:1871   */\n      dup2\n        /* \"#utility.yul\":1839:1872   */\n      tag_125\n      jump\t// in\n    tag_160:\n        /* \"#utility.yul\":1739:1878   */\n      swap3\n      swap2\n      pop\n      pop\n      jump\t// out\n        /* \"#utility.yul\":1884:2358   */\n    tag_21:\n        /* \"#utility.yul\":1952:1958   */\n      0x00\n        /* \"#utility.yul\":1960:1966   */\n      0x00\n        /* \"#utility.yul\":2009:2011   */\n      0x40\n        /* \"#utility.yul\":1997:2006   */\n      dup4\n        /* \"#utility.yul\":1988:1995   */\n      dup6\n        /* \"#utility.yul\":1984:2007   */\n      sub\n        /* \"#utility.yul\":1980:2012   */\n      slt\n        /* \"#utility.yul\":1977:2096   */\n      iszero\n      tag_162\n      jumpi\n        /* \"#utility.yul\":2015:2094   */\n      tag_163\n      tag_117\n      jump\t// in\n    tag_163:\n        /* \"#utility.yul\":1977:2096   */\n    tag_162:\n        /* \"#utility.yul\":2135:2136   */\n      0x00\n        /* \"#utility.yul\":2160:2213   */\n      tag_164\n        /* \"#utility.yul\":2205:2212   */\n      dup6\n        /* \"#utility.yul\":2196:2202   */\n      dup3\n        /* \"#utility.yul\":2185:2194   */\n      dup7\n        /* \"#utility.yul\":2181:2203   */\n      add\n        /* \"#utility.yul\":2160:2213   */\n      tag_121\n      jump\t// in\n    tag_164:\n        /* \"#utility.yul\":2150:2213   */\n      swap3\n      pop\n        /* \"#utility.yul\":2106:2223   */\n      pop\n        /* \"#utility.yul\":2262:2264   */\n      0x20\n        /* \"#utility.yul\":2288:2341   */\n      tag_165\n        /* \"#utility.yul\":2333:2340   */\n      dup6\n        /* \"#utility.yul\":2324:2330   */\n      dup3\n        /* \"#utility.yul\":2313:2322   */\n      dup7\n        /* \"#utility.yul\":2309:2331   */\n      add\n        /* \"#utility.yul\":2288:2341   */\n      tag_126\n      jump\t// in\n    tag_165:\n        /* \"#utility.yul\":2278:2341   */\n      swap2\n      pop\n        /* \"#utility.yul\":2233:2351   */\n      pop\n        /* \"#utility.yul\":1884:2358   */\n      swap3\n      pop\n      swap3\n      swap1\n      pop\n      jump\t// out\n        /* \"#utility.yul\":2364:2441   */\n    tag_127:\n        /* \"#utility.yul\":2401:2408   */\n      0x00\n        /* \"#utility.yul\":2430:2435   */\n      dup2\n        /* \"#utility.yul\":2419:2435   */\n      swap1\n      pop\n        /* \"#utility.yul\":2364:2441   */\n      swap2\n      swap1\n      pop\n      jump\t// out\n        /* \"#utility.yul\":2447:2569   */\n    tag_128:\n        /* \"#utility.yul\":2520:2544   */\n      tag_168\n        /* \"#utility.yul\":2538:2543   */\n      dup2\n        /* \"#utility.yul\":2520:2544   */\n      tag_127\n      jump\t// in\n    tag_168:\n        /* \"#utility.yul\":2513:2518   */\n      dup2\n        /* \"#utility.yul\":2510:2545   */\n      eq\n        /* \"#utility.yul\":2500:2563   */\n      tag_169\n      jumpi\n        /* \"#utility.yul\":2559:2560   */\n      0x00\n        /* \"#utility.yul\":2556:2557   */\n      0x00\n        /* \"#utility.yul\":2549:2561   */\n      revert\n        /* \"#utility.yul\":2500:2563   */\n    tag_169:\n        /* \"#utility.yul\":2447:2569   */\n      pop\n      jump\t// out\n        /* \"#utility.yul\":2575:2714   */\n    tag_129:\n        /* \"#utility.yul\":2621:2626   */\n      0x00\n        /* \"#utility.yul\":2659:2665   */\n      dup2\n        /* \"#utility.yul\":2646:2666   */\n      calldataload\n        /* \"#utility.yul\":2637:2666   */\n      swap1\n      pop\n        /* \"#utility.yul\":2675:2708   */\n      tag_171\n        /* \"#utility.yul\":2702:2707   */\n      dup2\n        /* \"#utility.yul\":2675:2708   */\n      tag_128\n      jump\t// in\n    tag_171:\n        /* \"#utility.yul\":2575:2714   */\n      swap3\n      swap2\n      pop\n      pop\n      jump\t// out\n        /* \"#utility.yul\":2720:3194   */\n    tag_28:\n        /* \"#utility.yul\":2788:2794   */\n      0x00\n        /* \"#utility.yul\":2796:2802   */\n      0x00\n        /* \"#utility.yul\":2845:2847   */\n      0x40\n        /* \"#utility.yul\":2833:2842   */\n      dup4\n        /* \"#utility.yul\":2824:2831   */\n      dup6\n        /* \"#utility.yul\":2820:2843   */\n      sub\n        /* \"#utility.yul\":2816:2848   */\n      slt\n        /* \"#utility.yul\":2813:2932   */\n      iszero\n      tag_173\n      jumpi\n        /* \"#utility.yul\":2851:2930   */\n      tag_174\n      tag_117\n      jump\t// in\n    tag_174:\n        /* \"#utility.yul\":2813:2932   */\n    tag_173:\n        /* \"#utility.yul\":2971:2972   */\n      0x00\n        /* \"#utility.yul\":2996:3049   */\n      tag_175\n        /* \"#utility.yul\":3041:3048   */\n      dup6\n        /* \"#utility.yul\":3032:3038   */\n      dup3\n        /* \"#utility.yul\":3021:3030   */\n      dup7\n        /* \"#utility.yul\":3017:3039   */\n      add\n        /* \"#utility.yul\":2996:3049   */\n      tag_121\n      jump\t// in\n    tag_175:\n        /* \"#utility.yul\":2986:3049   */\n      swap3\n      pop\n        /* \"#utility.yul\":2942:3059   */\n      pop\n        /* \"#utility.yul\":3098:3100   */\n      0x20\n        /* \"#utility.yul\":3124:3177   */\n      tag_176\n        /* \"#utility.yul\":3169:3176   */\n      dup6\n        /* \"#utility.yul\":3160:3166   */\n      dup3\n        /* \"#utility.yul\":3149:3158   */\n      dup7\n        /* \"#utility.yul\":3145:3167   */\n      add\n        /* \"#utility.yul\":3124:3177   */\n      tag_129\n      jump\t// in\n    tag_176:\n        /* \"#utility.yul\":3114:3177   */\n      swap2\n      pop\n        /* \"#utility.yul\":3069:3187   */\n      pop\n        /* \"#utility.yul\":2720:3194   */\n      swap3\n      pop\n      swap3\n      swap1\n      pop\n      jump\t// out\n        /* \"#utility.yul\":3200:3318   */\n    tag_130:\n        /* \"#utility.yul\":3287:3311   */\n      tag_178\n        /* \"#utility.yul\":3305:3310   */\n      dup2\n        /* \"#utility.yul\":3287:3311   */\n      tag_124\n      jump\t// in\n    tag_178:\n        /* \"#utility.yul\":3282:3285   */\n      dup3\n        /* \"#utility.yul\":3275:3312   */\n      mstore\n        /* \"#utility.yul\":3200:3318   */\n      pop\n      pop\n      jump\t// out\n        /* \"#utility.yul\":3324:3546   */\n    tag_31:\n        /* \"#utility.yul\":3417:3421   */\n      0x00\n        /* \"#utility.yul\":3455:3457   */\n      0x20\n        /* \"#utility.yul\":3444:3453   */\n      dup3\n        /* \"#utility.yul\":3440:3458   */\n      add\n        /* \"#utility.yul\":3432:3458   */\n      swap1\n      pop\n        /* \"#utility.yul\":3468:3539   */\n      tag_180\n        /* \"#utility.yul\":3536:3537   */\n      0x00\n        /* \"#utility.yul\":3525:3534   */\n      dup4\n        /* \"#utility.yul\":3521:3538   */\n      add\n        /* \"#utility.yul\":3512:3518   */\n      dup5\n        /* \"#utility.yul\":3468:3539   */\n      tag_130\n      jump\t// in\n    tag_180:\n        /* \"#utility.yul\":3324:3546   */\n      swap3\n      swap2\n      pop\n      pop\n      jump\t// out\n        /* \"#utility.yul\":3552:3642   */\n    tag_131:\n        /* \"#utility.yul\":3586:3593   */\n      0x00\n        /* \"#utility.yul\":3629:3634   */\n      dup2\n        /* \"#utility.yul\":3622:3635   */\n      iszero\n        /* \"#utility.yul\":3615:3636   */\n      iszero\n        /* \"#utility.yul\":3604:3636   */\n      swap1\n      pop\n        /* \"#utility.yul\":3552:3642   */\n      swap2\n      swap1\n      pop\n      jump\t// out\n        /* \"#utility.yul\":3648:3757   */\n    tag_132:\n        /* \"#utility.yul\":3729:3750   */\n      tag_183\n        /* \"#utility.yul\":3744:3749   */\n      dup2\n        /* \"#utility.yul\":3729:3750   */\n      tag_131\n      jump\t// in\n    tag_183:\n        /* \"#utility.yul\":3724:3727   */\n      dup3\n        /* \"#utility.yul\":3717:3751   */\n      mstore\n        /* \"#utility.yul\":3648:3757   */\n      pop\n      pop\n      jump\t// out\n        /* \"#utility.yul\":3763:3973   */\n    tag_36:\n        /* \"#utility.yul\":3850:3854   */\n      0x00\n        /* \"#utility.yul\":3888:3890   */\n      0x20\n        /* \"#utility.yul\":3877:3886   */\n      dup3\n        /* \"#utility.yul\":3873:3891   */\n      add\n        /* \"#utility.yul\":3865:3891   */\n      swap1\n      pop\n        /* \"#utility.yul\":3901:3966   */\n      tag_185\n        /* \"#utility.yul\":3963:3964   */\n      0x00\n        /* \"#utility.yul\":3952:3961   */\n      dup4\n        /* \"#utility.yul\":3948:3965   */\n      add\n        /* \"#utility.yul\":3939:3945   */\n      dup5\n        /* \"#utility.yul\":3901:3966   */\n      tag_132\n      jump\t// in\n    tag_185:\n        /* \"#utility.yul\":3763:3973   */\n      swap3\n      swap2\n      pop\n      pop\n      jump\t// out\n        /* \"#utility.yul\":3979:4097   */\n    tag_133:\n        /* \"#utility.yul\":4066:4090   */\n      tag_187\n        /* \"#utility.yul\":4084:4089   */\n      dup2\n        /* \"#utility.yul\":4066:4090   */\n      tag_127\n      jump\t// in\n    tag_187:\n        /* \"#utility.yul\":4061:4064   */\n      dup3\n        /* \"#utility.yul\":4054:4091   */\n      mstore\n        /* \"#utility.yul\":3979:4097   */\n      pop\n      pop\n      jump\t// out\n        /* \"#utility.yul\":4103:4325   */\n    tag_48:\n        /* \"#utility.yul\":4196:4200   */\n      0x00\n        /* \"#utility.yul\":4234:4236   */\n      0x20\n        /* \"#utility.yul\":4223:4232   */\n      dup3\n        /* \"#utility.yul\":4219:4237   */\n      add\n        /* \"#utility.yul\":4211:4237   */\n      swap1\n      pop\n        /* \"#utility.yul\":4247:4318   */\n      tag_189\n        /* \"#utility.yul\":4315:4316   */\n      0x00\n        /* \"#utility.yul\":4304:4313   */\n      dup4\n        /* \"#utility.yul\":4300:4317   */\n      add\n        /* \"#utility.yul\":4291:4297   */\n      dup5\n        /* \"#utility.yul\":4247:4318   */\n      tag_133\n      jump\t// in\n    tag_189:\n        /* \"#utility.yul\":4103:4325   */\n      swap3\n      swap2\n      pop\n      pop\n      jump\t// out\n        /* \"#utility.yul\":4331:4663   */\n    tag_58:\n        /* \"#utility.yul\":4452:4456   */\n      0x00\n        /* \"#utility.yul\":4490:4492   */\n      0x40\n        /* \"#utility.yul\":4479:4488   */\n      dup3\n        /* \"#utility.yul\":4475:4493   */\n      add\n        /* \"#utility.yul\":4467:4493   */\n      swap1\n      pop\n        /* \"#utility.yul\":4503:4574   */\n      tag_191\n        /* \"#utility.yul\":4571:4572   */\n      0x00\n        /* \"#utility.yul\":4560:4569   */\n      dup4\n        /* \"#utility.yul\":4556:4573   */\n      add\n        /* \"#utility.yul\":4547:4553   */\n      dup6\n        /* \"#utility.yul\":4503:4574   */\n      tag_130\n      jump\t// in\n    tag_191:\n        /* \"#utility.yul\":4584:4656   */\n      tag_192\n        /* \"#utility.yul\":4652:4654   */\n      0x20\n        /* \"#utility.yul\":4641:4650   */\n      dup4\n        /* \"#utility.yul\":4637:4655   */\n      add\n        /* \"#utility.yul\":4628:4634   */\n      dup5\n        /* \"#utility.yul\":4584:4656   */\n      tag_122\n      jump\t// in\n    tag_192:\n        /* \"#utility.yul\":4331:4663   */\n      swap4\n      swap3\n      pop\n      pop\n      pop\n      jump\t// out\n        /* \"#utility.yul\":4669:5001   */\n    tag_64:\n        /* \"#utility.yul\":4790:4794   */\n      0x00\n        /* \"#utility.yul\":4828:4830   */\n      0x40\n        /* \"#utility.yul\":4817:4826   */\n      dup3\n        /* \"#utility.yul\":4813:4831   */\n      add\n        /* \"#utility.yul\":4805:4831   */\n      swap1\n      pop\n        /* \"#utility.yul\":4841:4912   */\n      tag_194\n        /* \"#utility.yul\":4909:4910   */\n      0x00\n        /* \"#utility.yul\":4898:4907   */\n      dup4\n        /* \"#utility.yul\":4894:4911   */\n      add\n        /* \"#utility.yul\":4885:4891   */\n      dup6\n        /* \"#utility.yul\":4841:4912   */\n      tag_130\n      jump\t// in\n    tag_194:\n        /* \"#utility.yul\":4922:4994   */\n      tag_195\n        /* \"#utility.yul\":4990:4992   */\n      0x20\n        /* \"#utility.yul\":4979:4988   */\n      dup4\n        /* \"#utility.yul\":4975:4993   */\n      add\n        /* \"#utility.yul\":4966:4972   */\n      dup5\n        /* \"#utility.yul\":4922:4994   */\n      tag_130\n      jump\t// in\n    tag_195:\n        /* \"#utility.yul\":4669:5001   */\n      swap4\n      swap3\n      pop\n      pop\n      pop\n      jump\t// out\n        /* \"#utility.yul\":5007:5187   */\n    tag_134:\n        /* \"#utility.yul\":5055:5132   */\n      0x4e487b7100000000000000000000000000000000000000000000000000000000\n        /* \"#utility.yul\":5052:5053   */\n      0x00\n        /* \"#utility.yul\":5045:5133   */\n      mstore\n        /* \"#utility.yul\":5152:5156   */\n      0x11\n        /* \"#utility.yul\":5149:5150   */\n      0x04\n        /* \"#utility.yul\":5142:5157   */\n      mstore\n        /* \"#utility.yul\":5176:5180   */\n      0x24\n        /* \"#utility.yul\":5173:5174   */\n      0x00\n        /* \"#utility.yul\":5166:5181   */\n      revert\n        /* \"#utility.yul\":5193:5384   */\n    tag_74:\n        /* \"#utility.yul\":5233:5236   */\n      0x00\n        /* \"#utility.yul\":5252:5272   */\n      tag_198\n        /* \"#utility.yul\":5270:5271   */\n      dup3\n        /* \"#utility.yul\":5252:5272   */\n      tag_127\n      jump\t// in\n    tag_198:\n        /* \"#utility.yul\":5247:5272   */\n      swap2\n      pop\n        /* \"#utility.yul\":5286:5306   */\n      tag_199\n        /* \"#utility.yul\":5304:5305   */\n      dup4\n        /* \"#utility.yul\":5286:5306   */\n      tag_127\n      jump\t// in\n    tag_199:\n        /* \"#utility.yul\":5281:5306   */\n      swap3\n      pop\n        /* \"#utility.yul\":5329:5330   */\n      dup3\n        /* \"#utility.yul\":5326:5327   */\n      dup3\n        /* \"#utility.yul\":5322:5331   */\n      add\n        /* \"#utility.yul\":5315:5331   */\n      swap1\n      pop\n        /* \"#utility.yul\":5350:5353   */\n      dup1\n        /* \"#utility.yul\":5347:5348   */\n      dup3\n        /* \"#utility.yul\":5344:5354   */\n      gt\n        /* \"#utility.yul\":5341:5377   */\n      iszero\n      tag_200\n      jumpi\n        /* \"#utility.yul\":5357:5375   */\n      tag_201\n      tag_134\n      jump\t// in\n    tag_201:\n        /* \"#utility.yul\":5341:5377   */\n    tag_200:\n        /* \"#utility.yul\":5193:5384   */\n      swap3\n      swap2\n      pop\n      pop\n      jump\t// out\n\n    auxdata: 0xa26469706673582212206a86cb833cb0af6b15f53d9e7e198b4e49ef4b022bdafbaf61e9325fb78546c564736f6c634300081e0033\n}\n",
				"bytecode": {
					"linkReferences": {},
					"object": "6080604052348015600e575f5ffd5b50610e648061001c5f395ff3fe608060405234801561000f575f5ffd5b5060043610610091575f3560e01c806391d148541161006457806391d148541461012d578063a217fddf1461015d578063a32fa5b31461017b578063ca15c873146101ab578063d547741f146101db57610091565b8063248a9ca3146100955780632f2ff15d146100c557806336568abe146100e15780639010d07c146100fd575b5f5ffd5b6100af60048036038101906100aa9190610ba1565b6101f7565b6040516100bc9190610bdb565b60405180910390f35b6100df60048036038101906100da9190610c4e565b610211565b005b6100fb60048036038101906100f69190610c4e565b6102d6565b005b61011760048036038101906101129190610cbf565b610356565b6040516101249190610d0c565b60405180910390f35b61014760048036038101906101429190610c4e565b6104f1565b6040516101549190610d3f565b60405180910390f35b610165610552565b6040516101729190610bdb565b60405180910390f35b61019560048036038101906101909190610c4e565b610558565b6040516101a29190610d3f565b60405180910390f35b6101c560048036038101906101c09190610ba1565b61061f565b6040516101d29190610d67565b60405180910390f35b6101f560048036038101906101f09190610c4e565b610703565b005b5f60015f8381526020019081526020015f20549050919050565b61022c60015f8481526020019081526020015f20543361072c565b5f5f8381526020019081526020015f205f8273ffffffffffffffffffffffffffffffffffffffff1673ffffffffffffffffffffffffffffffffffffffff1681526020019081526020015f205f9054906101000a900460ff16156102c85780826040517fd49c166a0000000000000000000000000000000000000000000000000000000081526004016102bf929190610d80565b60405180910390fd5b6102d282826107cb565b5050565b8073ffffffffffffffffffffffffffffffffffffffff163373ffffffffffffffffffffffffffffffffffffffff16146103485733816040517f4169c62200000000000000000000000000000000000000000000000000000000815260040161033f929190610da7565b60405180910390fd5b61035282826107e3565b5050565b5f5f60025f8581526020019081526020015f205f015490505f5f5f90505b828110156104e7575f73ffffffffffffffffffffffffffffffffffffffff1660025f8881526020019081526020015f206001015f8381526020019081526020015f205f9054906101000a900473ffffffffffffffffffffffffffffffffffffffff1673ffffffffffffffffffffffffffffffffffffffff1614610459578482036104455760025f8781526020019081526020015f206001015f8281526020019081526020015f205f9054906101000a900473ffffffffffffffffffffffffffffffffffffffff1693505050506104eb565b6001826104529190610dfb565b91506104d3565b610463865f6104f1565b80156104bd575060025f8781526020019081526020015f206002015f5f73ffffffffffffffffffffffffffffffffffffffff1673ffffffffffffffffffffffffffffffffffffffff1681526020019081526020015f205481145b156104d2576001826104cf9190610dfb565b91505b5b6001816104e09190610dfb565b9050610374565b5050505b92915050565b5f5f5f8481526020019081526020015f205f8373ffffffffffffffffffffffffffffffffffffffff1673ffffffffffffffffffffffffffffffffffffffff1681526020019081526020015f205f9054906101000a900460ff16905092915050565b5f5f1b81565b5f5f5f8481526020019081526020015f205f5f73ffffffffffffffffffffffffffffffffffffffff1673ffffffffffffffffffffffffffffffffffffffff1681526020019081526020015f205f9054906101000a900460ff16610614575f5f8481526020019081526020015f205f8373ffffffffffffffffffffffffffffffffffffffff1673ffffffffffffffffffffffffffffffffffffffff1681526020019081526020015f205f9054906101000a900460ff169050610619565b600190505b92915050565b5f5f60025f8481526020019081526020015f205f015490505f5f90505b818110156106dd575f73ffffffffffffffffffffffffffffffffffffffff1660025f8681526020019081526020015f206001015f8381526020019081526020015f205f9054906101000a900473ffffffffffffffffffffffffffffffffffffffff1673ffffffffffffffffffffffffffffffffffffffff16146106c9576001836106c69190610dfb565b92505b6001816106d69190610dfb565b905061063c565b506106e8835f6104f1565b156106fd576001826106fa9190610dfb565b91505b50919050565b61071e60015f8481526020019081526020015f20543361072c565b61072882826107e3565b5050565b5f5f8381526020019081526020015f205f8273ffffffffffffffffffffffffffffffffffffffff1673ffffffffffffffffffffffffffffffffffffffff1681526020019081526020015f205f9054906101000a900460ff166107c75780826040517f0878b1060000000000000000000000000000000000000000000000000000000081526004016107be929190610d80565b60405180910390fd5b5050565b6107d582826107fb565b6107df82826108bd565b5050565b6107ed82826109b8565b6107f78282610a7b565b5050565b60015f5f8481526020019081526020015f205f8373ffffffffffffffffffffffffffffffffffffffff1673ffffffffffffffffffffffffffffffffffffffff1681526020019081526020015f205f6101000a81548160ff0219169083151502179055503373ffffffffffffffffffffffffffffffffffffffff168173ffffffffffffffffffffffffffffffffffffffff16837f2f8788117e7eff1d82e926ec794901d17c78024a50270940304540a733656f0d60405160405180910390a45050565b5f60025f8481526020019081526020015f205f01549050600160025f8581526020019081526020015f205f015f8282546108f79190610dfb565b925050819055508160025f8581526020019081526020015f206001015f8381526020019081526020015f205f6101000a81548173ffffffffffffffffffffffffffffffffffffffff021916908373ffffffffffffffffffffffffffffffffffffffff1602179055508060025f8581526020019081526020015f206002015f8473ffffffffffffffffffffffffffffffffffffffff1673ffffffffffffffffffffffffffffffffffffffff1681526020019081526020015f2081905550505050565b6109c2828261072c565b5f5f8381526020019081526020015f205f8273ffffffffffffffffffffffffffffffffffffffff1673ffffffffffffffffffffffffffffffffffffffff1681526020019081526020015f205f6101000a81549060ff02191690553373ffffffffffffffffffffffffffffffffffffffff168173ffffffffffffffffffffffffffffffffffffffff16837ff6391f5c32d9c69d2a47ea670b442974b53935d1edc7fd64eb21e047a839171b60405160405180910390a45050565b5f60025f8481526020019081526020015f206002015f8373ffffffffffffffffffffffffffffffffffffffff1673ffffffffffffffffffffffffffffffffffffffff1681526020019081526020015f2054905060025f8481526020019081526020015f206001015f8281526020019081526020015f205f6101000a81549073ffffffffffffffffffffffffffffffffffffffff021916905560025f8481526020019081526020015f206002015f8373ffffffffffffffffffffffffffffffffffffffff1673ffffffffffffffffffffffffffffffffffffffff1681526020019081526020015f205f9055505050565b5f5ffd5b5f819050919050565b610b8081610b6e565b8114610b8a575f5ffd5b50565b5f81359050610b9b81610b77565b92915050565b5f60208284031215610bb657610bb5610b6a565b5b5f610bc384828501610b8d565b91505092915050565b610bd581610b6e565b82525050565b5f602082019050610bee5f830184610bcc565b92915050565b5f73ffffffffffffffffffffffffffffffffffffffff82169050919050565b5f610c1d82610bf4565b9050919050565b610c2d81610c13565b8114610c37575f5ffd5b50565b5f81359050610c4881610c24565b92915050565b5f5f60408385031215610c6457610c63610b6a565b5b5f610c7185828601610b8d565b9250506020610c8285828601610c3a565b9150509250929050565b5f819050919050565b610c9e81610c8c565b8114610ca8575f5ffd5b50565b5f81359050610cb981610c95565b92915050565b5f5f60408385031215610cd557610cd4610b6a565b5b5f610ce285828601610b8d565b9250506020610cf385828601610cab565b9150509250929050565b610d0681610c13565b82525050565b5f602082019050610d1f5f830184610cfd565b92915050565b5f8115159050919050565b610d3981610d25565b82525050565b5f602082019050610d525f830184610d30565b92915050565b610d6181610c8c565b82525050565b5f602082019050610d7a5f830184610d58565b92915050565b5f604082019050610d935f830185610cfd565b610da06020830184610bcc565b9392505050565b5f604082019050610dba5f830185610cfd565b610dc76020830184610cfd565b9392505050565b7f4e487b71000000000000000000000000000000000000000000000000000000005f52601160045260245ffd5b5f610e0582610c8c565b9150610e1083610c8c565b9250828201905080821115610e2857610e27610dce565b5b9291505056fea26469706673582212206a86cb833cb0af6b15f53d9e7e198b4e49ef4b022bdafbaf61e9325fb78546c564736f6c634300081e0033",
					"opcodes": "PUSH1 0x80 PUSH1 0x40 MSTORE CALLVALUE DUP1 ISZERO PUSH1 0xE JUMPI PUSH0 PUSH0 REVERT JUMPDEST POP PUSH2 0xE64 DUP1 PUSH2 0x1C PUSH0 CODECOPY PUSH0 RETURN INVALID PUSH1 0x80 PUSH1 0x40 MSTORE CALLVALUE DUP1 ISZERO PUSH2 0xF JUMPI PUSH0 PUSH0 REVERT JUMPDEST POP PUSH1 0x4 CALLDATASIZE LT PUSH2 0x91 JUMPI PUSH0 CALLDATALOAD PUSH1 0xE0 SHR DUP1 PUSH4 0x91D14854 GT PUSH2 0x64 JUMPI DUP1 PUSH4 0x91D14854 EQ PUSH2 0x12D JUMPI DUP1 PUSH4 0xA217FDDF EQ PUSH2 0x15D JUMPI DUP1 PUSH4 0xA32FA5B3 EQ PUSH2 0x17B JUMPI DUP1 PUSH4 0xCA15C873 EQ PUSH2 0x1AB JUMPI DUP1 PUSH4 0xD547741F EQ PUSH2 0x1DB JUMPI PUSH2 0x91 JUMP JUMPDEST DUP1 PUSH4 0x248A9CA3 EQ PUSH2 0x95 JUMPI DUP1 PUSH4 0x2F2FF15D EQ PUSH2 0xC5 JUMPI DUP1 PUSH4 0x36568ABE EQ PUSH2 0xE1 JUMPI DUP1 PUSH4 0x9010D07C EQ PUSH2 0xFD JUMPI JUMPDEST PUSH0 PUSH0 REVERT JUMPDEST PUSH2 0xAF PUSH1 0x4 DUP1 CALLDATASIZE SUB DUP2 ADD SWAP1 PUSH2 0xAA SWAP2 SWAP1 PUSH2 0xBA1 JUMP JUMPDEST PUSH2 0x1F7 JUMP JUMPDEST PUSH1 0x40 MLOAD PUSH2 0xBC SWAP2 SWAP1 PUSH2 0xBDB JUMP JUMPDEST PUSH1 0x40 MLOAD DUP1 SWAP2 SUB SWAP1 RETURN JUMPDEST PUSH2 0xDF PUSH1 0x4 DUP1 CALLDATASIZE SUB DUP2 ADD SWAP1 PUSH2 0xDA SWAP2 SWAP1 PUSH2 0xC4E JUMP JUMPDEST PUSH2 0x211 JUMP JUMPDEST STOP JUMPDEST PUSH2 0xFB PUSH1 0x4 DUP1 CALLDATASIZE SUB DUP2 ADD SWAP1 PUSH2 0xF6 SWAP2 SWAP1 PUSH2 0xC4E JUMP JUMPDEST PUSH2 0x2D6 JUMP JUMPDEST STOP JUMPDEST PUSH2 0x117 PUSH1 0x4 DUP1 CALLDATASIZE SUB DUP2 ADD SWAP1 PUSH2 0x112 SWAP2 SWAP1 PUSH2 0xCBF JUMP JUMPDEST PUSH2 0x356 JUMP JUMPDEST PUSH1 0x40 MLOAD PUSH2 0x124 SWAP2 SWAP1 PUSH2 0xD0C JUMP JUMPDEST PUSH1 0x40 MLOAD DUP1 SWAP2 SUB SWAP1 RETURN JUMPDEST PUSH2 0x147 PUSH1 0x4 DUP1 CALLDATASIZE SUB DUP2 ADD SWAP1 PUSH2 0x142 SWAP2 SWAP1 PUSH2 0xC4E JUMP JUMPDEST PUSH2 0x4F1 JUMP JUMPDEST PUSH1 0x40 MLOAD PUSH2 0x154 SWAP2 SWAP1 PUSH2 0xD3F JUMP JUMPDEST PUSH1 0x40 MLOAD DUP1 SWAP2 SUB SWAP1 RETURN JUMPDEST PUSH2 0x165 PUSH2 0x552 JUMP JUMPDEST PUSH1 0x40 MLOAD PUSH2 0x172 SWAP2 SWAP1 PUSH2 0xBDB JUMP JUMPDEST PUSH1 0x40 MLOAD DUP1 SWAP2 SUB SWAP1 RETURN JUMPDEST PUSH2 0x195 PUSH1 0x4 DUP1 CALLDATASIZE SUB DUP2 ADD SWAP1 PUSH2 0x190 SWAP2 SWAP1 PUSH2 0xC4E JUMP JUMPDEST PUSH2 0x558 JUMP JUMPDEST PUSH1 0x40 MLOAD PUSH2 0x1A2 SWAP2 SWAP1 PUSH2 0xD3F JUMP JUMPDEST PUSH1 0x40 MLOAD DUP1 SWAP2 SUB SWAP1 RETURN JUMPDEST PUSH2 0x1C5 PUSH1 0x4 DUP1 CALLDATASIZE SUB DUP2 ADD SWAP1 PUSH2 0x1C0 SWAP2 SWAP1 PUSH2 0xBA1 JUMP JUMPDEST PUSH2 0x61F JUMP JUMPDEST PUSH1 0x40 MLOAD PUSH2 0x1D2 SWAP2 SWAP1 PUSH2 0xD67 JUMP JUMPDEST PUSH1 0x40 MLOAD DUP1 SWAP2 SUB SWAP1 RETURN JUMPDEST PUSH2 0x1F5 PUSH1 0x4 DUP1 CALLDATASIZE SUB DUP2 ADD SWAP1 PUSH2 0x1F0 SWAP2 SWAP1 PUSH2 0xC4E JUMP JUMPDEST PUSH2 0x703 JUMP JUMPDEST STOP JUMPDEST PUSH0 PUSH1 0x1 PUSH0 DUP4 DUP2 MSTORE PUSH1 0x20 ADD SWAP1 DUP2 MSTORE PUSH1 0x20 ADD PUSH0 KECCAK256 SLOAD SWAP1 POP SWAP2 SWAP1 POP JUMP JUMPDEST PUSH2 0x22C PUSH1 0x1 PUSH0 DUP5 DUP2 MSTORE PUSH1 0x20 ADD SWAP1 DUP2 MSTORE PUSH1 0x20 ADD PUSH0 KECCAK256 SLOAD CALLER PUSH2 0x72C JUMP JUMPDEST PUSH0 PUSH0 DUP4 DUP2 MSTORE PUSH1 0x20 ADD SWAP1 DUP2 MSTORE PUSH1 0x20 ADD PUSH0 KECCAK256 PUSH0 DUP3 PUSH20 0xFFFFFFFFFFFFFFFFFFFFFFFFFFFFFFFFFFFFFFFF AND PUSH20 0xFFFFFFFFFFFFFFFFFFFFFFFFFFFFFFFFFFFFFFFF AND DUP2 MSTORE PUSH1 0x20 ADD SWAP1 DUP2 MSTORE PUSH1 0x20 ADD PUSH0 KECCAK256 PUSH0 SWAP1 SLOAD SWAP1 PUSH2 0x100 EXP SWAP1 DIV PUSH1 0xFF AND ISZERO PUSH2 0x2C8 JUMPI DUP1 DUP3 PUSH1 0x40 MLOAD PUSH32 0xD49C166A00000000000000000000000000000000000000000000000000000000 DUP2 MSTORE PUSH1 0x4 ADD PUSH2 0x2BF SWAP3 SWAP2 SWAP1 PUSH2 0xD80 JUMP JUMPDEST PUSH1 0x40 MLOAD DUP1 SWAP2 SUB SWAP1 REVERT JUMPDEST PUSH2 0x2D2 DUP3 DUP3 PUSH2 0x7CB JUMP JUMPDEST POP POP JUMP JUMPDEST DUP1 PUSH20 0xFFFFFFFFFFFFFFFFFFFFFFFFFFFFFFFFFFFFFFFF AND CALLER PUSH20 0xFFFFFFFFFFFFFFFFFFFFFFFFFFFFFFFFFFFFFFFF AND EQ PUSH2 0x348 JUMPI CALLER DUP2 PUSH1 0x40 MLOAD PUSH32 0x4169C62200000000000000000000000000000000000000000000000000000000 DUP2 MSTORE PUSH1 0x4 ADD PUSH2 0x33F SWAP3 SWAP2 SWAP1 PUSH2 0xDA7 JUMP JUMPDEST PUSH1 0x40 MLOAD DUP1 SWAP2 SUB SWAP1 REVERT JUMPDEST PUSH2 0x352 DUP3 DUP3 PUSH2 0x7E3 JUMP JUMPDEST POP POP JUMP JUMPDEST PUSH0 PUSH0 PUSH1 0x2 PUSH0 DUP6 DUP2 MSTORE PUSH1 0x20 ADD SWAP1 DUP2 MSTORE PUSH1 0x20 ADD PUSH0 KECCAK256 PUSH0 ADD SLOAD SWAP1 POP PUSH0 PUSH0 PUSH0 SWAP1 POP JUMPDEST DUP3 DUP2 LT ISZERO PUSH2 0x4E7 JUMPI PUSH0 PUSH20 0xFFFFFFFFFFFFFFFFFFFFFFFFFFFFFFFFFFFFFFFF AND PUSH1 0x2 PUSH0 DUP9 DUP2 MSTORE PUSH1 0x20 ADD SWAP1 DUP2 MSTORE PUSH1 0x20 ADD PUSH0 KECCAK256 PUSH1 0x1 ADD PUSH0 DUP4 DUP2 MSTORE PUSH1 0x20 ADD SWAP1 DUP2 MSTORE PUSH1 0x20 ADD PUSH0 KECCAK256 PUSH0 SWAP1 SLOAD SWAP1 PUSH2 0x100 EXP SWAP1 DIV PUSH20 0xFFFFFFFFFFFFFFFFFFFFFFFFFFFFFFFFFFFFFFFF AND PUSH20 0xFFFFFFFFFFFFFFFFFFFFFFFFFFFFFFFFFFFFFFFF AND EQ PUSH2 0x459 JUMPI DUP5 DUP3 SUB PUSH2 0x445 JUMPI PUSH1 0x2 PUSH0 DUP8 DUP2 MSTORE PUSH1 0x20 ADD SWAP1 DUP2 MSTORE PUSH1 0x20 ADD PUSH0 KECCAK256 PUSH1 0x1 ADD PUSH0 DUP3 DUP2 MSTORE PUSH1 0x20 ADD SWAP1 DUP2 MSTORE PUSH1 0x20 ADD PUSH0 KECCAK256 PUSH0 SWAP1 SLOAD SWAP1 PUSH2 0x100 EXP SWAP1 DIV PUSH20 0xFFFFFFFFFFFFFFFFFFFFFFFFFFFFFFFFFFFFFFFF AND SWAP4 POP POP POP POP PUSH2 0x4EB JUMP JUMPDEST PUSH1 0x1 DUP3 PUSH2 0x452 SWAP2 SWAP1 PUSH2 0xDFB JUMP JUMPDEST SWAP2 POP PUSH2 0x4D3 JUMP JUMPDEST PUSH2 0x463 DUP7 PUSH0 PUSH2 0x4F1 JUMP JUMPDEST DUP1 ISZERO PUSH2 0x4BD JUMPI POP PUSH1 0x2 PUSH0 DUP8 DUP2 MSTORE PUSH1 0x20 ADD SWAP1 DUP2 MSTORE PUSH1 0x20 ADD PUSH0 KECCAK256 PUSH1 0x2 ADD PUSH0 PUSH0 PUSH20 0xFFFFFFFFFFFFFFFFFFFFFFFFFFFFFFFFFFFFFFFF AND PUSH20 0xFFFFFFFFFFFFFFFFFFFFFFFFFFFFFFFFFFFFFFFF AND DUP2 MSTORE PUSH1 0x20 ADD SWAP1 DUP2 MSTORE PUSH1 0x20 ADD PUSH0 KECCAK256 SLOAD DUP2 EQ JUMPDEST ISZERO PUSH2 0x4D2 JUMPI PUSH1 0x1 DUP3 PUSH2 0x4CF SWAP2 SWAP1 PUSH2 0xDFB JUMP JUMPDEST SWAP2 POP JUMPDEST JUMPDEST PUSH1 0x1 DUP2 PUSH2 0x4E0 SWAP2 SWAP1 PUSH2 0xDFB JUMP JUMPDEST SWAP1 POP PUSH2 0x374 JUMP JUMPDEST POP POP POP JUMPDEST SWAP3 SWAP2 POP POP JUMP JUMPDEST PUSH0 PUSH0 PUSH0 DUP5 DUP2 MSTORE PUSH1 0x20 ADD SWAP1 DUP2 MSTORE PUSH1 0x20 ADD PUSH0 KECCAK256 PUSH0 DUP4 PUSH20 0xFFFFFFFFFFFFFFFFFFFFFFFFFFFFFFFFFFFFFFFF AND PUSH20 0xFFFFFFFFFFFFFFFFFFFFFFFFFFFFFFFFFFFFFFFF AND DUP2 MSTORE PUSH1 0x20 ADD SWAP1 DUP2 MSTORE PUSH1 0x20 ADD PUSH0 KECCAK256 PUSH0 SWAP1 SLOAD SWAP1 PUSH2 0x100 EXP SWAP1 DIV PUSH1 0xFF AND SWAP1 POP SWAP3 SWAP2 POP POP JUMP JUMPDEST PUSH0 PUSH0 SHL DUP2 JUMP JUMPDEST PUSH0 PUSH0 PUSH0 DUP5 DUP2 MSTORE PUSH1 0x20 ADD SWAP1 DUP2 MSTORE PUSH1 0x20 ADD PUSH0 KECCAK256 PUSH0 PUSH0 PUSH20 0xFFFFFFFFFFFFFFFFFFFFFFFFFFFFFFFFFFFFFFFF AND PUSH20 0xFFFFFFFFFFFFFFFFFFFFFFFFFFFFFFFFFFFFFFFF AND DUP2 MSTORE PUSH1 0x20 ADD SWAP1 DUP2 MSTORE PUSH1 0x20 ADD PUSH0 KECCAK256 PUSH0 SWAP1 SLOAD SWAP1 PUSH2 0x100 EXP SWAP1 DIV PUSH1 0xFF AND PUSH2 0x614 JUMPI PUSH0 PUSH0 DUP5 DUP2 MSTORE PUSH1 0x20 ADD SWAP1 DUP2 MSTORE PUSH1 0x20 ADD PUSH0 KECCAK256 PUSH0 DUP4 PUSH20 0xFFFFFFFFFFFFFFFFFFFFFFFFFFFFFFFFFFFFFFFF AND PUSH20 0xFFFFFFFFFFFFFFFFFFFFFFFFFFFFFFFFFFFFFFFF AND DUP2 MSTORE PUSH1 0x20 ADD SWAP1 DUP2 MSTORE PUSH1 0x20 ADD PUSH0 KECCAK256 PUSH0 SWAP1 SLOAD SWAP1 PUSH2 0x100 EXP SWAP1 DIV PUSH1 0xFF AND SWAP1 POP PUSH2 0x619 JUMP JUMPDEST PUSH1 0x1 SWAP1 POP JUMPDEST SWAP3 SWAP2 POP POP JUMP JUMPDEST PUSH0 PUSH0 PUSH1 0x2 PUSH0 DUP5 DUP2 MSTORE PUSH1 0x20 ADD SWAP1 DUP2 MSTORE PUSH1 0x20 ADD PUSH0 KECCAK256 PUSH0 ADD SLOAD SWAP1 POP PUSH0 PUSH0 SWAP1 POP JUMPDEST DUP2 DUP2 LT ISZERO PUSH2 0x6DD JUMPI PUSH0 PUSH20 0xFFFFFFFFFFFFFFFFFFFFFFFFFFFFFFFFFFFFFFFF AND PUSH1 0x2 PUSH0 DUP7 DUP2 MSTORE PUSH1 0x20 ADD SWAP1 DUP2 MSTORE PUSH1 0x20 ADD PUSH0 KECCAK256 PUSH1 0x1 ADD PUSH0 DUP4 DUP2 MSTORE PUSH1 0x20 ADD SWAP1 DUP2 MSTORE PUSH1 0x20 ADD PUSH0 KECCAK256 PUSH0 SWAP1 SLOAD SWAP1 PUSH2 0x100 EXP SWAP1 DIV PUSH20 0xFFFFFFFFFFFFFFFFFFFFFFFFFFFFFFFFFFFFFFFF AND PUSH20 0xFFFFFFFFFFFFFFFFFFFFFFFFFFFFFFFFFFFFFFFF AND EQ PUSH2 0x6C9 JUMPI PUSH1 0x1 DUP4 PUSH2 0x6C6 SWAP2 SWAP1 PUSH2 0xDFB JUMP JUMPDEST SWAP3 POP JUMPDEST PUSH1 0x1 DUP2 PUSH2 0x6D6 SWAP2 SWAP1 PUSH2 0xDFB JUMP JUMPDEST SWAP1 POP PUSH2 0x63C JUMP JUMPDEST POP PUSH2 0x6E8 DUP4 PUSH0 PUSH2 0x4F1 JUMP JUMPDEST ISZERO PUSH2 0x6FD JUMPI PUSH1 0x1 DUP3 PUSH2 0x6FA SWAP2 SWAP1 PUSH2 0xDFB JUMP JUMPDEST SWAP2 POP JUMPDEST POP SWAP2 SWAP1 POP JUMP JUMPDEST PUSH2 0x71E PUSH1 0x1 PUSH0 DUP5 DUP2 MSTORE PUSH1 0x20 ADD SWAP1 DUP2 MSTORE PUSH1 0x20 ADD PUSH0 KECCAK256 SLOAD CALLER PUSH2 0x72C JUMP JUMPDEST PUSH2 0x728 DUP3 DUP3 PUSH2 0x7E3 JUMP JUMPDEST POP POP JUMP JUMPDEST PUSH0 PUSH0 DUP4 DUP2 MSTORE PUSH1 0x20 ADD SWAP1 DUP2 MSTORE PUSH1 0x20 ADD PUSH0 KECCAK256 PUSH0 DUP3 PUSH20 0xFFFFFFFFFFFFFFFFFFFFFFFFFFFFFFFFFFFFFFFF AND PUSH20 0xFFFFFFFFFFFFFFFFFFFFFFFFFFFFFFFFFFFFFFFF AND DUP2 MSTORE PUSH1 0x20 ADD SWAP1 DUP2 MSTORE PUSH1 0x20 ADD PUSH0 KECCAK256 PUSH0 SWAP1 SLOAD SWAP1 PUSH2 0x100 EXP SWAP1 DIV PUSH1 0xFF AND PUSH2 0x7C7 JUMPI DUP1 DUP3 PUSH1 0x40 MLOAD PUSH32 0x878B10600000000000000000000000000000000000000000000000000000000 DUP2 MSTORE PUSH1 0x4 ADD PUSH2 0x7BE SWAP3 SWAP2 SWAP1 PUSH2 0xD80 JUMP JUMPDEST PUSH1 0x40 MLOAD DUP1 SWAP2 SUB SWAP1 REVERT JUMPDEST POP POP JUMP JUMPDEST PUSH2 0x7D5 DUP3 DUP3 PUSH2 0x7FB JUMP JUMPDEST PUSH2 0x7DF DUP3 DUP3 PUSH2 0x8BD JUMP JUMPDEST POP POP JUMP JUMPDEST PUSH2 0x7ED DUP3 DUP3 PUSH2 0x9B8 JUMP JUMPDEST PUSH2 0x7F7 DUP3 DUP3 PUSH2 0xA7B JUMP JUMPDEST POP POP JUMP JUMPDEST PUSH1 0x1 PUSH0 PUSH0 DUP5 DUP2 MSTORE PUSH1 0x20 ADD SWAP1 DUP2 MSTORE PUSH1 0x20 ADD PUSH0 KECCAK256 PUSH0 DUP4 PUSH20 0xFFFFFFFFFFFFFFFFFFFFFFFFFFFFFFFFFFFFFFFF AND PUSH20 0xFFFFFFFFFFFFFFFFFFFFFFFFFFFFFFFFFFFFFFFF AND DUP2 MSTORE PUSH1 0x20 ADD SWAP1 DUP2 MSTORE PUSH1 0x20 ADD PUSH0 KECCAK256 PUSH0 PUSH2 0x100 EXP DUP2 SLOAD DUP2 PUSH1 0xFF MUL NOT AND SWAP1 DUP4 ISZERO ISZERO MUL OR SWAP1 SSTORE POP CALLER PUSH20 0xFFFFFFFFFFFFFFFFFFFFFFFFFFFFFFFFFFFFFFFF AND DUP2 PUSH20 0xFFFFFFFFFFFFFFFFFFFFFFFFFFFFFFFFFFFFFFFF AND DUP4 PUSH32 0x2F8788117E7EFF1D82E926EC794901D17C78024A50270940304540A733656F0D PUSH1 0x40 MLOAD PUSH1 0x40 MLOAD DUP1 SWAP2 SUB SWAP1 LOG4 POP POP JUMP JUMPDEST PUSH0 PUSH1 0x2 PUSH0 DUP5 DUP2 MSTORE PUSH1 0x20 ADD SWAP1 DUP2 MSTORE PUSH1 0x20 ADD PUSH0 KECCAK256 PUSH0 ADD SLOAD SWAP1 POP PUSH1 0x1 PUSH1 0x2 PUSH0 DUP6 DUP2 MSTORE PUSH1 0x20 ADD SWAP1 DUP2 MSTORE PUSH1 0x20 ADD PUSH0 KECCAK256 PUSH0 ADD PUSH0 DUP3 DUP3 SLOAD PUSH2 0x8F7 SWAP2 SWAP1 PUSH2 0xDFB JUMP JUMPDEST SWAP3 POP POP DUP2 SWAP1 SSTORE POP DUP2 PUSH1 0x2 PUSH0 DUP6 DUP2 MSTORE PUSH1 0x20 ADD SWAP1 DUP2 MSTORE PUSH1 0x20 ADD PUSH0 KECCAK256 PUSH1 0x1 ADD PUSH0 DUP4 DUP2 MSTORE PUSH1 0x20 ADD SWAP1 DUP2 MSTORE PUSH1 0x20 ADD PUSH0 KECCAK256 PUSH0 PUSH2 0x100 EXP DUP2 SLOAD DUP2 PUSH20 0xFFFFFFFFFFFFFFFFFFFFFFFFFFFFFFFFFFFFFFFF MUL NOT AND SWAP1 DUP4 PUSH20 0xFFFFFFFFFFFFFFFFFFFFFFFFFFFFFFFFFFFFFFFF AND MUL OR SWAP1 SSTORE POP DUP1 PUSH1 0x2 PUSH0 DUP6 DUP2 MSTORE PUSH1 0x20 ADD SWAP1 DUP2 MSTORE PUSH1 0x20 ADD PUSH0 KECCAK256 PUSH1 0x2 ADD PUSH0 DUP5 PUSH20 0xFFFFFFFFFFFFFFFFFFFFFFFFFFFFFFFFFFFFFFFF AND PUSH20 0xFFFFFFFFFFFFFFFFFFFFFFFFFFFFFFFFFFFFFFFF AND DUP2 MSTORE PUSH1 0x20 ADD SWAP1 DUP2 MSTORE PUSH1 0x20 ADD PUSH0 KECCAK256 DUP2 SWAP1 SSTORE POP POP POP POP JUMP JUMPDEST PUSH2 0x9C2 DUP3 DUP3 PUSH2 0x72C JUMP JUMPDEST PUSH0 PUSH0 DUP4 DUP2 MSTORE PUSH1 0x20 ADD SWAP1 DUP2 MSTORE PUSH1 0x20 ADD PUSH0 KECCAK256 PUSH0 DUP3 PUSH20 0xFFFFFFFFFFFFFFFFFFFFFFFFFFFFFFFFFFFFFFFF AND PUSH20 0xFFFFFFFFFFFFFFFFFFFFFFFFFFFFFFFFFFFFFFFF AND DUP2 MSTORE PUSH1 0x20 ADD SWAP1 DUP2 MSTORE PUSH1 0x20 ADD PUSH0 KECCAK256 PUSH0 PUSH2 0x100 EXP DUP2 SLOAD SWAP1 PUSH1 0xFF MUL NOT AND SWAP1 SSTORE CALLER PUSH20 0xFFFFFFFFFFFFFFFFFFFFFFFFFFFFFFFFFFFFFFFF AND DUP2 PUSH20 0xFFFFFFFFFFFFFFFFFFFFFFFFFFFFFFFFFFFFFFFF AND DUP4 PUSH32 0xF6391F5C32D9C69D2A47EA670B442974B53935D1EDC7FD64EB21E047A839171B PUSH1 0x40 MLOAD PUSH1 0x40 MLOAD DUP1 SWAP2 SUB SWAP1 LOG4 POP POP JUMP JUMPDEST PUSH0 PUSH1 0x2 PUSH0 DUP5 DUP2 MSTORE PUSH1 0x20 ADD SWAP1 DUP2 MSTORE PUSH1 0x20 ADD PUSH0 KECCAK256 PUSH1 0x2 ADD PUSH0 DUP4 PUSH20 0xFFFFFFFFFFFFFFFFFFFFFFFFFFFFFFFFFFFFFFFF AND PUSH20 0xFFFFFFFFFFFFFFFFFFFFFFFFFFFFFFFFFFFFFFFF AND DUP2 MSTORE PUSH1 0x20 ADD SWAP1 DUP2 MSTORE PUSH1 0x20 ADD PUSH0 KECCAK256 SLOAD SWAP1 POP PUSH1 0x2 PUSH0 DUP5 DUP2 MSTORE PUSH1 0x20 ADD SWAP1 DUP2 MSTORE PUSH1 0x20 ADD PUSH0 KECCAK256 PUSH1 0x1 ADD PUSH0 DUP3 DUP2 MSTORE PUSH1 0x20 ADD SWAP1 DUP2 MSTORE PUSH1 0x20 ADD PUSH0 KECCAK256 PUSH0 PUSH2 0x100 EXP DUP2 SLOAD SWAP1 PUSH20 0xFFFFFFFFFFFFFFFFFFFFFFFFFFFFFFFFFFFFFFFF MUL NOT AND SWAP1 SSTORE PUSH1 0x2 PUSH0 DUP5 DUP2 MSTORE PUSH1 0x20 ADD SWAP1 DUP2 MSTORE PUSH1 0x20 ADD PUSH0 KECCAK256 PUSH1 0x2 ADD PUSH0 DUP4 PUSH20 0xFFFFFFFFFFFFFFFFFFFFFFFFFFFFFFFFFFFFFFFF AND PUSH20 0xFFFFFFFFFFFFFFFFFFFFFFFFFFFFFFFFFFFFFFFF AND DUP2 MSTORE PUSH1 0x20 ADD SWAP1 DUP2 MSTORE PUSH1 0x20 ADD PUSH0 KECCAK256 PUSH0 SWAP1 SSTORE POP POP POP JUMP JUMPDEST PUSH0 PUSH0 REVERT JUMPDEST PUSH0 DUP2 SWAP1 POP SWAP2 SWAP1 POP JUMP JUMPDEST PUSH2 0xB80 DUP2 PUSH2 0xB6E JUMP JUMPDEST DUP2 EQ PUSH2 0xB8A JUMPI PUSH0 PUSH0 REVERT JUMPDEST POP JUMP JUMPDEST PUSH0 DUP2 CALLDATALOAD SWAP1 POP PUSH2 0xB9B DUP2 PUSH2 0xB77 JUMP JUMPDEST SWAP3 SWAP2 POP POP JUMP JUMPDEST PUSH0 PUSH1 0x20 DUP3 DUP5 SUB SLT ISZERO PUSH2 0xBB6 JUMPI PUSH2 0xBB5 PUSH2 0xB6A JUMP JUMPDEST JUMPDEST PUSH0 PUSH2 0xBC3 DUP5 DUP3 DUP6 ADD PUSH2 0xB8D JUMP JUMPDEST SWAP2 POP POP SWAP3 SWAP2 POP POP JUMP JUMPDEST PUSH2 0xBD5 DUP2 PUSH2 0xB6E JUMP JUMPDEST DUP3 MSTORE POP POP JUMP JUMPDEST PUSH0 PUSH1 0x20 DUP3 ADD SWAP1 POP PUSH2 0xBEE PUSH0 DUP4 ADD DUP5 PUSH2 0xBCC JUMP JUMPDEST SWAP3 SWAP2 POP POP JUMP JUMPDEST PUSH0 PUSH20 0xFFFFFFFFFFFFFFFFFFFFFFFFFFFFFFFFFFFFFFFF DUP3 AND SWAP1 POP SWAP2 SWAP1 POP JUMP JUMPDEST PUSH0 PUSH2 0xC1D DUP3 PUSH2 0xBF4 JUMP JUMPDEST SWAP1 POP SWAP2 SWAP1 POP JUMP JUMPDEST PUSH2 0xC2D DUP2 PUSH2 0xC13 JUMP JUMPDEST DUP2 EQ PUSH2 0xC37 JUMPI PUSH0 PUSH0 REVERT JUMPDEST POP JUMP JUMPDEST PUSH0 DUP2 CALLDATALOAD SWAP1 POP PUSH2 0xC48 DUP2 PUSH2 0xC24 JUMP JUMPDEST SWAP3 SWAP2 POP POP JUMP JUMPDEST PUSH0 PUSH0 PUSH1 0x40 DUP4 DUP6 SUB SLT ISZERO PUSH2 0xC64 JUMPI PUSH2 0xC63 PUSH2 0xB6A JUMP JUMPDEST JUMPDEST PUSH0 PUSH2 0xC71 DUP6 DUP3 DUP7 ADD PUSH2 0xB8D JUMP JUMPDEST SWAP3 POP POP PUSH1 0x20 PUSH2 0xC82 DUP6 DUP3 DUP7 ADD PUSH2 0xC3A JUMP JUMPDEST SWAP2 POP POP SWAP3 POP SWAP3 SWAP1 POP JUMP JUMPDEST PUSH0 DUP2 SWAP1 POP SWAP2 SWAP1 POP JUMP JUMPDEST PUSH2 0xC9E DUP2 PUSH2 0xC8C JUMP JUMPDEST DUP2 EQ PUSH2 0xCA8 JUMPI PUSH0 PUSH0 REVERT JUMPDEST POP JUMP JUMPDEST PUSH0 DUP2 CALLDATALOAD SWAP1 POP PUSH2 0xCB9 DUP2 PUSH2 0xC95 JUMP JUMPDEST SWAP3 SWAP2 POP POP JUMP JUMPDEST PUSH0 PUSH0 PUSH1 0x40 DUP4 DUP6 SUB SLT ISZERO PUSH2 0xCD5 JUMPI PUSH2 0xCD4 PUSH2 0xB6A JUMP JUMPDEST JUMPDEST PUSH0 PUSH2 0xCE2 DUP6 DUP3 DUP7 ADD PUSH2 0xB8D JUMP JUMPDEST SWAP3 POP POP PUSH1 0x20 PUSH2 0xCF3 DUP6 DUP3 DUP7 ADD PUSH2 0xCAB JUMP JUMPDEST SWAP2 POP POP SWAP3 POP SWAP3 SWAP1 POP JUMP JUMPDEST PUSH2 0xD06 DUP2 PUSH2 0xC13 JUMP JUMPDEST DUP3 MSTORE POP POP JUMP JUMPDEST PUSH0 PUSH1 0x20 DUP3 ADD SWAP1 POP PUSH2 0xD1F PUSH0 DUP4 ADD DUP5 PUSH2 0xCFD JUMP JUMPDEST SWAP3 SWAP2 POP POP JUMP JUMPDEST PUSH0 DUP2 ISZERO ISZERO SWAP1 POP SWAP2 SWAP1 POP JUMP JUMPDEST PUSH2 0xD39 DUP2 PUSH2 0xD25 JUMP JUMPDEST DUP3 MSTORE POP POP JUMP JUMPDEST PUSH0 PUSH1 0x20 DUP3 ADD SWAP1 POP PUSH2 0xD52 PUSH0 DUP4 ADD DUP5 PUSH2 0xD30 JUMP JUMPDEST SWAP3 SWAP2 POP POP JUMP JUMPDEST PUSH2 0xD61 DUP2 PUSH2 0xC8C JUMP JUMPDEST DUP3 MSTORE POP POP JUMP JUMPDEST PUSH0 PUSH1 0x20 DUP3 ADD SWAP1 POP PUSH2 0xD7A PUSH0 DUP4 ADD DUP5 PUSH2 0xD58 JUMP JUMPDEST SWAP3 SWAP2 POP POP JUMP JUMPDEST PUSH0 PUSH1 0x40 DUP3 ADD SWAP1 POP PUSH2 0xD93 PUSH0 DUP4 ADD DUP6 PUSH2 0xCFD JUMP JUMPDEST PUSH2 0xDA0 PUSH1 0x20 DUP4 ADD DUP5 PUSH2 0xBCC JUMP JUMPDEST SWAP4 SWAP3 POP POP POP JUMP JUMPDEST PUSH0 PUSH1 0x40 DUP3 ADD SWAP1 POP PUSH2 0xDBA PUSH0 DUP4 ADD DUP6 PUSH2 0xCFD JUMP JUMPDEST PUSH2 0xDC7 PUSH1 0x20 DUP4 ADD DUP5 PUSH2 0xCFD JUMP JUMPDEST SWAP4 SWAP3 POP POP POP JUMP JUMPDEST PUSH32 0x4E487B7100000000000000000000000000000000000000000000000000000000 PUSH0 MSTORE PUSH1 0x11 PUSH1 0x4 MSTORE PUSH1 0x24 PUSH0 REVERT JUMPDEST PUSH0 PUSH2 0xE05 DUP3 PUSH2 0xC8C JUMP JUMPDEST SWAP2 POP PUSH2 0xE10 DUP4 PUSH2 0xC8C JUMP JUMPDEST SWAP3 POP DUP3 DUP3 ADD SWAP1 POP DUP1 DUP3 GT ISZERO PUSH2 0xE28 JUMPI PUSH2 0xE27 PUSH2 0xDCE JUMP JUMPDEST JUMPDEST SWAP3 SWAP2 POP POP JUMP INVALID LOG2 PUSH5 0x6970667358 0x22 SLT KECCAK256 PUSH11 0x86CB833CB0AF6B15F53D9E PUSH31 0x198B4E49EF4B022BDAFBAF61E9325FB78546C564736F6C634300081E003300 "
				},
				"gasEstimates": {
					"creation": {
						"codeDepositCost": "736800",
						"executionCost": "771",
						"totalCost": "737571"
					},
					"external": {
						"DEFAULT_ADMIN_ROLE()": "351",
						"getRoleAdmin(bytes32)": "infinite",
						"getRoleMember(bytes32,uint256)": "infinite",
						"getRoleMemberCount(bytes32)": "infinite",
						"grantRole(bytes32,address)": "infinite",
						"hasRole(bytes32,address)": "3115",
						"hasRoleWithSwitch(bytes32,address)": "5484",
						"renounceRole(bytes32,address)": "infinite",
						"revokeRole(bytes32,address)": "infinite"
					},
					"internal": {
						"_addMember(bytes32,address)": "infinite",
						"_removeMember(bytes32,address)": "31878",
						"_revokeRole(bytes32,address)": "infinite",
						"_setupRole(bytes32,address)": "infinite"
					}
				},
				"methodIdentifiers": {
					"DEFAULT_ADMIN_ROLE()": "a217fddf",
					"getRoleAdmin(bytes32)": "248a9ca3",
					"getRoleMember(bytes32,uint256)": "9010d07c",
					"getRoleMemberCount(bytes32)": "ca15c873",
					"grantRole(bytes32,address)": "2f2ff15d",
					"hasRole(bytes32,address)": "91d14854",
					"hasRoleWithSwitch(bytes32,address)": "a32fa5b3",
					"renounceRole(bytes32,address)": "36568abe",
					"revokeRole(bytes32,address)": "d547741f"
				}
			},
			"storageLayout": {
				"storage": [
					{
						"astId": 34,
						"contract": "contracts/extension/PermissionsEnumerable.sol:PermissionsEnumerable",
						"label": "_hasRole",
						"offset": 0,
						"slot": "0",
						"type": "t_mapping(t_bytes32,t_mapping(t_address,t_bool))"
					},
					{
						"astId": 39,
						"contract": "contracts/extension/PermissionsEnumerable.sol:PermissionsEnumerable",
						"label": "_getRoleAdmin",
						"offset": 0,
						"slot": "1",
						"type": "t_mapping(t_bytes32,t_bytes32)"
					},
					{
						"astId": 353,
						"contract": "contracts/extension/PermissionsEnumerable.sol:PermissionsEnumerable",
						"label": "roleMembers",
						"offset": 0,
						"slot": "2",
						"type": "t_mapping(t_bytes32,t_struct(RoleMembers)347_storage)"
					}
				],
				"types": {
					"t_address": {
						"encoding": "inplace",
						"label": "address",
						"numberOfBytes": "20"
					},
					"t_bool": {
						"encoding": "inplace",
						"label": "bool",
						"numberOfBytes": "1"
					},
					"t_bytes32": {
						"encoding": "inplace",
						"label": "bytes32",
						"numberOfBytes": "32"
					},
					"t_mapping(t_address,t_bool)": {
						"encoding": "mapping",
						"key": "t_address",
						"label": "mapping(address => bool)",
						"numberOfBytes": "32",
						"value": "t_bool"
					},
					"t_mapping(t_address,t_uint256)": {
						"encoding": "mapping",
						"key": "t_address",
						"label": "mapping(address => uint256)",
						"numberOfBytes": "32",
						"value": "t_uint256"
					},
					"t_mapping(t_bytes32,t_bytes32)": {
						"encoding": "mapping",
						"key": "t_bytes32",
						"label": "mapping(bytes32 => bytes32)",
						"numberOfBytes": "32",
						"value": "t_bytes32"
					},
					"t_mapping(t_bytes32,t_mapping(t_address,t_bool))": {
						"encoding": "mapping",
						"key": "t_bytes32",
						"label": "mapping(bytes32 => mapping(address => bool))",
						"numberOfBytes": "32",
						"value": "t_mapping(t_address,t_bool)"
					},
					"t_mapping(t_bytes32,t_struct(RoleMembers)347_storage)": {
						"encoding": "mapping",
						"key": "t_bytes32",
						"label": "mapping(bytes32 => struct PermissionsEnumerable.RoleMembers)",
						"numberOfBytes": "32",
						"value": "t_struct(RoleMembers)347_storage"
					},
					"t_mapping(t_uint256,t_address)": {
						"encoding": "mapping",
						"key": "t_uint256",
						"label": "mapping(uint256 => address)",
						"numberOfBytes": "32",
						"value": "t_address"
					},
					"t_struct(RoleMembers)347_storage": {
						"encoding": "inplace",
						"label": "struct PermissionsEnumerable.RoleMembers",
						"members": [
							{
								"astId": 338,
								"contract": "contracts/extension/PermissionsEnumerable.sol:PermissionsEnumerable",
								"label": "index",
								"offset": 0,
								"slot": "0",
								"type": "t_uint256"
							},
							{
								"astId": 342,
								"contract": "contracts/extension/PermissionsEnumerable.sol:PermissionsEnumerable",
								"label": "members",
								"offset": 0,
								"slot": "1",
								"type": "t_mapping(t_uint256,t_address)"
							},
							{
								"astId": 346,
								"contract": "contracts/extension/PermissionsEnumerable.sol:PermissionsEnumerable",
								"label": "indexOf",
								"offset": 0,
								"slot": "2",
								"type": "t_mapping(t_address,t_uint256)"
							}
						],
						"numberOfBytes": "96"
					},
					"t_uint256": {
						"encoding": "inplace",
						"label": "uint256",
						"numberOfBytes": "32"
					}
				}
			},
			"userdoc": {
				"kind": "user",
				"methods": {
					"getRoleAdmin(bytes32)": {
						"notice": "Returns the admin role that controls the specified role."
					},
					"getRoleMember(bytes32,uint256)": {
						"notice": "Returns the role-member from a list of members for a role,                  at a given index."
					},
					"getRoleMemberCount(bytes32)": {
						"notice": "Returns total number of accounts that have a role."
					},
					"grantRole(bytes32,address)": {
						"notice": "Grants a role to an account, if not previously granted."
					},
					"hasRole(bytes32,address)": {
						"notice": "Checks whether an account has a particular role."
					},
					"hasRoleWithSwitch(bytes32,address)": {
						"notice": "Checks whether an account has a particular role;                  role restrictions can be swtiched on and off."
					},
					"renounceRole(bytes32,address)": {
						"notice": "Revokes role from the account."
					},
					"revokeRole(bytes32,address)": {
						"notice": "Revokes role from an account."
					}
				},
				"version": 1
			}
		}
	}
}