{
	"contracts/extension/Multicall.sol": {
		"Multicall": {
			"abi": [
				{
					"inputs": [
						{
							"internalType": "bytes[]",
							"name": "data",
							"type": "bytes[]"
						}
					],
					"name": "multicall",
					"outputs": [
						{
							"internalType": "bytes[]",
							"name": "results",
							"type": "bytes[]"
						}
					],
					"stateMutability": "nonpayable",
					"type": "function"
				}
			],
			"devdoc": {
				"details": "Provides a function to batch together multiple calls in a single external call. _Available since v4.1._",
				"kind": "dev",
				"methods": {
					"multicall(bytes[])": {
						"details": "Receives and executes a batch of function calls on this contract.",
						"params": {
							"data": "The bytes data that makes up the batch of function calls to execute."
						},
						"returns": {
							"results": "The bytes data that makes up the result of the batch of function calls executed."
						}
					}
				},
				"version": 1
			},
			"evm": {
				"assembly": "    /* \"contracts/extension/Multicall.sol\":279:1434  contract Multicall is IMulticall {... */\n  mstore(0x40, 0x80)\n  callvalue\n  dup1\n  iszero\n  tag_1\n  jumpi\n  revert(0x00, 0x00)\ntag_1:\n  pop\n  dataSize(sub_0)\n  dup1\n  dataOffset(sub_0)\n  0x00\n  codecopy\n  0x00\n  return\nstop\n\nsub_0: assembly {\n        /* \"contracts/extension/Multicall.sol\":279:1434  contract Multicall is IMulticall {... */\n      mstore(0x40, 0x80)\n      callvalue\n      dup1\n      iszero\n      tag_1\n      jumpi\n      revert(0x00, 0x00)\n    tag_1:\n      pop\n      jumpi(tag_2, lt(calldatasize, 0x04))\n      shr(0xe0, calldataload(0x00))\n      dup1\n      0xac9650d8\n      eq\n      tag_3\n      jumpi\n    tag_2:\n      revert(0x00, 0x00)\n        /* \"contracts/extension/Multicall.sol\":696:1263  function multicall(bytes[] calldata data) external returns (bytes[] memory results) {... */\n    tag_3:\n      tag_4\n      0x04\n      dup1\n      calldatasize\n      sub\n      dup2\n      add\n      swap1\n      tag_5\n      swap2\n      swap1\n      tag_6\n      jump\t// in\n    tag_5:\n      tag_7\n      jump\t// in\n    tag_4:\n      mload(0x40)\n      tag_8\n      swap2\n      swap1\n      tag_9\n      jump\t// in\n    tag_8:\n      mload(0x40)\n      dup1\n      swap2\n      sub\n      swap1\n      return\n    tag_7:\n        /* \"contracts/extension/Multicall.sol\":756:778  bytes[] memory results */\n      0x60\n        /* \"contracts/extension/Multicall.sol\":812:816  data */\n      dup3\n      dup3\n        /* \"contracts/extension/Multicall.sol\":812:823  data.length */\n      swap1\n      pop\n        /* \"contracts/extension/Multicall.sol\":800:824  new bytes[](data.length) */\n      0xffffffffffffffff\n      dup2\n      gt\n      iszero\n      tag_11\n      jumpi\n      tag_12\n      tag_13\n      jump\t// in\n    tag_12:\n    tag_11:\n      mload(0x40)\n      swap1\n      dup1\n      dup3\n      mstore\n      dup1\n      0x20\n      mul\n      0x20\n      add\n      dup3\n      add\n      0x40\n      mstore\n      dup1\n      iszero\n      tag_14\n      jumpi\n      dup2\n      0x20\n      add\n    tag_15:\n      0x60\n      dup2\n      mstore\n      0x20\n      add\n      swap1\n      0x01\n      swap1\n      sub\n      swap1\n      dup2\n      tag_15\n      jumpi\n      swap1\n      pop\n    tag_14:\n      pop\n        /* \"contracts/extension/Multicall.sol\":790:824  results = new bytes[](data.length) */\n      swap1\n      pop\n        /* \"contracts/extension/Multicall.sol\":834:848  address sender */\n      0x00\n        /* \"contracts/extension/Multicall.sol\":851:863  _msgSender() */\n      tag_16\n        /* \"contracts/extension/Multicall.sol\":851:861  _msgSender */\n      tag_17\n        /* \"contracts/extension/Multicall.sol\":851:863  _msgSender() */\n      jump\t// in\n    tag_16:\n        /* \"contracts/extension/Multicall.sol\":834:863  address sender = _msgSender() */\n      swap1\n      pop\n        /* \"contracts/extension/Multicall.sol\":873:889  bool isForwarder */\n      0x00\n        /* \"contracts/extension/Multicall.sol\":906:912  sender */\n      dup2\n        /* \"contracts/extension/Multicall.sol\":892:912  msg.sender != sender */\n      0xffffffffffffffffffffffffffffffffffffffff\n      and\n        /* \"contracts/extension/Multicall.sol\":892:902  msg.sender */\n      caller\n        /* \"contracts/extension/Multicall.sol\":892:912  msg.sender != sender */\n      0xffffffffffffffffffffffffffffffffffffffff\n      and\n      eq\n      iszero\n        /* \"contracts/extension/Multicall.sol\":873:912  bool isForwarder = msg.sender != sender */\n      swap1\n      pop\n        /* \"contracts/extension/Multicall.sol\":927:936  uint256 i */\n      0x00\n        /* \"contracts/extension/Multicall.sol\":939:940  0 */\n      0x00\n        /* \"contracts/extension/Multicall.sol\":927:940  uint256 i = 0 */\n      swap1\n      pop\n        /* \"contracts/extension/Multicall.sol\":922:1233  for (uint256 i = 0; i < data.length; i++) {... */\n    tag_18:\n        /* \"contracts/extension/Multicall.sol\":946:950  data */\n      dup6\n      dup6\n        /* \"contracts/extension/Multicall.sol\":946:957  data.length */\n      swap1\n      pop\n        /* \"contracts/extension/Multicall.sol\":942:943  i */\n      dup2\n        /* \"contracts/extension/Multicall.sol\":942:957  i < data.length */\n      lt\n        /* \"contracts/extension/Multicall.sol\":922:1233  for (uint256 i = 0; i < data.length; i++) {... */\n      iszero\n      tag_19\n      jumpi\n        /* \"contracts/extension/Multicall.sol\":982:993  isForwarder */\n      dup2\n        /* \"contracts/extension/Multicall.sol\":978:1223  if (isForwarder) {... */\n      iszero\n      tag_21\n      jumpi\n        /* \"contracts/extension/Multicall.sol\":1026:1104  Address.functionDelegateCall(address(this), abi.encodePacked(data[i], sender)) */\n      tag_22\n        /* \"contracts/extension/Multicall.sol\":1063:1067  this */\n      address\n        /* \"contracts/extension/Multicall.sol\":1087:1091  data */\n      dup8\n      dup8\n        /* \"contracts/extension/Multicall.sol\":1092:1093  i */\n      dup5\n        /* \"contracts/extension/Multicall.sol\":1087:1094  data[i] */\n      dup2\n      dup2\n      lt\n      tag_23\n      jumpi\n      tag_24\n      tag_25\n      jump\t// in\n    tag_24:\n    tag_23:\n      swap1\n      pop\n      0x20\n      mul\n      dup2\n      add\n      swap1\n      tag_26\n      swap2\n      swap1\n      tag_27\n      jump\t// in\n    tag_26:\n        /* \"contracts/extension/Multicall.sol\":1096:1102  sender */\n      dup7\n        /* \"contracts/extension/Multicall.sol\":1070:1103  abi.encodePacked(data[i], sender) */\n      add(0x20, mload(0x40))\n      tag_28\n      swap4\n      swap3\n      swap2\n      swap1\n      tag_29\n      jump\t// in\n    tag_28:\n      mload(0x40)\n      0x20\n      dup2\n      dup4\n      sub\n      sub\n      dup2\n      mstore\n      swap1\n      0x40\n      mstore\n        /* \"contracts/extension/Multicall.sol\":1026:1054  Address.functionDelegateCall */\n      tag_30\n        /* \"contracts/extension/Multicall.sol\":1026:1104  Address.functionDelegateCall(address(this), abi.encodePacked(data[i], sender)) */\n      jump\t// in\n    tag_22:\n        /* \"contracts/extension/Multicall.sol\":1013:1020  results */\n      dup5\n        /* \"contracts/extension/Multicall.sol\":1021:1022  i */\n      dup3\n        /* \"contracts/extension/Multicall.sol\":1013:1023  results[i] */\n      dup2\n      mload\n      dup2\n      lt\n      tag_31\n      jumpi\n      tag_32\n      tag_25\n      jump\t// in\n    tag_32:\n    tag_31:\n      0x20\n      mul\n      0x20\n      add\n      add\n        /* \"contracts/extension/Multicall.sol\":1013:1104  results[i] = Address.functionDelegateCall(address(this), abi.encodePacked(data[i], sender)) */\n      dup2\n      swap1\n      mstore\n      pop\n        /* \"contracts/extension/Multicall.sol\":978:1223  if (isForwarder) {... */\n      jump(tag_33)\n    tag_21:\n        /* \"contracts/extension/Multicall.sol\":1156:1208  Address.functionDelegateCall(address(this), data[i]) */\n      tag_34\n        /* \"contracts/extension/Multicall.sol\":1193:1197  this */\n      address\n        /* \"contracts/extension/Multicall.sol\":1200:1204  data */\n      dup8\n      dup8\n        /* \"contracts/extension/Multicall.sol\":1205:1206  i */\n      dup5\n        /* \"contracts/extension/Multicall.sol\":1200:1207  data[i] */\n      dup2\n      dup2\n      lt\n      tag_35\n      jumpi\n      tag_36\n      tag_25\n      jump\t// in\n    tag_36:\n    tag_35:\n      swap1\n      pop\n      0x20\n      mul\n      dup2\n      add\n      swap1\n      tag_37\n      swap2\n      swap1\n      tag_27\n      jump\t// in\n    tag_37:\n        /* \"contracts/extension/Multicall.sol\":1156:1208  Address.functionDelegateCall(address(this), data[i]) */\n      dup1\n      dup1\n      0x1f\n      add\n      0x20\n      dup1\n      swap2\n      div\n      mul\n      0x20\n      add\n      mload(0x40)\n      swap1\n      dup2\n      add\n      0x40\n      mstore\n      dup1\n      swap4\n      swap3\n      swap2\n      swap1\n      dup2\n      dup2\n      mstore\n      0x20\n      add\n      dup4\n      dup4\n      dup1\n      dup3\n      dup5\n      calldatacopy\n      0x00\n      dup2\n      dup5\n      add\n      mstore\n      not(0x1f)\n      0x1f\n      dup3\n      add\n      and\n      swap1\n      pop\n      dup1\n      dup4\n      add\n      swap3\n      pop\n      pop\n      pop\n      pop\n      pop\n      pop\n      pop\n        /* \"contracts/extension/Multicall.sol\":1156:1184  Address.functionDelegateCall */\n      tag_30\n        /* \"contracts/extension/Multicall.sol\":1156:1208  Address.functionDelegateCall(address(this), data[i]) */\n      jump\t// in\n    tag_34:\n        /* \"contracts/extension/Multicall.sol\":1143:1150  results */\n      dup5\n        /* \"contracts/extension/Multicall.sol\":1151:1152  i */\n      dup3\n        /* \"contracts/extension/Multicall.sol\":1143:1153  results[i] */\n      dup2\n      mload\n      dup2\n      lt\n      tag_38\n      jumpi\n      tag_39\n      tag_25\n      jump\t// in\n    tag_39:\n    tag_38:\n      0x20\n      mul\n      0x20\n      add\n      add\n        /* \"contracts/extension/Multicall.sol\":1143:1208  results[i] = Address.functionDelegateCall(address(this), data[i]) */\n      dup2\n      swap1\n      mstore\n      pop\n        /* \"contracts/extension/Multicall.sol\":978:1223  if (isForwarder) {... */\n    tag_33:\n        /* \"contracts/extension/Multicall.sol\":959:962  i++ */\n      dup1\n      dup1\n      0x01\n      add\n      swap2\n      pop\n      pop\n        /* \"contracts/extension/Multicall.sol\":922:1233  for (uint256 i = 0; i < data.length; i++) {... */\n      jump(tag_18)\n    tag_19:\n      pop\n        /* \"contracts/extension/Multicall.sol\":1242:1256  return results */\n      pop\n      pop\n        /* \"contracts/extension/Multicall.sol\":696:1263  function multicall(bytes[] calldata data) external returns (bytes[] memory results) {... */\n      swap3\n      swap2\n      pop\n      pop\n      jump\t// out\n        /* \"contracts/extension/Multicall.sol\":1336:1432  function _msgSender() internal view virtual returns (address) {... */\n    tag_17:\n        /* \"contracts/extension/Multicall.sol\":1389:1396  address */\n      0x00\n        /* \"contracts/extension/Multicall.sol\":1415:1425  msg.sender */\n      caller\n        /* \"contracts/extension/Multicall.sol\":1408:1425  return msg.sender */\n      swap1\n      pop\n        /* \"contracts/extension/Multicall.sol\":1336:1432  function _msgSender() internal view virtual returns (address) {... */\n      swap1\n      jump\t// out\n        /* \"contracts/lib/Address.sol\":6671:6869  function functionDelegateCall(address target, bytes memory data) internal returns (bytes memory) {... */\n    tag_30:\n        /* \"contracts/lib/Address.sol\":6754:6766  bytes memory */\n      0x60\n        /* \"contracts/lib/Address.sol\":6785:6862  functionDelegateCall(target, data, \"Address: low-level delegate call failed\") */\n      tag_42\n        /* \"contracts/lib/Address.sol\":6806:6812  target */\n      dup4\n        /* \"contracts/lib/Address.sol\":6814:6818  data */\n      dup4\n        /* \"contracts/lib/Address.sol\":6785:6862  functionDelegateCall(target, data, \"Address: low-level delegate call failed\") */\n      mload(0x40)\n      dup1\n      0x60\n      add\n      0x40\n      mstore\n      dup1\n      0x27\n      dup2\n      mstore\n      0x20\n      add\n      data_9fdcd12e4b726339b32a442b0a448365d5d85c96b2d2cff917b4f66c63110398\n      0x27\n      swap2\n      codecopy\n        /* \"contracts/lib/Address.sol\":6785:6805  functionDelegateCall */\n      tag_43\n        /* \"contracts/lib/Address.sol\":6785:6862  functionDelegateCall(target, data, \"Address: low-level delegate call failed\") */\n      jump\t// in\n    tag_42:\n        /* \"contracts/lib/Address.sol\":6778:6862  return functionDelegateCall(target, data, \"Address: low-level delegate call failed\") */\n      swap1\n      pop\n        /* \"contracts/lib/Address.sol\":6671:6869  function functionDelegateCall(address target, bytes memory data) internal returns (bytes memory) {... */\n      swap3\n      swap2\n      pop\n      pop\n      jump\t// out\n        /* \"contracts/lib/Address.sol\":7055:7380  function functionDelegateCall(... */\n    tag_43:\n        /* \"contracts/lib/Address.sol\":7196:7208  bytes memory */\n      0x60\n        /* \"contracts/lib/Address.sol\":7221:7233  bool success */\n      0x00\n        /* \"contracts/lib/Address.sol\":7235:7258  bytes memory returndata */\n      0x00\n        /* \"contracts/lib/Address.sol\":7262:7268  target */\n      dup6\n        /* \"contracts/lib/Address.sol\":7262:7281  target.delegatecall */\n      0xffffffffffffffffffffffffffffffffffffffff\n      and\n        /* \"contracts/lib/Address.sol\":7282:7286  data */\n      dup6\n        /* \"contracts/lib/Address.sol\":7262:7287  target.delegatecall(data) */\n      mload(0x40)\n      tag_45\n      swap2\n      swap1\n      tag_46\n      jump\t// in\n    tag_45:\n      0x00\n      mload(0x40)\n      dup1\n      dup4\n      sub\n      dup2\n      dup6\n      gas\n      delegatecall\n      swap2\n      pop\n      pop\n      returndatasize\n      dup1\n      0x00\n      dup2\n      eq\n      tag_49\n      jumpi\n      mload(0x40)\n      swap2\n      pop\n      and(add(returndatasize, 0x3f), not(0x1f))\n      dup3\n      add\n      0x40\n      mstore\n      returndatasize\n      dup3\n      mstore\n      returndatasize\n      0x00\n      0x20\n      dup5\n      add\n      returndatacopy\n      jump(tag_48)\n    tag_49:\n      0x60\n      swap2\n      pop\n    tag_48:\n      pop\n        /* \"contracts/lib/Address.sol\":7220:7287  (bool success, bytes memory returndata) = target.delegatecall(data) */\n      swap2\n      pop\n      swap2\n      pop\n        /* \"contracts/lib/Address.sol\":7304:7373  verifyCallResultFromTarget(target, success, returndata, errorMessage) */\n      tag_50\n        /* \"contracts/lib/Address.sol\":7331:7337  target */\n      dup7\n        /* \"contracts/lib/Address.sol\":7339:7346  success */\n      dup4\n        /* \"contracts/lib/Address.sol\":7348:7358  returndata */\n      dup4\n        /* \"contracts/lib/Address.sol\":7360:7372  errorMessage */\n      dup8\n        /* \"contracts/lib/Address.sol\":7304:7330  verifyCallResultFromTarget */\n      tag_51\n        /* \"contracts/lib/Address.sol\":7304:7373  verifyCallResultFromTarget(target, success, returndata, errorMessage) */\n      jump\t// in\n    tag_50:\n        /* \"contracts/lib/Address.sol\":7297:7373  return verifyCallResultFromTarget(target, success, returndata, errorMessage) */\n      swap3\n      pop\n      pop\n      pop\n        /* \"contracts/lib/Address.sol\":7055:7380  function functionDelegateCall(... */\n      swap4\n      swap3\n      pop\n      pop\n      pop\n      jump\t// out\n        /* \"contracts/lib/Address.sol\":7668:8296  function verifyCallResultFromTarget(... */\n    tag_51:\n        /* \"contracts/lib/Address.sol\":7848:7860  bytes memory */\n      0x60\n        /* \"contracts/lib/Address.sol\":7876:7883  success */\n      dup4\n        /* \"contracts/lib/Address.sol\":7872:8290  if (success) {... */\n      iszero\n      tag_53\n      jumpi\n        /* \"contracts/lib/Address.sol\":7924:7925  0 */\n      0x00\n        /* \"contracts/lib/Address.sol\":7903:7913  returndata */\n      dup4\n        /* \"contracts/lib/Address.sol\":7903:7920  returndata.length */\n      mload\n        /* \"contracts/lib/Address.sol\":7903:7925  returndata.length == 0 */\n      sub\n        /* \"contracts/lib/Address.sol\":7899:8185  if (returndata.length == 0) {... */\n      tag_54\n      jumpi\n        /* \"contracts/lib/Address.sol\":8118:8136  isContract(target) */\n      tag_55\n        /* \"contracts/lib/Address.sol\":8129:8135  target */\n      dup6\n        /* \"contracts/lib/Address.sol\":8118:8128  isContract */\n      tag_56\n        /* \"contracts/lib/Address.sol\":8118:8136  isContract(target) */\n      jump\t// in\n    tag_55:\n        /* \"contracts/lib/Address.sol\":8110:8170  require(isContract(target), \"Address: call to non-contract\") */\n      tag_57\n      jumpi\n      mload(0x40)\n      0x08c379a000000000000000000000000000000000000000000000000000000000\n      dup2\n      mstore\n      0x04\n      add\n      tag_58\n      swap1\n      tag_59\n      jump\t// in\n    tag_58:\n      mload(0x40)\n      dup1\n      swap2\n      sub\n      swap1\n      revert\n    tag_57:\n        /* \"contracts/lib/Address.sol\":7899:8185  if (returndata.length == 0) {... */\n    tag_54:\n        /* \"contracts/lib/Address.sol\":8205:8215  returndata */\n      dup3\n        /* \"contracts/lib/Address.sol\":8198:8215  return returndata */\n      swap1\n      pop\n      jump(tag_52)\n        /* \"contracts/lib/Address.sol\":7872:8290  if (success) {... */\n    tag_53:\n        /* \"contracts/lib/Address.sol\":8246:8279  _revert(returndata, errorMessage) */\n      tag_61\n        /* \"contracts/lib/Address.sol\":8254:8264  returndata */\n      dup4\n        /* \"contracts/lib/Address.sol\":8266:8278  errorMessage */\n      dup4\n        /* \"contracts/lib/Address.sol\":8246:8253  _revert */\n      tag_62\n        /* \"contracts/lib/Address.sol\":8246:8279  _revert(returndata, errorMessage) */\n      jump\t// in\n    tag_61:\n        /* \"contracts/lib/Address.sol\":7668:8296  function verifyCallResultFromTarget(... */\n    tag_52:\n      swap5\n      swap4\n      pop\n      pop\n      pop\n      pop\n      jump\t// out\n        /* \"contracts/lib/Address.sol\":1405:1725  function isContract(address account) internal view returns (bool) {... */\n    tag_56:\n        /* \"contracts/lib/Address.sol\":1465:1469  bool */\n      0x00\n        /* \"contracts/lib/Address.sol\":1717:1718  0 */\n      0x00\n        /* \"contracts/lib/Address.sol\":1695:1702  account */\n      dup3\n        /* \"contracts/lib/Address.sol\":1695:1714  account.code.length */\n      0xffffffffffffffffffffffffffffffffffffffff\n      and\n      extcodesize\n        /* \"contracts/lib/Address.sol\":1695:1718  account.code.length > 0 */\n      gt\n        /* \"contracts/lib/Address.sol\":1688:1718  return account.code.length > 0 */\n      swap1\n      pop\n        /* \"contracts/lib/Address.sol\":1405:1725  function isContract(address account) internal view returns (bool) {... */\n      swap2\n      swap1\n      pop\n      jump\t// out\n        /* \"contracts/lib/Address.sol\":8818:9358  function _revert(bytes memory returndata, string memory errorMessage) private pure {... */\n    tag_62:\n        /* \"contracts/lib/Address.sol\":8997:8998  0 */\n      0x00\n        /* \"contracts/lib/Address.sol\":8977:8987  returndata */\n      dup3\n        /* \"contracts/lib/Address.sol\":8977:8994  returndata.length */\n      mload\n        /* \"contracts/lib/Address.sol\":8977:8998  returndata.length > 0 */\n      gt\n        /* \"contracts/lib/Address.sol\":8973:9352  if (returndata.length > 0) {... */\n      iszero\n      tag_65\n      jumpi\n        /* \"contracts/lib/Address.sol\":9205:9215  returndata */\n      dup2\n        /* \"contracts/lib/Address.sol\":9199:9216  mload(returndata) */\n      mload\n        /* \"contracts/lib/Address.sol\":9261:9276  returndata_size */\n      dup1\n        /* \"contracts/lib/Address.sol\":9248:9258  returndata */\n      dup4\n        /* \"contracts/lib/Address.sol\":9244:9246  32 */\n      0x20\n        /* \"contracts/lib/Address.sol\":9240:9259  add(32, returndata) */\n      add\n        /* \"contracts/lib/Address.sol\":9233:9277  revert(add(32, returndata), returndata_size) */\n      revert\n        /* \"contracts/lib/Address.sol\":8973:9352  if (returndata.length > 0) {... */\n    tag_65:\n        /* \"contracts/lib/Address.sol\":9328:9340  errorMessage */\n      dup1\n        /* \"contracts/lib/Address.sol\":9321:9341  revert(errorMessage) */\n      mload(0x40)\n      0x08c379a000000000000000000000000000000000000000000000000000000000\n      dup2\n      mstore\n      0x04\n      add\n      tag_67\n      swap2\n      swap1\n      tag_68\n      jump\t// in\n    tag_67:\n      mload(0x40)\n      dup1\n      swap2\n      sub\n      swap1\n      revert\n        /* \"#utility.yul\":88:205   */\n    tag_70:\n        /* \"#utility.yul\":197:198   */\n      0x00\n        /* \"#utility.yul\":194:195   */\n      0x00\n        /* \"#utility.yul\":187:199   */\n      revert\n        /* \"#utility.yul\":211:328   */\n    tag_71:\n        /* \"#utility.yul\":320:321   */\n      0x00\n        /* \"#utility.yul\":317:318   */\n      0x00\n        /* \"#utility.yul\":310:322   */\n      revert\n        /* \"#utility.yul\":334:451   */\n    tag_72:\n        /* \"#utility.yul\":443:444   */\n      0x00\n        /* \"#utility.yul\":440:441   */\n      0x00\n        /* \"#utility.yul\":433:445   */\n      revert\n        /* \"#utility.yul\":457:574   */\n    tag_73:\n        /* \"#utility.yul\":566:567   */\n      0x00\n        /* \"#utility.yul\":563:564   */\n      0x00\n        /* \"#utility.yul\":556:568   */\n      revert\n        /* \"#utility.yul\":580:697   */\n    tag_74:\n        /* \"#utility.yul\":689:690   */\n      0x00\n        /* \"#utility.yul\":686:687   */\n      0x00\n        /* \"#utility.yul\":679:691   */\n      revert\n        /* \"#utility.yul\":718:1297   */\n    tag_75:\n        /* \"#utility.yul\":802:810   */\n      0x00\n        /* \"#utility.yul\":812:818   */\n      0x00\n        /* \"#utility.yul\":862:865   */\n      dup4\n        /* \"#utility.yul\":855:859   */\n      0x1f\n        /* \"#utility.yul\":847:853   */\n      dup5\n        /* \"#utility.yul\":843:860   */\n      add\n        /* \"#utility.yul\":839:866   */\n      slt\n        /* \"#utility.yul\":829:951   */\n      tag_113\n      jumpi\n        /* \"#utility.yul\":870:949   */\n      tag_114\n      tag_72\n      jump\t// in\n    tag_114:\n        /* \"#utility.yul\":829:951   */\n    tag_113:\n        /* \"#utility.yul\":983:989   */\n      dup3\n        /* \"#utility.yul\":970:990   */\n      calldataload\n        /* \"#utility.yul\":960:990   */\n      swap1\n      pop\n        /* \"#utility.yul\":1013:1031   */\n      0xffffffffffffffff\n        /* \"#utility.yul\":1005:1011   */\n      dup2\n        /* \"#utility.yul\":1002:1032   */\n      gt\n        /* \"#utility.yul\":999:1116   */\n      iszero\n      tag_115\n      jumpi\n        /* \"#utility.yul\":1035:1114   */\n      tag_116\n      tag_73\n      jump\t// in\n    tag_116:\n        /* \"#utility.yul\":999:1116   */\n    tag_115:\n        /* \"#utility.yul\":1149:1153   */\n      0x20\n        /* \"#utility.yul\":1141:1147   */\n      dup4\n        /* \"#utility.yul\":1137:1154   */\n      add\n        /* \"#utility.yul\":1125:1154   */\n      swap2\n      pop\n        /* \"#utility.yul\":1203:1206   */\n      dup4\n        /* \"#utility.yul\":1195:1199   */\n      0x20\n        /* \"#utility.yul\":1187:1193   */\n      dup3\n        /* \"#utility.yul\":1183:1200   */\n      mul\n        /* \"#utility.yul\":1173:1181   */\n      dup4\n        /* \"#utility.yul\":1169:1201   */\n      add\n        /* \"#utility.yul\":1166:1207   */\n      gt\n        /* \"#utility.yul\":1163:1291   */\n      iszero\n      tag_117\n      jumpi\n        /* \"#utility.yul\":1210:1289   */\n      tag_118\n      tag_74\n      jump\t// in\n    tag_118:\n        /* \"#utility.yul\":1163:1291   */\n    tag_117:\n        /* \"#utility.yul\":718:1297   */\n      swap3\n      pop\n      swap3\n      swap1\n      pop\n      jump\t// out\n        /* \"#utility.yul\":1303:1884   */\n    tag_6:\n        /* \"#utility.yul\":1400:1406   */\n      0x00\n        /* \"#utility.yul\":1408:1414   */\n      0x00\n        /* \"#utility.yul\":1457:1459   */\n      0x20\n        /* \"#utility.yul\":1445:1454   */\n      dup4\n        /* \"#utility.yul\":1436:1443   */\n      dup6\n        /* \"#utility.yul\":1432:1455   */\n      sub\n        /* \"#utility.yul\":1428:1460   */\n      slt\n        /* \"#utility.yul\":1425:1544   */\n      iszero\n      tag_120\n      jumpi\n        /* \"#utility.yul\":1463:1542   */\n      tag_121\n      tag_70\n      jump\t// in\n    tag_121:\n        /* \"#utility.yul\":1425:1544   */\n    tag_120:\n        /* \"#utility.yul\":1611:1612   */\n      0x00\n        /* \"#utility.yul\":1600:1609   */\n      dup4\n        /* \"#utility.yul\":1596:1613   */\n      add\n        /* \"#utility.yul\":1583:1614   */\n      calldataload\n        /* \"#utility.yul\":1641:1659   */\n      0xffffffffffffffff\n        /* \"#utility.yul\":1633:1639   */\n      dup2\n        /* \"#utility.yul\":1630:1660   */\n      gt\n        /* \"#utility.yul\":1627:1744   */\n      iszero\n      tag_122\n      jumpi\n        /* \"#utility.yul\":1663:1742   */\n      tag_123\n      tag_71\n      jump\t// in\n    tag_123:\n        /* \"#utility.yul\":1627:1744   */\n    tag_122:\n        /* \"#utility.yul\":1776:1867   */\n      tag_124\n        /* \"#utility.yul\":1859:1866   */\n      dup6\n        /* \"#utility.yul\":1850:1856   */\n      dup3\n        /* \"#utility.yul\":1839:1848   */\n      dup7\n        /* \"#utility.yul\":1835:1857   */\n      add\n        /* \"#utility.yul\":1776:1867   */\n      tag_75\n      jump\t// in\n    tag_124:\n        /* \"#utility.yul\":1758:1867   */\n      swap3\n      pop\n      swap3\n      pop\n        /* \"#utility.yul\":1554:1877   */\n      pop\n        /* \"#utility.yul\":1303:1884   */\n      swap3\n      pop\n      swap3\n      swap1\n      pop\n      jump\t// out\n        /* \"#utility.yul\":1890:2013   */\n    tag_76:\n        /* \"#utility.yul\":1966:1972   */\n      0x00\n        /* \"#utility.yul\":2000:2005   */\n      dup2\n        /* \"#utility.yul\":1994:2006   */\n      mload\n        /* \"#utility.yul\":1984:2006   */\n      swap1\n      pop\n        /* \"#utility.yul\":1890:2013   */\n      swap2\n      swap1\n      pop\n      jump\t// out\n        /* \"#utility.yul\":2019:2212   */\n    tag_77:\n        /* \"#utility.yul\":2127:2138   */\n      0x00\n        /* \"#utility.yul\":2161:2167   */\n      dup3\n        /* \"#utility.yul\":2156:2159   */\n      dup3\n        /* \"#utility.yul\":2149:2168   */\n      mstore\n        /* \"#utility.yul\":2201:2205   */\n      0x20\n        /* \"#utility.yul\":2196:2199   */\n      dup3\n        /* \"#utility.yul\":2192:2206   */\n      add\n        /* \"#utility.yul\":2177:2206   */\n      swap1\n      pop\n        /* \"#utility.yul\":2019:2212   */\n      swap3\n      swap2\n      pop\n      pop\n      jump\t// out\n        /* \"#utility.yul\":2218:2359   */\n    tag_78:\n        /* \"#utility.yul\":2294:2298   */\n      0x00\n        /* \"#utility.yul\":2317:2320   */\n      dup2\n        /* \"#utility.yul\":2309:2320   */\n      swap1\n      pop\n        /* \"#utility.yul\":2347:2351   */\n      0x20\n        /* \"#utility.yul\":2342:2345   */\n      dup3\n        /* \"#utility.yul\":2338:2352   */\n      add\n        /* \"#utility.yul\":2330:2352   */\n      swap1\n      pop\n        /* \"#utility.yul\":2218:2359   */\n      swap2\n      swap1\n      pop\n      jump\t// out\n        /* \"#utility.yul\":2365:2463   */\n    tag_79:\n        /* \"#utility.yul\":2416:2422   */\n      0x00\n        /* \"#utility.yul\":2450:2455   */\n      dup2\n        /* \"#utility.yul\":2444:2456   */\n      mload\n        /* \"#utility.yul\":2434:2456   */\n      swap1\n      pop\n        /* \"#utility.yul\":2365:2463   */\n      swap2\n      swap1\n      pop\n      jump\t// out\n        /* \"#utility.yul\":2469:2627   */\n    tag_80:\n        /* \"#utility.yul\":2542:2553   */\n      0x00\n        /* \"#utility.yul\":2576:2582   */\n      dup3\n        /* \"#utility.yul\":2571:2574   */\n      dup3\n        /* \"#utility.yul\":2564:2583   */\n      mstore\n        /* \"#utility.yul\":2616:2620   */\n      0x20\n        /* \"#utility.yul\":2611:2614   */\n      dup3\n        /* \"#utility.yul\":2607:2621   */\n      add\n        /* \"#utility.yul\":2592:2621   */\n      swap1\n      pop\n        /* \"#utility.yul\":2469:2627   */\n      swap3\n      swap2\n      pop\n      pop\n      jump\t// out\n        /* \"#utility.yul\":2633:2772   */\n    tag_81:\n        /* \"#utility.yul\":2722:2728   */\n      dup3\n        /* \"#utility.yul\":2717:2720   */\n      dup2\n        /* \"#utility.yul\":2712:2715   */\n      dup4\n        /* \"#utility.yul\":2706:2729   */\n      mcopy\n        /* \"#utility.yul\":2763:2764   */\n      0x00\n        /* \"#utility.yul\":2754:2760   */\n      dup4\n        /* \"#utility.yul\":2749:2752   */\n      dup4\n        /* \"#utility.yul\":2745:2761   */\n      add\n        /* \"#utility.yul\":2738:2765   */\n      mstore\n        /* \"#utility.yul\":2633:2772   */\n      pop\n      pop\n      pop\n      jump\t// out\n        /* \"#utility.yul\":2778:2880   */\n    tag_82:\n        /* \"#utility.yul\":2819:2825   */\n      0x00\n        /* \"#utility.yul\":2870:2872   */\n      0x1f\n        /* \"#utility.yul\":2866:2873   */\n      not\n        /* \"#utility.yul\":2861:2863   */\n      0x1f\n        /* \"#utility.yul\":2854:2859   */\n      dup4\n        /* \"#utility.yul\":2850:2864   */\n      add\n        /* \"#utility.yul\":2846:2874   */\n      and\n        /* \"#utility.yul\":2836:2874   */\n      swap1\n      pop\n        /* \"#utility.yul\":2778:2880   */\n      swap2\n      swap1\n      pop\n      jump\t// out\n        /* \"#utility.yul\":2886:3239   */\n    tag_83:\n        /* \"#utility.yul\":2962:2965   */\n      0x00\n        /* \"#utility.yul\":2990:3028   */\n      tag_133\n        /* \"#utility.yul\":3022:3027   */\n      dup3\n        /* \"#utility.yul\":2990:3028   */\n      tag_79\n      jump\t// in\n    tag_133:\n        /* \"#utility.yul\":3044:3104   */\n      tag_134\n        /* \"#utility.yul\":3097:3103   */\n      dup2\n        /* \"#utility.yul\":3092:3095   */\n      dup6\n        /* \"#utility.yul\":3044:3104   */\n      tag_80\n      jump\t// in\n    tag_134:\n        /* \"#utility.yul\":3037:3104   */\n      swap4\n      pop\n        /* \"#utility.yul\":3113:3178   */\n      tag_135\n        /* \"#utility.yul\":3171:3177   */\n      dup2\n        /* \"#utility.yul\":3166:3169   */\n      dup6\n        /* \"#utility.yul\":3159:3163   */\n      0x20\n        /* \"#utility.yul\":3152:3157   */\n      dup7\n        /* \"#utility.yul\":3148:3164   */\n      add\n        /* \"#utility.yul\":3113:3178   */\n      tag_81\n      jump\t// in\n    tag_135:\n        /* \"#utility.yul\":3203:3232   */\n      tag_136\n        /* \"#utility.yul\":3225:3231   */\n      dup2\n        /* \"#utility.yul\":3203:3232   */\n      tag_82\n      jump\t// in\n    tag_136:\n        /* \"#utility.yul\":3198:3201   */\n      dup5\n        /* \"#utility.yul\":3194:3233   */\n      add\n        /* \"#utility.yul\":3187:3233   */\n      swap2\n      pop\n        /* \"#utility.yul\":2966:3239   */\n      pop\n        /* \"#utility.yul\":2886:3239   */\n      swap3\n      swap2\n      pop\n      pop\n      jump\t// out\n        /* \"#utility.yul\":3245:3437   */\n    tag_84:\n        /* \"#utility.yul\":3332:3342   */\n      0x00\n        /* \"#utility.yul\":3367:3431   */\n      tag_138\n        /* \"#utility.yul\":3427:3430   */\n      dup4\n        /* \"#utility.yul\":3419:3425   */\n      dup4\n        /* \"#utility.yul\":3367:3431   */\n      tag_83\n      jump\t// in\n    tag_138:\n        /* \"#utility.yul\":3353:3431   */\n      swap1\n      pop\n        /* \"#utility.yul\":3245:3437   */\n      swap3\n      swap2\n      pop\n      pop\n      jump\t// out\n        /* \"#utility.yul\":3443:3565   */\n    tag_85:\n        /* \"#utility.yul\":3522:3526   */\n      0x00\n        /* \"#utility.yul\":3554:3558   */\n      0x20\n        /* \"#utility.yul\":3549:3552   */\n      dup3\n        /* \"#utility.yul\":3545:3559   */\n      add\n        /* \"#utility.yul\":3537:3559   */\n      swap1\n      pop\n        /* \"#utility.yul\":3443:3565   */\n      swap2\n      swap1\n      pop\n      jump\t// out\n        /* \"#utility.yul\":3597:4580   */\n    tag_86:\n        /* \"#utility.yul\":3734:3737   */\n      0x00\n        /* \"#utility.yul\":3763:3826   */\n      tag_141\n        /* \"#utility.yul\":3820:3825   */\n      dup3\n        /* \"#utility.yul\":3763:3826   */\n      tag_76\n      jump\t// in\n    tag_141:\n        /* \"#utility.yul\":3842:3937   */\n      tag_142\n        /* \"#utility.yul\":3930:3936   */\n      dup2\n        /* \"#utility.yul\":3925:3928   */\n      dup6\n        /* \"#utility.yul\":3842:3937   */\n      tag_77\n      jump\t// in\n    tag_142:\n        /* \"#utility.yul\":3835:3937   */\n      swap4\n      pop\n        /* \"#utility.yul\":3963:3966   */\n      dup4\n        /* \"#utility.yul\":4008:4012   */\n      0x20\n        /* \"#utility.yul\":4000:4006   */\n      dup3\n        /* \"#utility.yul\":3996:4013   */\n      mul\n        /* \"#utility.yul\":3991:3994   */\n      dup6\n        /* \"#utility.yul\":3987:4014   */\n      add\n        /* \"#utility.yul\":4038:4103   */\n      tag_143\n        /* \"#utility.yul\":4097:4102   */\n      dup6\n        /* \"#utility.yul\":4038:4103   */\n      tag_78\n      jump\t// in\n    tag_143:\n        /* \"#utility.yul\":4126:4133   */\n      dup1\n        /* \"#utility.yul\":4157:4158   */\n      0x00\n        /* \"#utility.yul\":4142:4535   */\n    tag_144:\n        /* \"#utility.yul\":4167:4173   */\n      dup6\n        /* \"#utility.yul\":4164:4165   */\n      dup2\n        /* \"#utility.yul\":4161:4174   */\n      lt\n        /* \"#utility.yul\":4142:4535   */\n      iszero\n      tag_146\n      jumpi\n        /* \"#utility.yul\":4238:4247   */\n      dup5\n        /* \"#utility.yul\":4232:4236   */\n      dup5\n        /* \"#utility.yul\":4228:4248   */\n      sub\n        /* \"#utility.yul\":4223:4226   */\n      dup10\n        /* \"#utility.yul\":4216:4249   */\n      mstore\n        /* \"#utility.yul\":4289:4295   */\n      dup2\n        /* \"#utility.yul\":4283:4296   */\n      mload\n        /* \"#utility.yul\":4317:4399   */\n      tag_147\n        /* \"#utility.yul\":4394:4398   */\n      dup6\n        /* \"#utility.yul\":4379:4392   */\n      dup3\n        /* \"#utility.yul\":4317:4399   */\n      tag_84\n      jump\t// in\n    tag_147:\n        /* \"#utility.yul\":4309:4399   */\n      swap5\n      pop\n        /* \"#utility.yul\":4422:4491   */\n      tag_148\n        /* \"#utility.yul\":4484:4490   */\n      dup4\n        /* \"#utility.yul\":4422:4491   */\n      tag_85\n      jump\t// in\n    tag_148:\n        /* \"#utility.yul\":4412:4491   */\n      swap3\n      pop\n        /* \"#utility.yul\":4520:4524   */\n      0x20\n        /* \"#utility.yul\":4515:4518   */\n      dup11\n        /* \"#utility.yul\":4511:4525   */\n      add\n        /* \"#utility.yul\":4504:4525   */\n      swap10\n      pop\n        /* \"#utility.yul\":4202:4535   */\n      pop\n        /* \"#utility.yul\":4189:4190   */\n      0x01\n        /* \"#utility.yul\":4186:4187   */\n      dup2\n        /* \"#utility.yul\":4182:4191   */\n      add\n        /* \"#utility.yul\":4177:4191   */\n      swap1\n      pop\n        /* \"#utility.yul\":4142:4535   */\n      jump(tag_144)\n    tag_146:\n        /* \"#utility.yul\":4146:4160   */\n      pop\n        /* \"#utility.yul\":4551:4555   */\n      dup3\n        /* \"#utility.yul\":4544:4555   */\n      swap8\n      pop\n        /* \"#utility.yul\":4571:4574   */\n      dup8\n        /* \"#utility.yul\":4564:4574   */\n      swap6\n      pop\n        /* \"#utility.yul\":3739:4580   */\n      pop\n      pop\n      pop\n      pop\n      pop\n        /* \"#utility.yul\":3597:4580   */\n      swap3\n      swap2\n      pop\n      pop\n      jump\t// out\n        /* \"#utility.yul\":4586:4995   */\n    tag_9:\n        /* \"#utility.yul\":4747:4751   */\n      0x00\n        /* \"#utility.yul\":4785:4787   */\n      0x20\n        /* \"#utility.yul\":4774:4783   */\n      dup3\n        /* \"#utility.yul\":4770:4788   */\n      add\n        /* \"#utility.yul\":4762:4788   */\n      swap1\n      pop\n        /* \"#utility.yul\":4834:4843   */\n      dup2\n        /* \"#utility.yul\":4828:4832   */\n      dup2\n        /* \"#utility.yul\":4824:4844   */\n      sub\n        /* \"#utility.yul\":4820:4821   */\n      0x00\n        /* \"#utility.yul\":4809:4818   */\n      dup4\n        /* \"#utility.yul\":4805:4822   */\n      add\n        /* \"#utility.yul\":4798:4845   */\n      mstore\n        /* \"#utility.yul\":4862:4988   */\n      tag_150\n        /* \"#utility.yul\":4983:4987   */\n      dup2\n        /* \"#utility.yul\":4974:4980   */\n      dup5\n        /* \"#utility.yul\":4862:4988   */\n      tag_86\n      jump\t// in\n    tag_150:\n        /* \"#utility.yul\":4854:4988   */\n      swap1\n      pop\n        /* \"#utility.yul\":4586:4995   */\n      swap3\n      swap2\n      pop\n      pop\n      jump\t// out\n        /* \"#utility.yul\":5001:5181   */\n    tag_13:\n        /* \"#utility.yul\":5049:5126   */\n      0x4e487b7100000000000000000000000000000000000000000000000000000000\n        /* \"#utility.yul\":5046:5047   */\n      0x00\n        /* \"#utility.yul\":5039:5127   */\n      mstore\n        /* \"#utility.yul\":5146:5150   */\n      0x41\n        /* \"#utility.yul\":5143:5144   */\n      0x04\n        /* \"#utility.yul\":5136:5151   */\n      mstore\n        /* \"#utility.yul\":5170:5174   */\n      0x24\n        /* \"#utility.yul\":5167:5168   */\n      0x00\n        /* \"#utility.yul\":5160:5175   */\n      revert\n        /* \"#utility.yul\":5187:5367   */\n    tag_25:\n        /* \"#utility.yul\":5235:5312   */\n      0x4e487b7100000000000000000000000000000000000000000000000000000000\n        /* \"#utility.yul\":5232:5233   */\n      0x00\n        /* \"#utility.yul\":5225:5313   */\n      mstore\n        /* \"#utility.yul\":5332:5336   */\n      0x32\n        /* \"#utility.yul\":5329:5330   */\n      0x04\n        /* \"#utility.yul\":5322:5337   */\n      mstore\n        /* \"#utility.yul\":5356:5360   */\n      0x24\n        /* \"#utility.yul\":5353:5354   */\n      0x00\n        /* \"#utility.yul\":5346:5361   */\n      revert\n        /* \"#utility.yul\":5373:5490   */\n    tag_87:\n        /* \"#utility.yul\":5482:5483   */\n      0x00\n        /* \"#utility.yul\":5479:5480   */\n      0x00\n        /* \"#utility.yul\":5472:5484   */\n      revert\n        /* \"#utility.yul\":5496:5613   */\n    tag_88:\n        /* \"#utility.yul\":5605:5606   */\n      0x00\n        /* \"#utility.yul\":5602:5603   */\n      0x00\n        /* \"#utility.yul\":5595:5607   */\n      revert\n        /* \"#utility.yul\":5619:5736   */\n    tag_89:\n        /* \"#utility.yul\":5728:5729   */\n      0x00\n        /* \"#utility.yul\":5725:5726   */\n      0x00\n        /* \"#utility.yul\":5718:5730   */\n      revert\n        /* \"#utility.yul\":5742:6466   */\n    tag_27:\n        /* \"#utility.yul\":5819:5823   */\n      0x00\n        /* \"#utility.yul\":5825:5831   */\n      0x00\n        /* \"#utility.yul\":5881:5892   */\n      dup4\n        /* \"#utility.yul\":5868:5893   */\n      calldataload\n        /* \"#utility.yul\":5981:5982   */\n      0x01\n        /* \"#utility.yul\":5975:5979   */\n      0x20\n        /* \"#utility.yul\":5971:5983   */\n      sub\n        /* \"#utility.yul\":5960:5968   */\n      dup5\n        /* \"#utility.yul\":5944:5958   */\n      calldatasize\n        /* \"#utility.yul\":5940:5969   */\n      sub\n        /* \"#utility.yul\":5936:5984   */\n      sub\n        /* \"#utility.yul\":5916:5934   */\n      dup2\n        /* \"#utility.yul\":5912:5985   */\n      slt\n        /* \"#utility.yul\":5902:6070   */\n      tag_157\n      jumpi\n        /* \"#utility.yul\":5989:6068   */\n      tag_158\n      tag_87\n      jump\t// in\n    tag_158:\n        /* \"#utility.yul\":5902:6070   */\n    tag_157:\n        /* \"#utility.yul\":6101:6119   */\n      dup1\n        /* \"#utility.yul\":6091:6099   */\n      dup5\n        /* \"#utility.yul\":6087:6120   */\n      add\n        /* \"#utility.yul\":6079:6120   */\n      swap3\n      pop\n        /* \"#utility.yul\":6153:6157   */\n      dup3\n        /* \"#utility.yul\":6140:6158   */\n      calldataload\n        /* \"#utility.yul\":6130:6158   */\n      swap2\n      pop\n        /* \"#utility.yul\":6181:6199   */\n      0xffffffffffffffff\n        /* \"#utility.yul\":6173:6179   */\n      dup3\n        /* \"#utility.yul\":6170:6200   */\n      gt\n        /* \"#utility.yul\":6167:6284   */\n      iszero\n      tag_159\n      jumpi\n        /* \"#utility.yul\":6203:6282   */\n      tag_160\n      tag_88\n      jump\t// in\n    tag_160:\n        /* \"#utility.yul\":6167:6284   */\n    tag_159:\n        /* \"#utility.yul\":6311:6313   */\n      0x20\n        /* \"#utility.yul\":6305:6309   */\n      dup4\n        /* \"#utility.yul\":6301:6314   */\n      add\n        /* \"#utility.yul\":6293:6314   */\n      swap3\n      pop\n        /* \"#utility.yul\":6368:6372   */\n      0x01\n        /* \"#utility.yul\":6360:6366   */\n      dup3\n        /* \"#utility.yul\":6356:6373   */\n      mul\n        /* \"#utility.yul\":6340:6354   */\n      calldatasize\n        /* \"#utility.yul\":6336:6374   */\n      sub\n        /* \"#utility.yul\":6330:6334   */\n      dup4\n        /* \"#utility.yul\":6326:6375   */\n      sgt\n        /* \"#utility.yul\":6323:6459   */\n      iszero\n      tag_161\n      jumpi\n        /* \"#utility.yul\":6378:6457   */\n      tag_162\n      tag_89\n      jump\t// in\n    tag_162:\n        /* \"#utility.yul\":6323:6459   */\n    tag_161:\n        /* \"#utility.yul\":5832:6466   */\n      pop\n        /* \"#utility.yul\":5742:6466   */\n      swap3\n      pop\n      swap3\n      swap1\n      pop\n      jump\t// out\n        /* \"#utility.yul\":6472:6619   */\n    tag_90:\n        /* \"#utility.yul\":6573:6584   */\n      0x00\n        /* \"#utility.yul\":6610:6613   */\n      dup2\n        /* \"#utility.yul\":6595:6613   */\n      swap1\n      pop\n        /* \"#utility.yul\":6472:6619   */\n      swap3\n      swap2\n      pop\n      pop\n      jump\t// out\n        /* \"#utility.yul\":6625:6773   */\n    tag_91:\n        /* \"#utility.yul\":6723:6729   */\n      dup3\n        /* \"#utility.yul\":6718:6721   */\n      dup2\n        /* \"#utility.yul\":6713:6716   */\n      dup4\n        /* \"#utility.yul\":6700:6730   */\n      calldatacopy\n        /* \"#utility.yul\":6764:6765   */\n      0x00\n        /* \"#utility.yul\":6755:6761   */\n      dup4\n        /* \"#utility.yul\":6750:6753   */\n      dup4\n        /* \"#utility.yul\":6746:6762   */\n      add\n        /* \"#utility.yul\":6739:6766   */\n      mstore\n        /* \"#utility.yul\":6625:6773   */\n      pop\n      pop\n      pop\n      jump\t// out\n        /* \"#utility.yul\":6801:7128   */\n    tag_92:\n        /* \"#utility.yul\":6915:6918   */\n      0x00\n        /* \"#utility.yul\":6936:7024   */\n      tag_166\n        /* \"#utility.yul\":7017:7023   */\n      dup4\n        /* \"#utility.yul\":7012:7015   */\n      dup6\n        /* \"#utility.yul\":6936:7024   */\n      tag_90\n      jump\t// in\n    tag_166:\n        /* \"#utility.yul\":6929:7024   */\n      swap4\n      pop\n        /* \"#utility.yul\":7034:7090   */\n      tag_167\n        /* \"#utility.yul\":7083:7089   */\n      dup4\n        /* \"#utility.yul\":7078:7081   */\n      dup6\n        /* \"#utility.yul\":7071:7076   */\n      dup5\n        /* \"#utility.yul\":7034:7090   */\n      tag_91\n      jump\t// in\n    tag_167:\n        /* \"#utility.yul\":7115:7121   */\n      dup3\n        /* \"#utility.yul\":7110:7113   */\n      dup5\n        /* \"#utility.yul\":7106:7122   */\n      add\n        /* \"#utility.yul\":7099:7122   */\n      swap1\n      pop\n        /* \"#utility.yul\":6801:7128   */\n      swap4\n      swap3\n      pop\n      pop\n      pop\n      jump\t// out\n        /* \"#utility.yul\":7134:7260   */\n    tag_93:\n        /* \"#utility.yul\":7171:7178   */\n      0x00\n        /* \"#utility.yul\":7211:7253   */\n      0xffffffffffffffffffffffffffffffffffffffff\n        /* \"#utility.yul\":7204:7209   */\n      dup3\n        /* \"#utility.yul\":7200:7254   */\n      and\n        /* \"#utility.yul\":7189:7254   */\n      swap1\n      pop\n        /* \"#utility.yul\":7134:7260   */\n      swap2\n      swap1\n      pop\n      jump\t// out\n        /* \"#utility.yul\":7266:7362   */\n    tag_94:\n        /* \"#utility.yul\":7303:7310   */\n      0x00\n        /* \"#utility.yul\":7332:7356   */\n      tag_170\n        /* \"#utility.yul\":7350:7355   */\n      dup3\n        /* \"#utility.yul\":7332:7356   */\n      tag_93\n      jump\t// in\n    tag_170:\n        /* \"#utility.yul\":7321:7356   */\n      swap1\n      pop\n        /* \"#utility.yul\":7266:7362   */\n      swap2\n      swap1\n      pop\n      jump\t// out\n        /* \"#utility.yul\":7368:7462   */\n    tag_95:\n        /* \"#utility.yul\":7401:7409   */\n      0x00\n        /* \"#utility.yul\":7449:7454   */\n      dup2\n        /* \"#utility.yul\":7445:7447   */\n      0x60\n        /* \"#utility.yul\":7441:7455   */\n      shl\n        /* \"#utility.yul\":7420:7455   */\n      swap1\n      pop\n        /* \"#utility.yul\":7368:7462   */\n      swap2\n      swap1\n      pop\n      jump\t// out\n        /* \"#utility.yul\":7468:7562   */\n    tag_96:\n        /* \"#utility.yul\":7507:7514   */\n      0x00\n        /* \"#utility.yul\":7536:7556   */\n      tag_173\n        /* \"#utility.yul\":7550:7555   */\n      dup3\n        /* \"#utility.yul\":7536:7556   */\n      tag_95\n      jump\t// in\n    tag_173:\n        /* \"#utility.yul\":7525:7556   */\n      swap1\n      pop\n        /* \"#utility.yul\":7468:7562   */\n      swap2\n      swap1\n      pop\n      jump\t// out\n        /* \"#utility.yul\":7568:7668   */\n    tag_97:\n        /* \"#utility.yul\":7607:7614   */\n      0x00\n        /* \"#utility.yul\":7636:7662   */\n      tag_175\n        /* \"#utility.yul\":7656:7661   */\n      dup3\n        /* \"#utility.yul\":7636:7662   */\n      tag_96\n      jump\t// in\n    tag_175:\n        /* \"#utility.yul\":7625:7662   */\n      swap1\n      pop\n        /* \"#utility.yul\":7568:7668   */\n      swap2\n      swap1\n      pop\n      jump\t// out\n        /* \"#utility.yul\":7674:7831   */\n    tag_98:\n        /* \"#utility.yul\":7779:7824   */\n      tag_177\n        /* \"#utility.yul\":7799:7823   */\n      tag_178\n        /* \"#utility.yul\":7817:7822   */\n      dup3\n        /* \"#utility.yul\":7799:7823   */\n      tag_94\n      jump\t// in\n    tag_178:\n        /* \"#utility.yul\":7779:7824   */\n      tag_97\n      jump\t// in\n    tag_177:\n        /* \"#utility.yul\":7774:7777   */\n      dup3\n        /* \"#utility.yul\":7767:7825   */\n      mstore\n        /* \"#utility.yul\":7674:7831   */\n      pop\n      pop\n      jump\t// out\n        /* \"#utility.yul\":7837:8269   */\n    tag_29:\n        /* \"#utility.yul\":8005:8008   */\n      0x00\n        /* \"#utility.yul\":8027:8130   */\n      tag_180\n        /* \"#utility.yul\":8126:8129   */\n      dup3\n        /* \"#utility.yul\":8117:8123   */\n      dup6\n        /* \"#utility.yul\":8109:8115   */\n      dup8\n        /* \"#utility.yul\":8027:8130   */\n      tag_92\n      jump\t// in\n    tag_180:\n        /* \"#utility.yul\":8020:8130   */\n      swap2\n      pop\n        /* \"#utility.yul\":8140:8215   */\n      tag_181\n        /* \"#utility.yul\":8211:8214   */\n      dup3\n        /* \"#utility.yul\":8202:8208   */\n      dup5\n        /* \"#utility.yul\":8140:8215   */\n      tag_98\n      jump\t// in\n    tag_181:\n        /* \"#utility.yul\":8240:8242   */\n      0x14\n        /* \"#utility.yul\":8235:8238   */\n      dup3\n        /* \"#utility.yul\":8231:8243   */\n      add\n        /* \"#utility.yul\":8224:8243   */\n      swap2\n      pop\n        /* \"#utility.yul\":8260:8263   */\n      dup2\n        /* \"#utility.yul\":8253:8263   */\n      swap1\n      pop\n        /* \"#utility.yul\":7837:8269   */\n      swap5\n      swap4\n      pop\n      pop\n      pop\n      pop\n      jump\t// out\n        /* \"#utility.yul\":8275:8661   */\n    tag_99:\n        /* \"#utility.yul\":8379:8382   */\n      0x00\n        /* \"#utility.yul\":8407:8445   */\n      tag_183\n        /* \"#utility.yul\":8439:8444   */\n      dup3\n        /* \"#utility.yul\":8407:8445   */\n      tag_79\n      jump\t// in\n    tag_183:\n        /* \"#utility.yul\":8461:8549   */\n      tag_184\n        /* \"#utility.yul\":8542:8548   */\n      dup2\n        /* \"#utility.yul\":8537:8540   */\n      dup6\n        /* \"#utility.yul\":8461:8549   */\n      tag_90\n      jump\t// in\n    tag_184:\n        /* \"#utility.yul\":8454:8549   */\n      swap4\n      pop\n        /* \"#utility.yul\":8558:8623   */\n      tag_185\n        /* \"#utility.yul\":8616:8622   */\n      dup2\n        /* \"#utility.yul\":8611:8614   */\n      dup6\n        /* \"#utility.yul\":8604:8608   */\n      0x20\n        /* \"#utility.yul\":8597:8602   */\n      dup7\n        /* \"#utility.yul\":8593:8609   */\n      add\n        /* \"#utility.yul\":8558:8623   */\n      tag_81\n      jump\t// in\n    tag_185:\n        /* \"#utility.yul\":8648:8654   */\n      dup1\n        /* \"#utility.yul\":8643:8646   */\n      dup5\n        /* \"#utility.yul\":8639:8655   */\n      add\n        /* \"#utility.yul\":8632:8655   */\n      swap2\n      pop\n        /* \"#utility.yul\":8383:8661   */\n      pop\n        /* \"#utility.yul\":8275:8661   */\n      swap3\n      swap2\n      pop\n      pop\n      jump\t// out\n        /* \"#utility.yul\":8667:8938   */\n    tag_46:\n        /* \"#utility.yul\":8797:8800   */\n      0x00\n        /* \"#utility.yul\":8819:8912   */\n      tag_187\n        /* \"#utility.yul\":8908:8911   */\n      dup3\n        /* \"#utility.yul\":8899:8905   */\n      dup5\n        /* \"#utility.yul\":8819:8912   */\n      tag_99\n      jump\t// in\n    tag_187:\n        /* \"#utility.yul\":8812:8912   */\n      swap2\n      pop\n        /* \"#utility.yul\":8929:8932   */\n      dup2\n        /* \"#utility.yul\":8922:8932   */\n      swap1\n      pop\n        /* \"#utility.yul\":8667:8938   */\n      swap3\n      swap2\n      pop\n      pop\n      jump\t// out\n        /* \"#utility.yul\":8944:9113   */\n    tag_100:\n        /* \"#utility.yul\":9028:9039   */\n      0x00\n        /* \"#utility.yul\":9062:9068   */\n      dup3\n        /* \"#utility.yul\":9057:9060   */\n      dup3\n        /* \"#utility.yul\":9050:9069   */\n      mstore\n        /* \"#utility.yul\":9102:9106   */\n      0x20\n        /* \"#utility.yul\":9097:9100   */\n      dup3\n        /* \"#utility.yul\":9093:9107   */\n      add\n        /* \"#utility.yul\":9078:9107   */\n      swap1\n      pop\n        /* \"#utility.yul\":8944:9113   */\n      swap3\n      swap2\n      pop\n      pop\n      jump\t// out\n        /* \"#utility.yul\":9119:9298   */\n    tag_101:\n        /* \"#utility.yul\":9259:9290   */\n      0x416464726573733a2063616c6c20746f206e6f6e2d636f6e7472616374000000\n        /* \"#utility.yul\":9255:9256   */\n      0x00\n        /* \"#utility.yul\":9247:9253   */\n      dup3\n        /* \"#utility.yul\":9243:9257   */\n      add\n        /* \"#utility.yul\":9236:9291   */\n      mstore\n        /* \"#utility.yul\":9119:9298   */\n      pop\n      jump\t// out\n        /* \"#utility.yul\":9304:9670   */\n    tag_102:\n        /* \"#utility.yul\":9446:9449   */\n      0x00\n        /* \"#utility.yul\":9467:9534   */\n      tag_191\n        /* \"#utility.yul\":9531:9533   */\n      0x1d\n        /* \"#utility.yul\":9526:9529   */\n      dup4\n        /* \"#utility.yul\":9467:9534   */\n      tag_100\n      jump\t// in\n    tag_191:\n        /* \"#utility.yul\":9460:9534   */\n      swap2\n      pop\n        /* \"#utility.yul\":9543:9636   */\n      tag_192\n        /* \"#utility.yul\":9632:9635   */\n      dup3\n        /* \"#utility.yul\":9543:9636   */\n      tag_101\n      jump\t// in\n    tag_192:\n        /* \"#utility.yul\":9661:9663   */\n      0x20\n        /* \"#utility.yul\":9656:9659   */\n      dup3\n        /* \"#utility.yul\":9652:9664   */\n      add\n        /* \"#utility.yul\":9645:9664   */\n      swap1\n      pop\n        /* \"#utility.yul\":9304:9670   */\n      swap2\n      swap1\n      pop\n      jump\t// out\n        /* \"#utility.yul\":9676:10095   */\n    tag_59:\n        /* \"#utility.yul\":9842:9846   */\n      0x00\n        /* \"#utility.yul\":9880:9882   */\n      0x20\n        /* \"#utility.yul\":9869:9878   */\n      dup3\n        /* \"#utility.yul\":9865:9883   */\n      add\n        /* \"#utility.yul\":9857:9883   */\n      swap1\n      pop\n        /* \"#utility.yul\":9929:9938   */\n      dup2\n        /* \"#utility.yul\":9923:9927   */\n      dup2\n        /* \"#utility.yul\":9919:9939   */\n      sub\n        /* \"#utility.yul\":9915:9916   */\n      0x00\n        /* \"#utility.yul\":9904:9913   */\n      dup4\n        /* \"#utility.yul\":9900:9917   */\n      add\n        /* \"#utility.yul\":9893:9940   */\n      mstore\n        /* \"#utility.yul\":9957:10088   */\n      tag_194\n        /* \"#utility.yul\":10083:10087   */\n      dup2\n        /* \"#utility.yul\":9957:10088   */\n      tag_102\n      jump\t// in\n    tag_194:\n        /* \"#utility.yul\":9949:10088   */\n      swap1\n      pop\n        /* \"#utility.yul\":9676:10095   */\n      swap2\n      swap1\n      pop\n      jump\t// out\n        /* \"#utility.yul\":10101:10200   */\n    tag_103:\n        /* \"#utility.yul\":10153:10159   */\n      0x00\n        /* \"#utility.yul\":10187:10192   */\n      dup2\n        /* \"#utility.yul\":10181:10193   */\n      mload\n        /* \"#utility.yul\":10171:10193   */\n      swap1\n      pop\n        /* \"#utility.yul\":10101:10200   */\n      swap2\n      swap1\n      pop\n      jump\t// out\n        /* \"#utility.yul\":10206:10583   */\n    tag_104:\n        /* \"#utility.yul\":10294:10297   */\n      0x00\n        /* \"#utility.yul\":10322:10361   */\n      tag_197\n        /* \"#utility.yul\":10355:10360   */\n      dup3\n        /* \"#utility.yul\":10322:10361   */\n      tag_103\n      jump\t// in\n    tag_197:\n        /* \"#utility.yul\":10377:10448   */\n      tag_198\n        /* \"#utility.yul\":10441:10447   */\n      dup2\n        /* \"#utility.yul\":10436:10439   */\n      dup6\n        /* \"#utility.yul\":10377:10448   */\n      tag_100\n      jump\t// in\n    tag_198:\n        /* \"#utility.yul\":10370:10448   */\n      swap4\n      pop\n        /* \"#utility.yul\":10457:10522   */\n      tag_199\n        /* \"#utility.yul\":10515:10521   */\n      dup2\n        /* \"#utility.yul\":10510:10513   */\n      dup6\n        /* \"#utility.yul\":10503:10507   */\n      0x20\n        /* \"#utility.yul\":10496:10501   */\n      dup7\n        /* \"#utility.yul\":10492:10508   */\n      add\n        /* \"#utility.yul\":10457:10522   */\n      tag_81\n      jump\t// in\n    tag_199:\n        /* \"#utility.yul\":10547:10576   */\n      tag_200\n        /* \"#utility.yul\":10569:10575   */\n      dup2\n        /* \"#utility.yul\":10547:10576   */\n      tag_82\n      jump\t// in\n    tag_200:\n        /* \"#utility.yul\":10542:10545   */\n      dup5\n        /* \"#utility.yul\":10538:10577   */\n      add\n        /* \"#utility.yul\":10531:10577   */\n      swap2\n      pop\n        /* \"#utility.yul\":10298:10583   */\n      pop\n        /* \"#utility.yul\":10206:10583   */\n      swap3\n      swap2\n      pop\n      pop\n      jump\t// out\n        /* \"#utility.yul\":10589:10902   */\n    tag_68:\n        /* \"#utility.yul\":10702:10706   */\n      0x00\n        /* \"#utility.yul\":10740:10742   */\n      0x20\n        /* \"#utility.yul\":10729:10738   */\n      dup3\n        /* \"#utility.yul\":10725:10743   */\n      add\n        /* \"#utility.yul\":10717:10743   */\n      swap1\n      pop\n        /* \"#utility.yul\":10789:10798   */\n      dup2\n        /* \"#utility.yul\":10783:10787   */\n      dup2\n        /* \"#utility.yul\":10779:10799   */\n      sub\n        /* \"#utility.yul\":10775:10776   */\n      0x00\n        /* \"#utility.yul\":10764:10773   */\n      dup4\n        /* \"#utility.yul\":10760:10777   */\n      add\n        /* \"#utility.yul\":10753:10800   */\n      mstore\n        /* \"#utility.yul\":10817:10895   */\n      tag_202\n        /* \"#utility.yul\":10890:10894   */\n      dup2\n        /* \"#utility.yul\":10881:10887   */\n      dup5\n        /* \"#utility.yul\":10817:10895   */\n      tag_104\n      jump\t// in\n    tag_202:\n        /* \"#utility.yul\":10809:10895   */\n      swap1\n      pop\n        /* \"#utility.yul\":10589:10902   */\n      swap3\n      swap2\n      pop\n      pop\n      jump\t// out\n    stop\n    data_9fdcd12e4b726339b32a442b0a448365d5d85c96b2d2cff917b4f66c63110398 416464726573733a206c6f772d6c6576656c2064656c65676174652063616c6c206661696c6564\n\n    auxdata: 0xa2646970667358221220bf405c9e5a062326e75cd5882fe6ce1d6bd236386c560cb4a3b3a06af24491e864736f6c634300081e0033\n}\n",
				"bytecode": {
					"linkReferences": {},
					"object": "6080604052348015600e575f5ffd5b506108d78061001c5f395ff3fe608060405234801561000f575f5ffd5b5060043610610029575f3560e01c8063ac9650d81461002d575b5f5ffd5b61004760048036038101906100429190610422565b61005d565b6040516100549190610598565b60405180910390f35b60608282905067ffffffffffffffff81111561007c5761007b6105b8565b5b6040519080825280602002602001820160405280156100af57816020015b606081526020019060019003908161009a5790505b5090505f6100bb61021e565b90505f8173ffffffffffffffffffffffffffffffffffffffff163373ffffffffffffffffffffffffffffffffffffffff16141590505f5f90505b85859050811015610215578115610179576101563087878481811061011d5761011c6105e5565b5b905060200281019061012f919061061e565b8660405160200161014293929190610731565b604051602081830303815290604052610225565b848281518110610169576101686105e5565b5b6020026020010181905250610208565b6101e9308787848181106101905761018f6105e5565b5b90506020028101906101a2919061061e565b8080601f0160208091040260200160405190810160405280939291908181526020018383808284375f81840152601f19601f82011690508083019250505050505050610225565b8482815181106101fc576101fb6105e5565b5b60200260200101819052505b80806001019150506100f5565b50505092915050565b5f33905090565b606061024a838360405180606001604052806027815260200161087b60279139610252565b905092915050565b60605f5f8573ffffffffffffffffffffffffffffffffffffffff168560405161027b919061078a565b5f60405180830381855af49150503d805f81146102b3576040519150601f19603f3d011682016040523d82523d5f602084013e6102b8565b606091505b50915091506102c9868383876102d4565b925050509392505050565b60608315610335575f83510361032d576102ed85610348565b61032c576040517f08c379a0000000000000000000000000000000000000000000000000000000008152600401610323906107fa565b60405180910390fd5b5b829050610340565b61033f838361036a565b5b949350505050565b5f5f8273ffffffffffffffffffffffffffffffffffffffff163b119050919050565b5f8251111561037c5781518083602001fd5b806040517f08c379a00000000000000000000000000000000000000000000000000000000081526004016103b0919061085a565b60405180910390fd5b5f5ffd5b5f5ffd5b5f5ffd5b5f5ffd5b5f5ffd5b5f5f83601f8401126103e2576103e16103c1565b5b8235905067ffffffffffffffff8111156103ff576103fe6103c5565b5b60208301915083602082028301111561041b5761041a6103c9565b5b9250929050565b5f5f60208385031215610438576104376103b9565b5b5f83013567ffffffffffffffff811115610455576104546103bd565b5b610461858286016103cd565b92509250509250929050565b5f81519050919050565b5f82825260208201905092915050565b5f819050602082019050919050565b5f81519050919050565b5f82825260208201905092915050565b8281835e5f83830152505050565b5f601f19601f8301169050919050565b5f6104d882610496565b6104e281856104a0565b93506104f28185602086016104b0565b6104fb816104be565b840191505092915050565b5f61051183836104ce565b905092915050565b5f602082019050919050565b5f61052f8261046d565b6105398185610477565b93508360208202850161054b85610487565b805f5b8581101561058657848403895281516105678582610506565b945061057283610519565b925060208a0199505060018101905061054e565b50829750879550505050505092915050565b5f6020820190508181035f8301526105b08184610525565b905092915050565b7f4e487b71000000000000000000000000000000000000000000000000000000005f52604160045260245ffd5b7f4e487b71000000000000000000000000000000000000000000000000000000005f52603260045260245ffd5b5f5ffd5b5f5ffd5b5f5ffd5b5f5f8335600160200384360303811261063a57610639610612565b5b80840192508235915067ffffffffffffffff82111561065c5761065b610616565b5b6020830192506001820236038313156106785761067761061a565b5b509250929050565b5f81905092915050565b828183375f83830152505050565b5f6106a38385610680565b93506106b083858461068a565b82840190509392505050565b5f73ffffffffffffffffffffffffffffffffffffffff82169050919050565b5f6106e5826106bc565b9050919050565b5f8160601b9050919050565b5f610702826106ec565b9050919050565b5f610713826106f8565b9050919050565b61072b610726826106db565b610709565b82525050565b5f61073d828587610698565b9150610749828461071a565b601482019150819050949350505050565b5f61076482610496565b61076e8185610680565b935061077e8185602086016104b0565b80840191505092915050565b5f610795828461075a565b915081905092915050565b5f82825260208201905092915050565b7f416464726573733a2063616c6c20746f206e6f6e2d636f6e74726163740000005f82015250565b5f6107e4601d836107a0565b91506107ef826107b0565b602082019050919050565b5f6020820190508181035f830152610811816107d8565b9050919050565b5f81519050919050565b5f61082c82610818565b61083681856107a0565b93506108468185602086016104b0565b61084f816104be565b840191505092915050565b5f6020820190508181035f8301526108728184610822565b90509291505056fe416464726573733a206c6f772d6c6576656c2064656c65676174652063616c6c206661696c6564a2646970667358221220bf405c9e5a062326e75cd5882fe6ce1d6bd236386c560cb4a3b3a06af24491e864736f6c634300081e0033",
					"opcodes": "PUSH1 0x80 PUSH1 0x40 MSTORE CALLVALUE DUP1 ISZERO PUSH1 0xE JUMPI PUSH0 PUSH0 REVERT JUMPDEST POP PUSH2 0x8D7 DUP1 PUSH2 0x1C PUSH0 CODECOPY PUSH0 RETURN INVALID PUSH1 0x80 PUSH1 0x40 MSTORE CALLVALUE DUP1 ISZERO PUSH2 0xF JUMPI PUSH0 PUSH0 REVERT JUMPDEST POP PUSH1 0x4 CALLDATASIZE LT PUSH2 0x29 JUMPI PUSH0 CALLDATALOAD PUSH1 0xE0 SHR DUP1 PUSH4 0xAC9650D8 EQ PUSH2 0x2D JUMPI JUMPDEST PUSH0 PUSH0 REVERT JUMPDEST PUSH2 0x47 PUSH1 0x4 DUP1 CALLDATASIZE SUB DUP2 ADD SWAP1 PUSH2 0x42 SWAP2 SWAP1 PUSH2 0x422 JUMP JUMPDEST PUSH2 0x5D JUMP JUMPDEST PUSH1 0x40 MLOAD PUSH2 0x54 SWAP2 SWAP1 PUSH2 0x598 JUMP JUMPDEST PUSH1 0x40 MLOAD DUP1 SWAP2 SUB SWAP1 RETURN JUMPDEST PUSH1 0x60 DUP3 DUP3 SWAP1 POP PUSH8 0xFFFFFFFFFFFFFFFF DUP2 GT ISZERO PUSH2 0x7C JUMPI PUSH2 0x7B PUSH2 0x5B8 JUMP JUMPDEST JUMPDEST PUSH1 0x40 MLOAD SWAP1 DUP1 DUP3 MSTORE DUP1 PUSH1 0x20 MUL PUSH1 0x20 ADD DUP3 ADD PUSH1 0x40 MSTORE DUP1 ISZERO PUSH2 0xAF JUMPI DUP2 PUSH1 0x20 ADD JUMPDEST PUSH1 0x60 DUP2 MSTORE PUSH1 0x20 ADD SWAP1 PUSH1 0x1 SWAP1 SUB SWAP1 DUP2 PUSH2 0x9A JUMPI SWAP1 POP JUMPDEST POP SWAP1 POP PUSH0 PUSH2 0xBB PUSH2 0x21E JUMP JUMPDEST SWAP1 POP PUSH0 DUP2 PUSH20 0xFFFFFFFFFFFFFFFFFFFFFFFFFFFFFFFFFFFFFFFF AND CALLER PUSH20 0xFFFFFFFFFFFFFFFFFFFFFFFFFFFFFFFFFFFFFFFF AND EQ ISZERO SWAP1 POP PUSH0 PUSH0 SWAP1 POP JUMPDEST DUP6 DUP6 SWAP1 POP DUP2 LT ISZERO PUSH2 0x215 JUMPI DUP2 ISZERO PUSH2 0x179 JUMPI PUSH2 0x156 ADDRESS DUP8 DUP8 DUP5 DUP2 DUP2 LT PUSH2 0x11D JUMPI PUSH2 0x11C PUSH2 0x5E5 JUMP JUMPDEST JUMPDEST SWAP1 POP PUSH1 0x20 MUL DUP2 ADD SWAP1 PUSH2 0x12F SWAP2 SWAP1 PUSH2 0x61E JUMP JUMPDEST DUP7 PUSH1 0x40 MLOAD PUSH1 0x20 ADD PUSH2 0x142 SWAP4 SWAP3 SWAP2 SWAP1 PUSH2 0x731 JUMP JUMPDEST PUSH1 0x40 MLOAD PUSH1 0x20 DUP2 DUP4 SUB SUB DUP2 MSTORE SWAP1 PUSH1 0x40 MSTORE PUSH2 0x225 JUMP JUMPDEST DUP5 DUP3 DUP2 MLOAD DUP2 LT PUSH2 0x169 JUMPI PUSH2 0x168 PUSH2 0x5E5 JUMP JUMPDEST JUMPDEST PUSH1 0x20 MUL PUSH1 0x20 ADD ADD DUP2 SWAP1 MSTORE POP PUSH2 0x208 JUMP JUMPDEST PUSH2 0x1E9 ADDRESS DUP8 DUP8 DUP5 DUP2 DUP2 LT PUSH2 0x190 JUMPI PUSH2 0x18F PUSH2 0x5E5 JUMP JUMPDEST JUMPDEST SWAP1 POP PUSH1 0x20 MUL DUP2 ADD SWAP1 PUSH2 0x1A2 SWAP2 SWAP1 PUSH2 0x61E JUMP JUMPDEST DUP1 DUP1 PUSH1 0x1F ADD PUSH1 0x20 DUP1 SWAP2 DIV MUL PUSH1 0x20 ADD PUSH1 0x40 MLOAD SWAP1 DUP2 ADD PUSH1 0x40 MSTORE DUP1 SWAP4 SWAP3 SWAP2 SWAP1 DUP2 DUP2 MSTORE PUSH1 0x20 ADD DUP4 DUP4 DUP1 DUP3 DUP5 CALLDATACOPY PUSH0 DUP2 DUP5 ADD MSTORE PUSH1 0x1F NOT PUSH1 0x1F DUP3 ADD AND SWAP1 POP DUP1 DUP4 ADD SWAP3 POP POP POP POP POP POP POP PUSH2 0x225 JUMP JUMPDEST DUP5 DUP3 DUP2 MLOAD DUP2 LT PUSH2 0x1FC JUMPI PUSH2 0x1FB PUSH2 0x5E5 JUMP JUMPDEST JUMPDEST PUSH1 0x20 MUL PUSH1 0x20 ADD ADD DUP2 SWAP1 MSTORE POP JUMPDEST DUP1 DUP1 PUSH1 0x1 ADD SWAP2 POP POP PUSH2 0xF5 JUMP JUMPDEST POP POP POP SWAP3 SWAP2 POP POP JUMP JUMPDEST PUSH0 CALLER SWAP1 POP SWAP1 JUMP JUMPDEST PUSH1 0x60 PUSH2 0x24A DUP4 DUP4 PUSH1 0x40 MLOAD DUP1 PUSH1 0x60 ADD PUSH1 0x40 MSTORE DUP1 PUSH1 0x27 DUP2 MSTORE PUSH1 0x20 ADD PUSH2 0x87B PUSH1 0x27 SWAP2 CODECOPY PUSH2 0x252 JUMP JUMPDEST SWAP1 POP SWAP3 SWAP2 POP POP JUMP JUMPDEST PUSH1 0x60 PUSH0 PUSH0 DUP6 PUSH20 0xFFFFFFFFFFFFFFFFFFFFFFFFFFFFFFFFFFFFFFFF AND DUP6 PUSH1 0x40 MLOAD PUSH2 0x27B SWAP2 SWAP1 PUSH2 0x78A JUMP JUMPDEST PUSH0 PUSH1 0x40 MLOAD DUP1 DUP4 SUB DUP2 DUP6 GAS DELEGATECALL SWAP2 POP POP RETURNDATASIZE DUP1 PUSH0 DUP2 EQ PUSH2 0x2B3 JUMPI PUSH1 0x40 MLOAD SWAP2 POP PUSH1 0x1F NOT PUSH1 0x3F RETURNDATASIZE ADD AND DUP3 ADD PUSH1 0x40 MSTORE RETURNDATASIZE DUP3 MSTORE RETURNDATASIZE PUSH0 PUSH1 0x20 DUP5 ADD RETURNDATACOPY PUSH2 0x2B8 JUMP JUMPDEST PUSH1 0x60 SWAP2 POP JUMPDEST POP SWAP2 POP SWAP2 POP PUSH2 0x2C9 DUP7 DUP4 DUP4 DUP8 PUSH2 0x2D4 JUMP JUMPDEST SWAP3 POP POP POP SWAP4 SWAP3 POP POP POP JUMP JUMPDEST PUSH1 0x60 DUP4 ISZERO PUSH2 0x335 JUMPI PUSH0 DUP4 MLOAD SUB PUSH2 0x32D JUMPI PUSH2 0x2ED DUP6 PUSH2 0x348 JUMP JUMPDEST PUSH2 0x32C JUMPI PUSH1 0x40 MLOAD PUSH32 0x8C379A000000000000000000000000000000000000000000000000000000000 DUP2 MSTORE PUSH1 0x4 ADD PUSH2 0x323 SWAP1 PUSH2 0x7FA JUMP JUMPDEST PUSH1 0x40 MLOAD DUP1 SWAP2 SUB SWAP1 REVERT JUMPDEST JUMPDEST DUP3 SWAP1 POP PUSH2 0x340 JUMP JUMPDEST PUSH2 0x33F DUP4 DUP4 PUSH2 0x36A JUMP JUMPDEST JUMPDEST SWAP5 SWAP4 POP POP POP POP JUMP JUMPDEST PUSH0 PUSH0 DUP3 PUSH20 0xFFFFFFFFFFFFFFFFFFFFFFFFFFFFFFFFFFFFFFFF AND EXTCODESIZE GT SWAP1 POP SWAP2 SWAP1 POP JUMP JUMPDEST PUSH0 DUP3 MLOAD GT ISZERO PUSH2 0x37C JUMPI DUP2 MLOAD DUP1 DUP4 PUSH1 0x20 ADD REVERT JUMPDEST DUP1 PUSH1 0x40 MLOAD PUSH32 0x8C379A000000000000000000000000000000000000000000000000000000000 DUP2 MSTORE PUSH1 0x4 ADD PUSH2 0x3B0 SWAP2 SWAP1 PUSH2 0x85A JUMP JUMPDEST PUSH1 0x40 MLOAD DUP1 SWAP2 SUB SWAP1 REVERT JUMPDEST PUSH0 PUSH0 REVERT JUMPDEST PUSH0 PUSH0 REVERT JUMPDEST PUSH0 PUSH0 REVERT JUMPDEST PUSH0 PUSH0 REVERT JUMPDEST PUSH0 PUSH0 REVERT JUMPDEST PUSH0 PUSH0 DUP4 PUSH1 0x1F DUP5 ADD SLT PUSH2 0x3E2 JUMPI PUSH2 0x3E1 PUSH2 0x3C1 JUMP JUMPDEST JUMPDEST DUP3 CALLDATALOAD SWAP1 POP PUSH8 0xFFFFFFFFFFFFFFFF DUP2 GT ISZERO PUSH2 0x3FF JUMPI PUSH2 0x3FE PUSH2 0x3C5 JUMP JUMPDEST JUMPDEST PUSH1 0x20 DUP4 ADD SWAP2 POP DUP4 PUSH1 0x20 DUP3 MUL DUP4 ADD GT ISZERO PUSH2 0x41B JUMPI PUSH2 0x41A PUSH2 0x3C9 JUMP JUMPDEST JUMPDEST SWAP3 POP SWAP3 SWAP1 POP JUMP JUMPDEST PUSH0 PUSH0 PUSH1 0x20 DUP4 DUP6 SUB SLT ISZERO PUSH2 0x438 JUMPI PUSH2 0x437 PUSH2 0x3B9 JUMP JUMPDEST JUMPDEST PUSH0 DUP4 ADD CALLDATALOAD PUSH8 0xFFFFFFFFFFFFFFFF DUP2 GT ISZERO PUSH2 0x455 JUMPI PUSH2 0x454 PUSH2 0x3BD JUMP JUMPDEST JUMPDEST PUSH2 0x461 DUP6 DUP3 DUP7 ADD PUSH2 0x3CD JUMP JUMPDEST SWAP3 POP SWAP3 POP POP SWAP3 POP SWAP3 SWAP1 POP JUMP JUMPDEST PUSH0 DUP2 MLOAD SWAP1 POP SWAP2 SWAP1 POP JUMP JUMPDEST PUSH0 DUP3 DUP3 MSTORE PUSH1 0x20 DUP3 ADD SWAP1 POP SWAP3 SWAP2 POP POP JUMP JUMPDEST PUSH0 DUP2 SWAP1 POP PUSH1 0x20 DUP3 ADD SWAP1 POP SWAP2 SWAP1 POP JUMP JUMPDEST PUSH0 DUP2 MLOAD SWAP1 POP SWAP2 SWAP1 POP JUMP JUMPDEST PUSH0 DUP3 DUP3 MSTORE PUSH1 0x20 DUP3 ADD SWAP1 POP SWAP3 SWAP2 POP POP JUMP JUMPDEST DUP3 DUP2 DUP4 MCOPY PUSH0 DUP4 DUP4 ADD MSTORE POP POP POP JUMP JUMPDEST PUSH0 PUSH1 0x1F NOT PUSH1 0x1F DUP4 ADD AND SWAP1 POP SWAP2 SWAP1 POP JUMP JUMPDEST PUSH0 PUSH2 0x4D8 DUP3 PUSH2 0x496 JUMP JUMPDEST PUSH2 0x4E2 DUP2 DUP6 PUSH2 0x4A0 JUMP JUMPDEST SWAP4 POP PUSH2 0x4F2 DUP2 DUP6 PUSH1 0x20 DUP7 ADD PUSH2 0x4B0 JUMP JUMPDEST PUSH2 0x4FB DUP2 PUSH2 0x4BE JUMP JUMPDEST DUP5 ADD SWAP2 POP POP SWAP3 SWAP2 POP POP JUMP JUMPDEST PUSH0 PUSH2 0x511 DUP4 DUP4 PUSH2 0x4CE JUMP JUMPDEST SWAP1 POP SWAP3 SWAP2 POP POP JUMP JUMPDEST PUSH0 PUSH1 0x20 DUP3 ADD SWAP1 POP SWAP2 SWAP1 POP JUMP JUMPDEST PUSH0 PUSH2 0x52F DUP3 PUSH2 0x46D JUMP JUMPDEST PUSH2 0x539 DUP2 DUP6 PUSH2 0x477 JUMP JUMPDEST SWAP4 POP DUP4 PUSH1 0x20 DUP3 MUL DUP6 ADD PUSH2 0x54B DUP6 PUSH2 0x487 JUMP JUMPDEST DUP1 PUSH0 JUMPDEST DUP6 DUP2 LT ISZERO PUSH2 0x586 JUMPI DUP5 DUP5 SUB DUP10 MSTORE DUP2 MLOAD PUSH2 0x567 DUP6 DUP3 PUSH2 0x506 JUMP JUMPDEST SWAP5 POP PUSH2 0x572 DUP4 PUSH2 0x519 JUMP JUMPDEST SWAP3 POP PUSH1 0x20 DUP11 ADD SWAP10 POP POP PUSH1 0x1 DUP2 ADD SWAP1 POP PUSH2 0x54E JUMP JUMPDEST POP DUP3 SWAP8 POP DUP8 SWAP6 POP POP POP POP POP POP SWAP3 SWAP2 POP POP JUMP JUMPDEST PUSH0 PUSH1 0x20 DUP3 ADD SWAP1 POP DUP2 DUP2 SUB PUSH0 DUP4 ADD MSTORE PUSH2 0x5B0 DUP2 DUP5 PUSH2 0x525 JUMP JUMPDEST SWAP1 POP SWAP3 SWAP2 POP POP JUMP JUMPDEST PUSH32 0x4E487B7100000000000000000000000000000000000000000000000000000000 PUSH0 MSTORE PUSH1 0x41 PUSH1 0x4 MSTORE PUSH1 0x24 PUSH0 REVERT JUMPDEST PUSH32 0x4E487B7100000000000000000000000000000000000000000000000000000000 PUSH0 MSTORE PUSH1 0x32 PUSH1 0x4 MSTORE PUSH1 0x24 PUSH0 REVERT JUMPDEST PUSH0 PUSH0 REVERT JUMPDEST PUSH0 PUSH0 REVERT JUMPDEST PUSH0 PUSH0 REVERT JUMPDEST PUSH0 PUSH0 DUP4 CALLDATALOAD PUSH1 0x1 PUSH1 0x20 SUB DUP5 CALLDATASIZE SUB SUB DUP2 SLT PUSH2 0x63A JUMPI PUSH2 0x639 PUSH2 0x612 JUMP JUMPDEST JUMPDEST DUP1 DUP5 ADD SWAP3 POP DUP3 CALLDATALOAD SWAP2 POP PUSH8 0xFFFFFFFFFFFFFFFF DUP3 GT ISZERO PUSH2 0x65C JUMPI PUSH2 0x65B PUSH2 0x616 JUMP JUMPDEST JUMPDEST PUSH1 0x20 DUP4 ADD SWAP3 POP PUSH1 0x1 DUP3 MUL CALLDATASIZE SUB DUP4 SGT ISZERO PUSH2 0x678 JUMPI PUSH2 0x677 PUSH2 0x61A JUMP JUMPDEST JUMPDEST POP SWAP3 POP SWAP3 SWAP1 POP JUMP JUMPDEST PUSH0 DUP2 SWAP1 POP SWAP3 SWAP2 POP POP JUMP JUMPDEST DUP3 DUP2 DUP4 CALLDATACOPY PUSH0 DUP4 DUP4 ADD MSTORE POP POP POP JUMP JUMPDEST PUSH0 PUSH2 0x6A3 DUP4 DUP6 PUSH2 0x680 JUMP JUMPDEST SWAP4 POP PUSH2 0x6B0 DUP4 DUP6 DUP5 PUSH2 0x68A JUMP JUMPDEST DUP3 DUP5 ADD SWAP1 POP SWAP4 SWAP3 POP POP POP JUMP JUMPDEST PUSH0 PUSH20 0xFFFFFFFFFFFFFFFFFFFFFFFFFFFFFFFFFFFFFFFF DUP3 AND SWAP1 POP SWAP2 SWAP1 POP JUMP JUMPDEST PUSH0 PUSH2 0x6E5 DUP3 PUSH2 0x6BC JUMP JUMPDEST SWAP1 POP SWAP2 SWAP1 POP JUMP JUMPDEST PUSH0 DUP2 PUSH1 0x60 SHL SWAP1 POP SWAP2 SWAP1 POP JUMP JUMPDEST PUSH0 PUSH2 0x702 DUP3 PUSH2 0x6EC JUMP JUMPDEST SWAP1 POP SWAP2 SWAP1 POP JUMP JUMPDEST PUSH0 PUSH2 0x713 DUP3 PUSH2 0x6F8 JUMP JUMPDEST SWAP1 POP SWAP2 SWAP1 POP JUMP JUMPDEST PUSH2 0x72B PUSH2 0x726 DUP3 PUSH2 0x6DB JUMP JUMPDEST PUSH2 0x709 JUMP JUMPDEST DUP3 MSTORE POP POP JUMP JUMPDEST PUSH0 PUSH2 0x73D DUP3 DUP6 DUP8 PUSH2 0x698 JUMP JUMPDEST SWAP2 POP PUSH2 0x749 DUP3 DUP5 PUSH2 0x71A JUMP JUMPDEST PUSH1 0x14 DUP3 ADD SWAP2 POP DUP2 SWAP1 POP SWAP5 SWAP4 POP POP POP POP JUMP JUMPDEST PUSH0 PUSH2 0x764 DUP3 PUSH2 0x496 JUMP JUMPDEST PUSH2 0x76E DUP2 DUP6 PUSH2 0x680 JUMP JUMPDEST SWAP4 POP PUSH2 0x77E DUP2 DUP6 PUSH1 0x20 DUP7 ADD PUSH2 0x4B0 JUMP JUMPDEST DUP1 DUP5 ADD SWAP2 POP POP SWAP3 SWAP2 POP POP JUMP JUMPDEST PUSH0 PUSH2 0x795 DUP3 DUP5 PUSH2 0x75A JUMP JUMPDEST SWAP2 POP DUP2 SWAP1 POP SWAP3 SWAP2 POP POP JUMP JUMPDEST PUSH0 DUP3 DUP3 MSTORE PUSH1 0x20 DUP3 ADD SWAP1 POP SWAP3 SWAP2 POP POP JUMP JUMPDEST PUSH32 0x416464726573733A2063616C6C20746F206E6F6E2D636F6E7472616374000000 PUSH0 DUP3 ADD MSTORE POP JUMP JUMPDEST PUSH0 PUSH2 0x7E4 PUSH1 0x1D DUP4 PUSH2 0x7A0 JUMP JUMPDEST SWAP2 POP PUSH2 0x7EF DUP3 PUSH2 0x7B0 JUMP JUMPDEST PUSH1 0x20 DUP3 ADD SWAP1 POP SWAP2 SWAP1 POP JUMP JUMPDEST PUSH0 PUSH1 0x20 DUP3 ADD SWAP1 POP DUP2 DUP2 SUB PUSH0 DUP4 ADD MSTORE PUSH2 0x811 DUP2 PUSH2 0x7D8 JUMP JUMPDEST SWAP1 POP SWAP2 SWAP1 POP JUMP JUMPDEST PUSH0 DUP2 MLOAD SWAP1 POP SWAP2 SWAP1 POP JUMP JUMPDEST PUSH0 PUSH2 0x82C DUP3 PUSH2 0x818 JUMP JUMPDEST PUSH2 0x836 DUP2 DUP6 PUSH2 0x7A0 JUMP JUMPDEST SWAP4 POP PUSH2 0x846 DUP2 DUP6 PUSH1 0x20 DUP7 ADD PUSH2 0x4B0 JUMP JUMPDEST PUSH2 0x84F DUP2 PUSH2 0x4BE JUMP JUMPDEST DUP5 ADD SWAP2 POP POP SWAP3 SWAP2 POP POP JUMP JUMPDEST PUSH0 PUSH1 0x20 DUP3 ADD SWAP1 POP DUP2 DUP2 SUB PUSH0 DUP4 ADD MSTORE PUSH2 0x872 DUP2 DUP5 PUSH2 0x822 JUMP JUMPDEST SWAP1 POP SWAP3 SWAP2 POP POP JUMP INVALID COINBASE PUSH5 0x6472657373 GASPRICE KECCAK256 PUSH13 0x6F772D6C6576656C2064656C65 PUSH8 0x6174652063616C6C KECCAK256 PUSH7 0x61696C6564A264 PUSH10 0x70667358221220BF405C SWAP15 GAS MOD 0x23 0x26 SWAPN 0x5C 0xD5 DUP9 0x2F DUPN 0xCE SAR PUSH12 0xD236386C560CB4A3B3A06AF2 PREVRANDAO SWAP2 0xE8 PUSH5 0x736F6C6343 STOP ADDMOD 0x1E STOP CALLER "
				},
				"gasEstimates": {
					"creation": {
						"codeDepositCost": "452600",
						"executionCost": "484",
						"totalCost": "453084"
					},
					"external": {
						"multicall(bytes[])": "infinite"
					},
					"internal": {
						"_msgSender()": "21"
					}
				},
				"methodIdentifiers": {
					"multicall(bytes[])": "ac9650d8"
				}
			},
			"storageLayout": {
				"storage": [],
				"types": null
			},
			"userdoc": {
				"kind": "user",
				"methods": {
					"multicall(bytes[])": {
						"notice": "Receives and executes a batch of function calls on this contract."
					}
				},
				"version": 1
			}
		}
	}
}